{
	"contracts/fructificateur.sol": {
		"fructificateur": {
			"abi": [
				{
					"inputs": [],
					"stateMutability": "nonpayable",
					"type": "constructor"
				},
				{
					"anonymous": false,
					"inputs": [
						{
							"indexed": true,
							"internalType": "address",
							"name": "borrower",
							"type": "address"
						},
						{
							"indexed": false,
							"internalType": "uint256",
							"name": "amount",
							"type": "uint256"
						},
						{
							"indexed": false,
							"internalType": "uint256",
							"name": "duration",
							"type": "uint256"
						}
					],
					"name": "LoanGranted",
					"type": "event"
				},
				{
					"inputs": [],
					"name": "contractBalances",
					"outputs": [
						{
							"internalType": "uint256",
							"name": "",
							"type": "uint256"
						}
					],
					"stateMutability": "view",
					"type": "function"
				},
				{
					"inputs": [
						{
							"internalType": "uint256",
							"name": "amount",
							"type": "uint256"
						},
						{
							"internalType": "uint256",
							"name": "duration",
							"type": "uint256"
						}
					],
					"name": "emprunterFonds",
					"outputs": [],
					"stateMutability": "payable",
					"type": "function"
				},
				{
					"inputs": [
						{
							"internalType": "address",
							"name": "",
							"type": "address"
						}
					],
					"name": "emprunteur",
					"outputs": [
						{
							"internalType": "uint256",
							"name": "montant",
							"type": "uint256"
						},
						{
							"internalType": "uint256",
							"name": "duree",
							"type": "uint256"
						},
						{
							"internalType": "uint256",
							"name": "dureeRestante",
							"type": "uint256"
						},
						{
							"internalType": "uint256",
							"name": "tauxInteret",
							"type": "uint256"
						}
					],
					"stateMutability": "view",
					"type": "function"
				},
				{
					"inputs": [
						{
							"internalType": "uint256",
							"name": "duration",
							"type": "uint256"
						}
					],
					"name": "findInterestRate",
					"outputs": [
						{
							"internalType": "uint256",
							"name": "",
							"type": "uint256"
						}
					],
					"stateMutability": "pure",
					"type": "function"
				},
				{
					"inputs": [],
					"name": "getContractBalance",
					"outputs": [
						{
							"internalType": "uint256",
							"name": "",
							"type": "uint256"
						}
					],
					"stateMutability": "view",
					"type": "function"
				},
				{
					"inputs": [],
					"name": "getContractBalanceReelle",
					"outputs": [
						{
							"internalType": "uint256",
							"name": "",
							"type": "uint256"
						}
					],
					"stateMutability": "view",
					"type": "function"
				},
				{
					"inputs": [
						{
							"internalType": "uint256",
							"name": "duration",
							"type": "uint256"
						}
					],
					"name": "investirFonds",
					"outputs": [],
					"stateMutability": "payable",
					"type": "function"
				},
				{
					"inputs": [
						{
							"internalType": "address",
							"name": "",
							"type": "address"
						}
					],
					"name": "investisseur",
					"outputs": [
						{
							"internalType": "uint256",
							"name": "montant",
							"type": "uint256"
						},
						{
							"internalType": "uint256",
							"name": "duree",
							"type": "uint256"
						},
						{
							"internalType": "uint256",
							"name": "dureeRestante",
							"type": "uint256"
						},
						{
							"internalType": "uint256",
							"name": "tauxInteret",
							"type": "uint256"
						}
					],
					"stateMutability": "view",
					"type": "function"
				},
				{
					"inputs": [],
					"name": "owner",
					"outputs": [
						{
							"internalType": "address",
							"name": "",
							"type": "address"
						}
					],
					"stateMutability": "view",
					"type": "function"
				},
				{
					"inputs": [],
					"name": "rembouserEmprunt",
					"outputs": [],
					"stateMutability": "payable",
					"type": "function"
				},
				{
					"inputs": [],
					"name": "retourInvestissement",
					"outputs": [],
					"stateMutability": "payable",
					"type": "function"
				}
			],
			"devdoc": {
				"kind": "dev",
				"methods": {},
				"version": 1
			},
			"evm": {
				"assembly": "    /* \"contracts/fructificateur.sol\":58:5423  contract fructificateur {... */\n  mstore(0x40, 0x80)\n    /* \"contracts/fructificateur.sol\":147:148  0 */\n  0x00\n    /* \"contracts/fructificateur.sol\":113:148  uint256 public contractBalances = 0 */\n  dup1\n  sstore\n    /* \"contracts/fructificateur.sol\":659:708  constructor() {... */\n  callvalue\n  dup1\n  iszero\n  tag_1\n  jumpi\n  0x00\n  dup1\n  revert\ntag_1:\n  pop\n    /* \"contracts/fructificateur.sol\":691:701  msg.sender */\n  caller\n    /* \"contracts/fructificateur.sol\":683:688  owner */\n  0x03\n  0x00\n    /* \"contracts/fructificateur.sol\":683:701  owner = msg.sender */\n  0x0100\n  exp\n  dup2\n  sload\n  dup2\n  0xffffffffffffffffffffffffffffffffffffffff\n  mul\n  not\n  and\n  swap1\n  dup4\n  0xffffffffffffffffffffffffffffffffffffffff\n  and\n  mul\n  or\n  swap1\n  sstore\n  pop\n    /* \"contracts/fructificateur.sol\":58:5423  contract fructificateur {... */\n  dataSize(sub_0)\n  dup1\n  dataOffset(sub_0)\n  0x00\n  codecopy\n  0x00\n  return\nstop\n\nsub_0: assembly {\n        /* \"contracts/fructificateur.sol\":58:5423  contract fructificateur {... */\n      mstore(0x40, 0x80)\n      jumpi(tag_1, lt(calldatasize, 0x04))\n      shr(0xe0, calldataload(0x00))\n      dup1\n      0x8da5cb5b\n      gt\n      tag_13\n      jumpi\n      dup1\n      0x8da5cb5b\n      eq\n      tag_7\n      jumpi\n      dup1\n      0x97643fd7\n      eq\n      tag_8\n      jumpi\n      dup1\n      0xcc336ee1\n      eq\n      tag_9\n      jumpi\n      dup1\n      0xccbb629b\n      eq\n      tag_10\n      jumpi\n      dup1\n      0xde4c1982\n      eq\n      tag_11\n      jumpi\n      dup1\n      0xfeabae58\n      eq\n      tag_12\n      jumpi\n      jump(tag_1)\n    tag_13:\n      dup1\n      0x2163885a\n      eq\n      tag_2\n      jumpi\n      dup1\n      0x6f9fb98a\n      eq\n      tag_3\n      jumpi\n      dup1\n      0x704d914d\n      eq\n      tag_4\n      jumpi\n      dup1\n      0x7341db60\n      eq\n      tag_5\n      jumpi\n      dup1\n      0x7c0c3602\n      eq\n      tag_6\n      jumpi\n    tag_1:\n      0x00\n      dup1\n      revert\n        /* \"contracts/fructificateur.sol\":113:148  uint256 public contractBalances = 0 */\n    tag_2:\n      callvalue\n      dup1\n      iszero\n      tag_14\n      jumpi\n      0x00\n      dup1\n      revert\n    tag_14:\n      pop\n      tag_15\n      tag_16\n      jump\t// in\n    tag_15:\n      mload(0x40)\n      tag_17\n      swap2\n      swap1\n      tag_18\n      jump\t// in\n    tag_17:\n      mload(0x40)\n      dup1\n      swap2\n      sub\n      swap1\n      return\n        /* \"contracts/fructificateur.sol\":4998:5098  function getContractBalance() public view returns (uint256) {... */\n    tag_3:\n      callvalue\n      dup1\n      iszero\n      tag_19\n      jumpi\n      0x00\n      dup1\n      revert\n    tag_19:\n      pop\n      tag_20\n      tag_21\n      jump\t// in\n    tag_20:\n      mload(0x40)\n      tag_22\n      swap2\n      swap1\n      tag_18\n      jump\t// in\n    tag_22:\n      mload(0x40)\n      dup1\n      swap2\n      sub\n      swap1\n      return\n        /* \"contracts/fructificateur.sol\":3111:3991  function rembouserEmprunt() public payable {... */\n    tag_4:\n      tag_23\n      tag_24\n      jump\t// in\n    tag_23:\n      stop\n        /* \"contracts/fructificateur.sol\":775:1170  function findInterestRate(uint256 duration) public pure returns (uint256) { ... */\n    tag_5:\n      callvalue\n      dup1\n      iszero\n      tag_25\n      jumpi\n      0x00\n      dup1\n      revert\n    tag_25:\n      pop\n      tag_26\n      0x04\n      dup1\n      calldatasize\n      sub\n      dup2\n      add\n      swap1\n      tag_27\n      swap2\n      swap1\n      tag_28\n      jump\t// in\n    tag_27:\n      tag_29\n      jump\t// in\n    tag_26:\n      mload(0x40)\n      tag_30\n      swap2\n      swap1\n      tag_18\n      jump\t// in\n    tag_30:\n      mload(0x40)\n      dup1\n      swap2\n      sub\n      swap1\n      return\n        /* \"contracts/fructificateur.sol\":1201:2053  function investirFonds(uint256 duration) public payable {... */\n    tag_6:\n      tag_31\n      0x04\n      dup1\n      calldatasize\n      sub\n      dup2\n      add\n      swap1\n      tag_32\n      swap2\n      swap1\n      tag_28\n      jump\t// in\n    tag_32:\n      tag_33\n      jump\t// in\n    tag_31:\n      stop\n        /* \"contracts/fructificateur.sol\":472:492  address public owner */\n    tag_7:\n      callvalue\n      dup1\n      iszero\n      tag_34\n      jumpi\n      0x00\n      dup1\n      revert\n    tag_34:\n      pop\n      tag_35\n      tag_36\n      jump\t// in\n    tag_35:\n      mload(0x40)\n      tag_37\n      swap2\n      swap1\n      tag_38\n      jump\t// in\n    tag_37:\n      mload(0x40)\n      dup1\n      swap2\n      sub\n      swap1\n      return\n        /* \"contracts/fructificateur.sol\":5104:5215  function getContractBalanceReelle() public view returns (uint256) {... */\n    tag_8:\n      callvalue\n      dup1\n      iszero\n      tag_39\n      jumpi\n      0x00\n      dup1\n      revert\n    tag_39:\n      pop\n      tag_40\n      tag_41\n      jump\t// in\n    tag_40:\n      mload(0x40)\n      tag_42\n      swap2\n      swap1\n      tag_18\n      jump\t// in\n    tag_42:\n      mload(0x40)\n      dup1\n      swap2\n      sub\n      swap1\n      return\n        /* \"contracts/fructificateur.sol\":353:405  mapping(address => ValeurClient) public investisseur */\n    tag_9:\n      callvalue\n      dup1\n      iszero\n      tag_43\n      jumpi\n      0x00\n      dup1\n      revert\n    tag_43:\n      pop\n      tag_44\n      0x04\n      dup1\n      calldatasize\n      sub\n      dup2\n      add\n      swap1\n      tag_45\n      swap2\n      swap1\n      tag_46\n      jump\t// in\n    tag_45:\n      tag_47\n      jump\t// in\n    tag_44:\n      mload(0x40)\n      tag_48\n      swap5\n      swap4\n      swap3\n      swap2\n      swap1\n      tag_49\n      jump\t// in\n    tag_48:\n      mload(0x40)\n      dup1\n      swap2\n      sub\n      swap1\n      return\n        /* \"contracts/fructificateur.sol\":4045:4984  function retourInvestissement() public payable {... */\n    tag_10:\n      tag_50\n      tag_51\n      jump\t// in\n    tag_50:\n      stop\n        /* \"contracts/fructificateur.sol\":411:461  mapping(address => ValeurClient) public emprunteur */\n    tag_11:\n      callvalue\n      dup1\n      iszero\n      tag_52\n      jumpi\n      0x00\n      dup1\n      revert\n    tag_52:\n      pop\n      tag_53\n      0x04\n      dup1\n      calldatasize\n      sub\n      dup2\n      add\n      swap1\n      tag_54\n      swap2\n      swap1\n      tag_46\n      jump\t// in\n    tag_54:\n      tag_55\n      jump\t// in\n    tag_53:\n      mload(0x40)\n      tag_56\n      swap5\n      swap4\n      swap3\n      swap2\n      swap1\n      tag_49\n      jump\t// in\n    tag_56:\n      mload(0x40)\n      dup1\n      swap2\n      sub\n      swap1\n      return\n        /* \"contracts/fructificateur.sol\":2090:3076  function emprunterFonds(uint256 amount, uint256 duration) public payable  {... */\n    tag_12:\n      tag_57\n      0x04\n      dup1\n      calldatasize\n      sub\n      dup2\n      add\n      swap1\n      tag_58\n      swap2\n      swap1\n      tag_59\n      jump\t// in\n    tag_58:\n      tag_60\n      jump\t// in\n    tag_57:\n      stop\n        /* \"contracts/fructificateur.sol\":113:148  uint256 public contractBalances = 0 */\n    tag_16:\n      sload(0x00)\n      dup2\n      jump\t// out\n        /* \"contracts/fructificateur.sol\":4998:5098  function getContractBalance() public view returns (uint256) {... */\n    tag_21:\n        /* \"contracts/fructificateur.sol\":5049:5056  uint256 */\n      0x00\n        /* \"contracts/fructificateur.sol\":5075:5091  contractBalances */\n      dup1\n      sload\n        /* \"contracts/fructificateur.sol\":5068:5091  return contractBalances */\n      swap1\n      pop\n        /* \"contracts/fructificateur.sol\":4998:5098  function getContractBalance() public view returns (uint256) {... */\n      swap1\n      jump\t// out\n        /* \"contracts/fructificateur.sol\":3111:3991  function rembouserEmprunt() public payable {... */\n    tag_24:\n        /* \"contracts/fructificateur.sol\":3211:3212  0 */\n      0x00\n        /* \"contracts/fructificateur.sol\":3172:3182  emprunteur */\n      0x02\n        /* \"contracts/fructificateur.sol\":3172:3194  emprunteur[msg.sender] */\n      0x00\n        /* \"contracts/fructificateur.sol\":3183:3193  msg.sender */\n      caller\n        /* \"contracts/fructificateur.sol\":3172:3194  emprunteur[msg.sender] */\n      0xffffffffffffffffffffffffffffffffffffffff\n      and\n      0xffffffffffffffffffffffffffffffffffffffff\n      and\n      dup2\n      mstore\n      0x20\n      add\n      swap1\n      dup2\n      mstore\n      0x20\n      add\n      0x00\n      keccak256\n        /* \"contracts/fructificateur.sol\":3172:3208  emprunteur[msg.sender].dureeRestante */\n      0x02\n      add\n      sload\n        /* \"contracts/fructificateur.sol\":3172:3212  emprunteur[msg.sender].dureeRestante > 0 */\n      gt\n        /* \"contracts/fructificateur.sol\":3164:3240  require(emprunteur[msg.sender].dureeRestante > 0, \"Aucun pret actif trouve\") */\n      tag_63\n      jumpi\n      mload(0x40)\n      0x08c379a000000000000000000000000000000000000000000000000000000000\n      dup2\n      mstore\n      0x04\n      add\n      tag_64\n      swap1\n      tag_65\n      jump\t// in\n    tag_64:\n      mload(0x40)\n      dup1\n      swap2\n      sub\n      swap1\n      revert\n    tag_63:\n        /* \"contracts/fructificateur.sol\":3250:3264  uint256 amount */\n      0x00\n        /* \"contracts/fructificateur.sol\":3267:3276  msg.value */\n      callvalue\n        /* \"contracts/fructificateur.sol\":3250:3276  uint256 amount = msg.value */\n      swap1\n      pop\n        /* \"contracts/fructificateur.sol\":3365:3391  uint256 montantARembourser */\n      0x00\n        /* \"contracts/fructificateur.sol\":3506:3516  emprunteur */\n      0x02\n        /* \"contracts/fructificateur.sol\":3506:3528  emprunteur[msg.sender] */\n      0x00\n        /* \"contracts/fructificateur.sol\":3517:3527  msg.sender */\n      caller\n        /* \"contracts/fructificateur.sol\":3506:3528  emprunteur[msg.sender] */\n      0xffffffffffffffffffffffffffffffffffffffff\n      and\n      0xffffffffffffffffffffffffffffffffffffffff\n      and\n      dup2\n      mstore\n      0x20\n      add\n      swap1\n      dup2\n      mstore\n      0x20\n      add\n      0x00\n      keccak256\n        /* \"contracts/fructificateur.sol\":3506:3534  emprunteur[msg.sender].duree */\n      0x01\n      add\n      sload\n        /* \"contracts/fructificateur.sol\":3498:3501  100 */\n      0x64\n        /* \"contracts/fructificateur.sol\":3461:3471  emprunteur */\n      0x02\n        /* \"contracts/fructificateur.sol\":3461:3483  emprunteur[msg.sender] */\n      0x00\n        /* \"contracts/fructificateur.sol\":3472:3482  msg.sender */\n      caller\n        /* \"contracts/fructificateur.sol\":3461:3483  emprunteur[msg.sender] */\n      0xffffffffffffffffffffffffffffffffffffffff\n      and\n      0xffffffffffffffffffffffffffffffffffffffff\n      and\n      dup2\n      mstore\n      0x20\n      add\n      swap1\n      dup2\n      mstore\n      0x20\n      add\n      0x00\n      keccak256\n        /* \"contracts/fructificateur.sol\":3461:3495  emprunteur[msg.sender].tauxInteret */\n      0x03\n      add\n      sload\n        /* \"contracts/fructificateur.sol\":3428:3438  emprunteur */\n      0x02\n        /* \"contracts/fructificateur.sol\":3428:3450  emprunteur[msg.sender] */\n      0x00\n        /* \"contracts/fructificateur.sol\":3439:3449  msg.sender */\n      caller\n        /* \"contracts/fructificateur.sol\":3428:3450  emprunteur[msg.sender] */\n      0xffffffffffffffffffffffffffffffffffffffff\n      and\n      0xffffffffffffffffffffffffffffffffffffffff\n      and\n      dup2\n      mstore\n      0x20\n      add\n      swap1\n      dup2\n      mstore\n      0x20\n      add\n      0x00\n      keccak256\n        /* \"contracts/fructificateur.sol\":3428:3458  emprunteur[msg.sender].montant */\n      0x00\n      add\n      sload\n        /* \"contracts/fructificateur.sol\":3428:3495  emprunteur[msg.sender].montant * emprunteur[msg.sender].tauxInteret */\n      tag_66\n      swap2\n      swap1\n      tag_67\n      jump\t// in\n    tag_66:\n        /* \"contracts/fructificateur.sol\":3428:3501  emprunteur[msg.sender].montant * emprunteur[msg.sender].tauxInteret / 100 */\n      tag_68\n      swap2\n      swap1\n      tag_69\n      jump\t// in\n    tag_68:\n        /* \"contracts/fructificateur.sol\":3394:3404  emprunteur */\n      0x02\n        /* \"contracts/fructificateur.sol\":3394:3416  emprunteur[msg.sender] */\n      0x00\n        /* \"contracts/fructificateur.sol\":3405:3415  msg.sender */\n      caller\n        /* \"contracts/fructificateur.sol\":3394:3416  emprunteur[msg.sender] */\n      0xffffffffffffffffffffffffffffffffffffffff\n      and\n      0xffffffffffffffffffffffffffffffffffffffff\n      and\n      dup2\n      mstore\n      0x20\n      add\n      swap1\n      dup2\n      mstore\n      0x20\n      add\n      0x00\n      keccak256\n        /* \"contracts/fructificateur.sol\":3394:3424  emprunteur[msg.sender].montant */\n      0x00\n      add\n      sload\n        /* \"contracts/fructificateur.sol\":3394:3502  emprunteur[msg.sender].montant + (emprunteur[msg.sender].montant * emprunteur[msg.sender].tauxInteret / 100) */\n      tag_70\n      swap2\n      swap1\n      tag_71\n      jump\t// in\n    tag_70:\n        /* \"contracts/fructificateur.sol\":3393:3534  (emprunteur[msg.sender].montant + (emprunteur[msg.sender].montant * emprunteur[msg.sender].tauxInteret / 100)) / emprunteur[msg.sender].duree */\n      tag_72\n      swap2\n      swap1\n      tag_69\n      jump\t// in\n    tag_72:\n        /* \"contracts/fructificateur.sol\":3365:3534  uint256 montantARembourser= (emprunteur[msg.sender].montant + (emprunteur[msg.sender].montant * emprunteur[msg.sender].tauxInteret / 100)) / emprunteur[msg.sender].duree */\n      swap1\n      pop\n        /* \"contracts/fructificateur.sol\":3582:3592  msg.sender */\n      caller\n        /* \"contracts/fructificateur.sol\":3574:3601  address(msg.sender).balance */\n      0xffffffffffffffffffffffffffffffffffffffff\n      and\n      balance\n        /* \"contracts/fructificateur.sol\":3552:3570  montantARembourser */\n      dup2\n        /* \"contracts/fructificateur.sol\":3552:3601  montantARembourser <= address(msg.sender).balance */\n      gt\n      iszero\n        /* \"contracts/fructificateur.sol\":3544:3626  require(montantARembourser <= address(msg.sender).balance, \"Balance insuffisante\") */\n      tag_73\n      jumpi\n      mload(0x40)\n      0x08c379a000000000000000000000000000000000000000000000000000000000\n      dup2\n      mstore\n      0x04\n      add\n      tag_74\n      swap1\n      tag_75\n      jump\t// in\n    tag_74:\n      mload(0x40)\n      dup1\n      swap2\n      sub\n      swap1\n      revert\n    tag_73:\n        /* \"contracts/fructificateur.sol\":3666:3672  amount */\n      dup2\n        /* \"contracts/fructificateur.sol\":3644:3662  montantARembourser */\n      dup2\n        /* \"contracts/fructificateur.sol\":3644:3672  montantARembourser <= amount */\n      gt\n      iszero\n        /* \"contracts/fructificateur.sol\":3636:3716  require(montantARembourser <= amount, \"Valeur pour la transaction insuffisante\") */\n      tag_76\n      jumpi\n      mload(0x40)\n      0x08c379a000000000000000000000000000000000000000000000000000000000\n      dup2\n      mstore\n      0x04\n      add\n      tag_77\n      swap1\n      tag_78\n      jump\t// in\n    tag_77:\n      mload(0x40)\n      dup1\n      swap2\n      sub\n      swap1\n      revert\n    tag_76:\n        /* \"contracts/fructificateur.sol\":3799:3817  montantARembourser */\n      dup1\n        /* \"contracts/fructificateur.sol\":3779:3795  contractBalances */\n      0x00\n      dup1\n        /* \"contracts/fructificateur.sol\":3779:3817  contractBalances += montantARembourser */\n      dup3\n      dup3\n      sload\n      tag_79\n      swap2\n      swap1\n      tag_71\n      jump\t// in\n    tag_79:\n      swap3\n      pop\n      pop\n      dup2\n      swap1\n      sstore\n      pop\n        /* \"contracts/fructificateur.sol\":3827:3837  emprunteur */\n      0x02\n        /* \"contracts/fructificateur.sol\":3827:3849  emprunteur[msg.sender] */\n      0x00\n        /* \"contracts/fructificateur.sol\":3838:3848  msg.sender */\n      caller\n        /* \"contracts/fructificateur.sol\":3827:3849  emprunteur[msg.sender] */\n      0xffffffffffffffffffffffffffffffffffffffff\n      and\n      0xffffffffffffffffffffffffffffffffffffffff\n      and\n      dup2\n      mstore\n      0x20\n      add\n      swap1\n      dup2\n      mstore\n      0x20\n      add\n      0x00\n      keccak256\n        /* \"contracts/fructificateur.sol\":3827:3863  emprunteur[msg.sender].dureeRestante */\n      0x02\n      add\n      0x00\n        /* \"contracts/fructificateur.sol\":3827:3865  emprunteur[msg.sender].dureeRestante-- */\n      dup2\n      sload\n      dup1\n      swap3\n      swap2\n      swap1\n      tag_80\n      swap1\n      tag_81\n      jump\t// in\n    tag_80:\n      swap2\n      swap1\n      pop\n      sstore\n      pop\n        /* \"contracts/fructificateur.sol\":3928:3929  0 */\n      0x00\n        /* \"contracts/fructificateur.sol\":3888:3898  emprunteur */\n      0x02\n        /* \"contracts/fructificateur.sol\":3888:3910  emprunteur[msg.sender] */\n      0x00\n        /* \"contracts/fructificateur.sol\":3899:3909  msg.sender */\n      caller\n        /* \"contracts/fructificateur.sol\":3888:3910  emprunteur[msg.sender] */\n      0xffffffffffffffffffffffffffffffffffffffff\n      and\n      0xffffffffffffffffffffffffffffffffffffffff\n      and\n      dup2\n      mstore\n      0x20\n      add\n      swap1\n      dup2\n      mstore\n      0x20\n      add\n      0x00\n      keccak256\n        /* \"contracts/fructificateur.sol\":3888:3924  emprunteur[msg.sender].dureeRestante */\n      0x02\n      add\n      sload\n        /* \"contracts/fructificateur.sol\":3888:3929  emprunteur[msg.sender].dureeRestante == 0 */\n      sub\n        /* \"contracts/fructificateur.sol\":3884:3985  if (emprunteur[msg.sender].dureeRestante == 0) {... */\n      tag_82\n      jumpi\n        /* \"contracts/fructificateur.sol\":3952:3962  emprunteur */\n      0x02\n        /* \"contracts/fructificateur.sol\":3952:3974  emprunteur[msg.sender] */\n      0x00\n        /* \"contracts/fructificateur.sol\":3963:3973  msg.sender */\n      caller\n        /* \"contracts/fructificateur.sol\":3952:3974  emprunteur[msg.sender] */\n      0xffffffffffffffffffffffffffffffffffffffff\n      and\n      0xffffffffffffffffffffffffffffffffffffffff\n      and\n      dup2\n      mstore\n      0x20\n      add\n      swap1\n      dup2\n      mstore\n      0x20\n      add\n      0x00\n      keccak256\n      0x00\n        /* \"contracts/fructificateur.sol\":3945:3974  delete emprunteur[msg.sender] */\n      dup1\n      dup3\n      add\n      0x00\n      swap1\n      sstore\n      0x01\n      dup3\n      add\n      0x00\n      swap1\n      sstore\n      0x02\n      dup3\n      add\n      0x00\n      swap1\n      sstore\n      0x03\n      dup3\n      add\n      0x00\n      swap1\n      sstore\n      pop\n      pop\n        /* \"contracts/fructificateur.sol\":3884:3985  if (emprunteur[msg.sender].dureeRestante == 0) {... */\n    tag_82:\n        /* \"contracts/fructificateur.sol\":3154:3991  {... */\n      pop\n      pop\n        /* \"contracts/fructificateur.sol\":3111:3991  function rembouserEmprunt() public payable {... */\n      jump\t// out\n        /* \"contracts/fructificateur.sol\":775:1170  function findInterestRate(uint256 duration) public pure returns (uint256) { ... */\n    tag_29:\n        /* \"contracts/fructificateur.sol\":840:847  uint256 */\n      0x00\n        /* \"contracts/fructificateur.sol\":879:880  0 */\n      dup1\n        /* \"contracts/fructificateur.sol\":868:876  duration */\n      dup3\n        /* \"contracts/fructificateur.sol\":868:880  duration > 0 */\n      gt\n        /* \"contracts/fructificateur.sol\":860:916  require(duration > 0, \"Duration must be greater than 0\") */\n      tag_84\n      jumpi\n      mload(0x40)\n      0x08c379a000000000000000000000000000000000000000000000000000000000\n      dup2\n      mstore\n      0x04\n      add\n      tag_85\n      swap1\n      tag_86\n      jump\t// in\n    tag_85:\n      mload(0x40)\n      dup1\n      swap2\n      sub\n      swap1\n      revert\n    tag_84:\n        /* \"contracts/fructificateur.sol\":927:947  uint256 interestRate */\n      0x00\n        /* \"contracts/fructificateur.sol\":974:975  6 */\n      0x06\n        /* \"contracts/fructificateur.sol\":962:970  duration */\n      dup4\n        /* \"contracts/fructificateur.sol\":962:975  duration <= 6 */\n      gt\n        /* \"contracts/fructificateur.sol\":958:1135  if (duration <= 6) {... */\n      tag_87\n      jumpi\n        /* \"contracts/fructificateur.sol\":1006:1007  5 */\n      0x05\n        /* \"contracts/fructificateur.sol\":991:1007  interestRate = 5 */\n      swap1\n      pop\n        /* \"contracts/fructificateur.sol\":958:1135  if (duration <= 6) {... */\n      jump(tag_88)\n    tag_87:\n        /* \"contracts/fructificateur.sol\":1041:1043  12 */\n      0x0c\n        /* \"contracts/fructificateur.sol\":1029:1037  duration */\n      dup4\n        /* \"contracts/fructificateur.sol\":1029:1043  duration <= 12 */\n      gt\n        /* \"contracts/fructificateur.sol\":1025:1135  if (duration <= 12) {... */\n      tag_89\n      jumpi\n        /* \"contracts/fructificateur.sol\":1074:1075  8 */\n      0x08\n        /* \"contracts/fructificateur.sol\":1059:1075  interestRate = 8 */\n      swap1\n      pop\n        /* \"contracts/fructificateur.sol\":1025:1135  if (duration <= 12) {... */\n      jump(tag_90)\n    tag_89:\n        /* \"contracts/fructificateur.sol\":1122:1124  10 */\n      0x0a\n        /* \"contracts/fructificateur.sol\":1107:1124  interestRate = 10 */\n      swap1\n      pop\n        /* \"contracts/fructificateur.sol\":1025:1135  if (duration <= 12) {... */\n    tag_90:\n        /* \"contracts/fructificateur.sol\":958:1135  if (duration <= 6) {... */\n    tag_88:\n        /* \"contracts/fructificateur.sol\":1151:1163  interestRate */\n      dup1\n        /* \"contracts/fructificateur.sol\":1144:1163  return interestRate */\n      swap2\n      pop\n      pop\n        /* \"contracts/fructificateur.sol\":775:1170  function findInterestRate(uint256 duration) public pure returns (uint256) { ... */\n      swap2\n      swap1\n      pop\n      jump\t// out\n        /* \"contracts/fructificateur.sol\":1201:2053  function investirFonds(uint256 duration) public payable {... */\n    tag_33:\n        /* \"contracts/fructificateur.sol\":1267:1281  uint256 amount */\n      0x00\n        /* \"contracts/fructificateur.sol\":1284:1293  msg.value */\n      callvalue\n        /* \"contracts/fructificateur.sol\":1267:1293  uint256 amount = msg.value */\n      swap1\n      pop\n        /* \"contracts/fructificateur.sol\":1329:1339  msg.sender */\n      caller\n        /* \"contracts/fructificateur.sol\":1321:1348  address(msg.sender).balance */\n      0xffffffffffffffffffffffffffffffffffffffff\n      and\n      balance\n        /* \"contracts/fructificateur.sol\":1311:1317  amount */\n      dup2\n        /* \"contracts/fructificateur.sol\":1311:1348  amount <= address(msg.sender).balance */\n      gt\n      iszero\n        /* \"contracts/fructificateur.sol\":1303:1379  require(amount <= address(msg.sender).balance, \"Insufficient funds to lend\") */\n      tag_92\n      jumpi\n      mload(0x40)\n      0x08c379a000000000000000000000000000000000000000000000000000000000\n      dup2\n      mstore\n      0x04\n      add\n      tag_93\n      swap1\n      tag_94\n      jump\t// in\n    tag_93:\n      mload(0x40)\n      dup1\n      swap2\n      sub\n      swap1\n      revert\n    tag_92:\n        /* \"contracts/fructificateur.sol\":1406:1407  0 */\n      0x00\n        /* \"contracts/fructificateur.sol\":1397:1403  amount */\n      dup2\n        /* \"contracts/fructificateur.sol\":1397:1407  amount > 0 */\n      gt\n        /* \"contracts/fructificateur.sol\":1389:1441  require(amount > 0, \"Amount must be greater than 0\") */\n      tag_95\n      jumpi\n      mload(0x40)\n      0x08c379a000000000000000000000000000000000000000000000000000000000\n      dup2\n      mstore\n      0x04\n      add\n      tag_96\n      swap1\n      tag_97\n      jump\t// in\n    tag_96:\n      mload(0x40)\n      dup1\n      swap2\n      sub\n      swap1\n      revert\n    tag_95:\n        /* \"contracts/fructificateur.sol\":1470:1471  0 */\n      0x00\n        /* \"contracts/fructificateur.sol\":1459:1467  duration */\n      dup3\n        /* \"contracts/fructificateur.sol\":1459:1471  duration > 0 */\n      gt\n        /* \"contracts/fructificateur.sol\":1451:1507  require(duration > 0, \"Duration must be greater than 0\") */\n      tag_98\n      jumpi\n      mload(0x40)\n      0x08c379a000000000000000000000000000000000000000000000000000000000\n      dup2\n      mstore\n      0x04\n      add\n      tag_99\n      swap1\n      tag_86\n      jump\t// in\n    tag_99:\n      mload(0x40)\n      dup1\n      swap2\n      sub\n      swap1\n      revert\n    tag_98:\n        /* \"contracts/fructificateur.sol\":1518:1537  uint256 tauxInteret */\n      0x00\n        /* \"contracts/fructificateur.sol\":1540:1566  findInterestRate(duration) */\n      tag_100\n        /* \"contracts/fructificateur.sol\":1557:1565  duration */\n      dup4\n        /* \"contracts/fructificateur.sol\":1540:1556  findInterestRate */\n      tag_29\n        /* \"contracts/fructificateur.sol\":1540:1566  findInterestRate(duration) */\n      jump\t// in\n    tag_100:\n        /* \"contracts/fructificateur.sol\":1518:1566  uint256 tauxInteret = findInterestRate(duration) */\n      swap1\n      pop\n        /* \"contracts/fructificateur.sol\":1576:1592  uint256 interest */\n      0x00\n        /* \"contracts/fructificateur.sol\":1631:1634  100 */\n      0x64\n        /* \"contracts/fructificateur.sol\":1616:1627  tauxInteret */\n      dup3\n        /* \"contracts/fructificateur.sol\":1605:1613  duration */\n      dup6\n        /* \"contracts/fructificateur.sol\":1596:1602  amount */\n      dup6\n        /* \"contracts/fructificateur.sol\":1596:1613  amount * duration */\n      tag_101\n      swap2\n      swap1\n      tag_67\n      jump\t// in\n    tag_101:\n        /* \"contracts/fructificateur.sol\":1596:1627  amount * duration * tauxInteret */\n      tag_102\n      swap2\n      swap1\n      tag_67\n      jump\t// in\n    tag_102:\n        /* \"contracts/fructificateur.sol\":1595:1634  (amount * duration * tauxInteret) / 100 */\n      tag_103\n      swap2\n      swap1\n      tag_69\n      jump\t// in\n    tag_103:\n        /* \"contracts/fructificateur.sol\":1576:1634  uint256 interest = (amount * duration * tauxInteret) / 100 */\n      swap1\n      pop\n        /* \"contracts/fructificateur.sol\":1663:1664  0 */\n      0x00\n        /* \"contracts/fructificateur.sol\":1652:1660  interest */\n      dup2\n        /* \"contracts/fructificateur.sol\":1652:1664  interest > 0 */\n      gt\n        /* \"contracts/fructificateur.sol\":1644:1700  require(interest > 0, \"Interest must be greater than 0\") */\n      tag_104\n      jumpi\n      mload(0x40)\n      0x08c379a000000000000000000000000000000000000000000000000000000000\n      dup2\n      mstore\n      0x04\n      add\n      tag_105\n      swap1\n      tag_106\n      jump\t// in\n    tag_105:\n      mload(0x40)\n      dup1\n      swap2\n      sub\n      swap1\n      revert\n    tag_104:\n        /* \"contracts/fructificateur.sol\":1731:1737  amount */\n      dup3\n        /* \"contracts/fructificateur.sol\":1711:1727  contractBalances */\n      0x00\n      dup1\n        /* \"contracts/fructificateur.sol\":1711:1737  contractBalances += amount */\n      dup3\n      dup3\n      sload\n      tag_107\n      swap2\n      swap1\n      tag_71\n      jump\t// in\n    tag_107:\n      swap3\n      pop\n      pop\n      dup2\n      swap1\n      sstore\n      pop\n        /* \"contracts/fructificateur.sol\":1783:1789  amount */\n      dup3\n        /* \"contracts/fructificateur.sol\":1747:1759  investisseur */\n      0x01\n        /* \"contracts/fructificateur.sol\":1747:1771  investisseur[msg.sender] */\n      0x00\n        /* \"contracts/fructificateur.sol\":1760:1770  msg.sender */\n      caller\n        /* \"contracts/fructificateur.sol\":1747:1771  investisseur[msg.sender] */\n      0xffffffffffffffffffffffffffffffffffffffff\n      and\n      0xffffffffffffffffffffffffffffffffffffffff\n      and\n      dup2\n      mstore\n      0x20\n      add\n      swap1\n      dup2\n      mstore\n      0x20\n      add\n      0x00\n      keccak256\n        /* \"contracts/fructificateur.sol\":1747:1779  investisseur[msg.sender].montant */\n      0x00\n      add\n      0x00\n        /* \"contracts/fructificateur.sol\":1747:1789  investisseur[msg.sender].montant += amount */\n      dup3\n      dup3\n      sload\n      tag_108\n      swap2\n      swap1\n      tag_71\n      jump\t// in\n    tag_108:\n      swap3\n      pop\n      pop\n      dup2\n      swap1\n      sstore\n      pop\n        /* \"contracts/fructificateur.sol\":1832:1840  duration */\n      dup4\n        /* \"contracts/fructificateur.sol\":1799:1811  investisseur */\n      0x01\n        /* \"contracts/fructificateur.sol\":1799:1823  investisseur[msg.sender] */\n      0x00\n        /* \"contracts/fructificateur.sol\":1812:1822  msg.sender */\n      caller\n        /* \"contracts/fructificateur.sol\":1799:1823  investisseur[msg.sender] */\n      0xffffffffffffffffffffffffffffffffffffffff\n      and\n      0xffffffffffffffffffffffffffffffffffffffff\n      and\n      dup2\n      mstore\n      0x20\n      add\n      swap1\n      dup2\n      mstore\n      0x20\n      add\n      0x00\n      keccak256\n        /* \"contracts/fructificateur.sol\":1799:1829  investisseur[msg.sender].duree */\n      0x01\n      add\n        /* \"contracts/fructificateur.sol\":1799:1840  investisseur[msg.sender].duree = duration */\n      dup2\n      swap1\n      sstore\n      pop\n        /* \"contracts/fructificateur.sol\":1902:1910  duration */\n      dup4\n        /* \"contracts/fructificateur.sol\":1861:1873  investisseur */\n      0x01\n        /* \"contracts/fructificateur.sol\":1861:1885  investisseur[msg.sender] */\n      0x00\n        /* \"contracts/fructificateur.sol\":1874:1884  msg.sender */\n      caller\n        /* \"contracts/fructificateur.sol\":1861:1885  investisseur[msg.sender] */\n      0xffffffffffffffffffffffffffffffffffffffff\n      and\n      0xffffffffffffffffffffffffffffffffffffffff\n      and\n      dup2\n      mstore\n      0x20\n      add\n      swap1\n      dup2\n      mstore\n      0x20\n      add\n      0x00\n      keccak256\n        /* \"contracts/fructificateur.sol\":1861:1899  investisseur[msg.sender].dureeRestante */\n      0x02\n      add\n        /* \"contracts/fructificateur.sol\":1861:1910  investisseur[msg.sender].dureeRestante = duration */\n      dup2\n      swap1\n      sstore\n      pop\n        /* \"contracts/fructificateur.sol\":1970:1981  tauxInteret */\n      dup2\n        /* \"contracts/fructificateur.sol\":1931:1943  investisseur */\n      0x01\n        /* \"contracts/fructificateur.sol\":1931:1955  investisseur[msg.sender] */\n      0x00\n        /* \"contracts/fructificateur.sol\":1944:1954  msg.sender */\n      caller\n        /* \"contracts/fructificateur.sol\":1931:1955  investisseur[msg.sender] */\n      0xffffffffffffffffffffffffffffffffffffffff\n      and\n      0xffffffffffffffffffffffffffffffffffffffff\n      and\n      dup2\n      mstore\n      0x20\n      add\n      swap1\n      dup2\n      mstore\n      0x20\n      add\n      0x00\n      keccak256\n        /* \"contracts/fructificateur.sol\":1931:1967  investisseur[msg.sender].tauxInteret */\n      0x03\n      add\n        /* \"contracts/fructificateur.sol\":1931:1981  investisseur[msg.sender].tauxInteret = tauxInteret */\n      dup2\n      swap1\n      sstore\n      pop\n        /* \"contracts/fructificateur.sol\":2017:2027  msg.sender */\n      caller\n        /* \"contracts/fructificateur.sol\":2005:2046  LoanGranted(msg.sender, amount, duration) */\n      0xffffffffffffffffffffffffffffffffffffffff\n      and\n      0x1f4fa8bbaa124ef8d04466f13d5a2572fb712424cee0bc9cf430aec52439acd7\n        /* \"contracts/fructificateur.sol\":2029:2035  amount */\n      dup5\n        /* \"contracts/fructificateur.sol\":2037:2045  duration */\n      dup7\n        /* \"contracts/fructificateur.sol\":2005:2046  LoanGranted(msg.sender, amount, duration) */\n      mload(0x40)\n      tag_109\n      swap3\n      swap2\n      swap1\n      tag_110\n      jump\t// in\n    tag_109:\n      mload(0x40)\n      dup1\n      swap2\n      sub\n      swap1\n      log2\n        /* \"contracts/fructificateur.sol\":1257:2053  {... */\n      pop\n      pop\n      pop\n        /* \"contracts/fructificateur.sol\":1201:2053  function investirFonds(uint256 duration) public payable {... */\n      pop\n      jump\t// out\n        /* \"contracts/fructificateur.sol\":472:492  address public owner */\n    tag_36:\n      0x03\n      0x00\n      swap1\n      sload\n      swap1\n      0x0100\n      exp\n      swap1\n      div\n      0xffffffffffffffffffffffffffffffffffffffff\n      and\n      dup2\n      jump\t// out\n        /* \"contracts/fructificateur.sol\":5104:5215  function getContractBalanceReelle() public view returns (uint256) {... */\n    tag_41:\n        /* \"contracts/fructificateur.sol\":5161:5168  uint256 */\n      0x00\n        /* \"contracts/fructificateur.sol\":5187:5208  address(this).balance */\n      selfbalance\n        /* \"contracts/fructificateur.sol\":5180:5208  return address(this).balance */\n      swap1\n      pop\n        /* \"contracts/fructificateur.sol\":5104:5215  function getContractBalanceReelle() public view returns (uint256) {... */\n      swap1\n      jump\t// out\n        /* \"contracts/fructificateur.sol\":353:405  mapping(address => ValeurClient) public investisseur */\n    tag_47:\n      mstore(0x20, 0x01)\n      dup1\n      0x00\n      mstore\n      keccak256(0x00, 0x40)\n      0x00\n      swap2\n      pop\n      swap1\n      pop\n      dup1\n      0x00\n      add\n      sload\n      swap1\n      dup1\n      0x01\n      add\n      sload\n      swap1\n      dup1\n      0x02\n      add\n      sload\n      swap1\n      dup1\n      0x03\n      add\n      sload\n      swap1\n      pop\n      dup5\n      jump\t// out\n        /* \"contracts/fructificateur.sol\":4045:4984  function retourInvestissement() public payable {... */\n    tag_51:\n        /* \"contracts/fructificateur.sol\":4151:4152  0 */\n      0x00\n        /* \"contracts/fructificateur.sol\":4110:4122  investisseur */\n      0x01\n        /* \"contracts/fructificateur.sol\":4110:4134  investisseur[msg.sender] */\n      0x00\n        /* \"contracts/fructificateur.sol\":4123:4133  msg.sender */\n      caller\n        /* \"contracts/fructificateur.sol\":4110:4134  investisseur[msg.sender] */\n      0xffffffffffffffffffffffffffffffffffffffff\n      and\n      0xffffffffffffffffffffffffffffffffffffffff\n      and\n      dup2\n      mstore\n      0x20\n      add\n      swap1\n      dup2\n      mstore\n      0x20\n      add\n      0x00\n      keccak256\n        /* \"contracts/fructificateur.sol\":4110:4148  investisseur[msg.sender].dureeRestante */\n      0x02\n      add\n      sload\n        /* \"contracts/fructificateur.sol\":4110:4152  investisseur[msg.sender].dureeRestante > 0 */\n      gt\n        /* \"contracts/fructificateur.sol\":4102:4180  require(investisseur[msg.sender].dureeRestante > 0, \"Aucun pret actif trouve\") */\n      tag_113\n      jumpi\n      mload(0x40)\n      0x08c379a000000000000000000000000000000000000000000000000000000000\n      dup2\n      mstore\n      0x04\n      add\n      tag_114\n      swap1\n      tag_65\n      jump\t// in\n    tag_114:\n      mload(0x40)\n      dup1\n      swap2\n      sub\n      swap1\n      revert\n    tag_113:\n        /* \"contracts/fructificateur.sol\":4277:4301  uint256 montantARecevoir */\n      0x00\n        /* \"contracts/fructificateur.sol\":4423:4435  investisseur */\n      0x01\n        /* \"contracts/fructificateur.sol\":4423:4447  investisseur[msg.sender] */\n      0x00\n        /* \"contracts/fructificateur.sol\":4436:4446  msg.sender */\n      caller\n        /* \"contracts/fructificateur.sol\":4423:4447  investisseur[msg.sender] */\n      0xffffffffffffffffffffffffffffffffffffffff\n      and\n      0xffffffffffffffffffffffffffffffffffffffff\n      and\n      dup2\n      mstore\n      0x20\n      add\n      swap1\n      dup2\n      mstore\n      0x20\n      add\n      0x00\n      keccak256\n        /* \"contracts/fructificateur.sol\":4423:4453  investisseur[msg.sender].duree */\n      0x01\n      add\n      sload\n        /* \"contracts/fructificateur.sol\":4415:4418  100 */\n      0x64\n        /* \"contracts/fructificateur.sol\":4376:4388  investisseur */\n      0x01\n        /* \"contracts/fructificateur.sol\":4376:4400  investisseur[msg.sender] */\n      0x00\n        /* \"contracts/fructificateur.sol\":4389:4399  msg.sender */\n      caller\n        /* \"contracts/fructificateur.sol\":4376:4400  investisseur[msg.sender] */\n      0xffffffffffffffffffffffffffffffffffffffff\n      and\n      0xffffffffffffffffffffffffffffffffffffffff\n      and\n      dup2\n      mstore\n      0x20\n      add\n      swap1\n      dup2\n      mstore\n      0x20\n      add\n      0x00\n      keccak256\n        /* \"contracts/fructificateur.sol\":4376:4412  investisseur[msg.sender].tauxInteret */\n      0x03\n      add\n      sload\n        /* \"contracts/fructificateur.sol\":4341:4353  investisseur */\n      0x01\n        /* \"contracts/fructificateur.sol\":4341:4365  investisseur[msg.sender] */\n      0x00\n        /* \"contracts/fructificateur.sol\":4354:4364  msg.sender */\n      caller\n        /* \"contracts/fructificateur.sol\":4341:4365  investisseur[msg.sender] */\n      0xffffffffffffffffffffffffffffffffffffffff\n      and\n      0xffffffffffffffffffffffffffffffffffffffff\n      and\n      dup2\n      mstore\n      0x20\n      add\n      swap1\n      dup2\n      mstore\n      0x20\n      add\n      0x00\n      keccak256\n        /* \"contracts/fructificateur.sol\":4341:4373  investisseur[msg.sender].montant */\n      0x00\n      add\n      sload\n        /* \"contracts/fructificateur.sol\":4341:4412  investisseur[msg.sender].montant * investisseur[msg.sender].tauxInteret */\n      tag_115\n      swap2\n      swap1\n      tag_67\n      jump\t// in\n    tag_115:\n        /* \"contracts/fructificateur.sol\":4341:4418  investisseur[msg.sender].montant * investisseur[msg.sender].tauxInteret / 100 */\n      tag_116\n      swap2\n      swap1\n      tag_69\n      jump\t// in\n    tag_116:\n        /* \"contracts/fructificateur.sol\":4305:4317  investisseur */\n      0x01\n        /* \"contracts/fructificateur.sol\":4305:4329  investisseur[msg.sender] */\n      0x00\n        /* \"contracts/fructificateur.sol\":4318:4328  msg.sender */\n      caller\n        /* \"contracts/fructificateur.sol\":4305:4329  investisseur[msg.sender] */\n      0xffffffffffffffffffffffffffffffffffffffff\n      and\n      0xffffffffffffffffffffffffffffffffffffffff\n      and\n      dup2\n      mstore\n      0x20\n      add\n      swap1\n      dup2\n      mstore\n      0x20\n      add\n      0x00\n      keccak256\n        /* \"contracts/fructificateur.sol\":4305:4337  investisseur[msg.sender].montant */\n      0x00\n      add\n      sload\n        /* \"contracts/fructificateur.sol\":4305:4419  investisseur[msg.sender].montant + (investisseur[msg.sender].montant * investisseur[msg.sender].tauxInteret / 100) */\n      tag_117\n      swap2\n      swap1\n      tag_71\n      jump\t// in\n    tag_117:\n        /* \"contracts/fructificateur.sol\":4304:4453  (investisseur[msg.sender].montant + (investisseur[msg.sender].montant * investisseur[msg.sender].tauxInteret / 100)) / investisseur[msg.sender].duree */\n      tag_118\n      swap2\n      swap1\n      tag_69\n      jump\t// in\n    tag_118:\n        /* \"contracts/fructificateur.sol\":4277:4453  uint256 montantARecevoir = (investisseur[msg.sender].montant + (investisseur[msg.sender].montant * investisseur[msg.sender].tauxInteret / 100)) / investisseur[msg.sender].duree */\n      swap1\n      pop\n        /* \"contracts/fructificateur.sol\":4561:4577  montantARecevoir */\n      dup1\n        /* \"contracts/fructificateur.sol\":4541:4557  contractBalances */\n      sload(0x00)\n        /* \"contracts/fructificateur.sol\":4541:4577  contractBalances >= montantARecevoir */\n      lt\n      iszero\n        /* \"contracts/fructificateur.sol\":4533:4610  require(contractBalances >= montantARecevoir, \"Balance contrat insuffisante\") */\n      tag_119\n      jumpi\n      mload(0x40)\n      0x08c379a000000000000000000000000000000000000000000000000000000000\n      dup2\n      mstore\n      0x04\n      add\n      tag_120\n      swap1\n      tag_121\n      jump\t// in\n    tag_120:\n      mload(0x40)\n      dup1\n      swap2\n      sub\n      swap1\n      revert\n    tag_119:\n        /* \"contracts/fructificateur.sol\":4653:4669  montantARecevoir */\n      dup1\n        /* \"contracts/fructificateur.sol\":4628:4649  address(this).balance */\n      selfbalance\n        /* \"contracts/fructificateur.sol\":4628:4669  address(this).balance >= montantARecevoir */\n      lt\n      iszero\n        /* \"contracts/fructificateur.sol\":4620:4702  require(address(this).balance >= montantARecevoir, \"Fond du contract insuffisant\") */\n      tag_122\n      jumpi\n      mload(0x40)\n      0x08c379a000000000000000000000000000000000000000000000000000000000\n      dup2\n      mstore\n      0x04\n      add\n      tag_123\n      swap1\n      tag_124\n      jump\t// in\n    tag_123:\n      mload(0x40)\n      dup1\n      swap2\n      sub\n      swap1\n      revert\n    tag_122:\n        /* \"contracts/fructificateur.sol\":4720:4730  msg.sender */\n      caller\n        /* \"contracts/fructificateur.sol\":4712:4740  payable(msg.sender).transfer */\n      0xffffffffffffffffffffffffffffffffffffffff\n      and\n        /* \"contracts/fructificateur.sol\":4712:4758  payable(msg.sender).transfer(montantARecevoir) */\n      0x08fc\n        /* \"contracts/fructificateur.sol\":4741:4757  montantARecevoir */\n      dup3\n        /* \"contracts/fructificateur.sol\":4712:4758  payable(msg.sender).transfer(montantARecevoir) */\n      swap1\n      dup2\n      iszero\n      mul\n      swap1\n      mload(0x40)\n      0x00\n      mload(0x40)\n      dup1\n      dup4\n      sub\n      dup2\n      dup6\n      dup9\n      dup9\n      call\n      swap4\n      pop\n      pop\n      pop\n      pop\n      iszero\n      dup1\n      iszero\n      tag_126\n      jumpi\n      returndatasize\n      0x00\n      dup1\n      returndatacopy\n      revert(0x00, returndatasize)\n    tag_126:\n      pop\n        /* \"contracts/fructificateur.sol\":4768:4780  investisseur */\n      0x01\n        /* \"contracts/fructificateur.sol\":4768:4792  investisseur[msg.sender] */\n      0x00\n        /* \"contracts/fructificateur.sol\":4781:4791  msg.sender */\n      caller\n        /* \"contracts/fructificateur.sol\":4768:4792  investisseur[msg.sender] */\n      0xffffffffffffffffffffffffffffffffffffffff\n      and\n      0xffffffffffffffffffffffffffffffffffffffff\n      and\n      dup2\n      mstore\n      0x20\n      add\n      swap1\n      dup2\n      mstore\n      0x20\n      add\n      0x00\n      keccak256\n        /* \"contracts/fructificateur.sol\":4768:4806  investisseur[msg.sender].dureeRestante */\n      0x02\n      add\n      0x00\n        /* \"contracts/fructificateur.sol\":4768:4808  investisseur[msg.sender].dureeRestante-- */\n      dup2\n      sload\n      dup1\n      swap3\n      swap2\n      swap1\n      tag_127\n      swap1\n      tag_81\n      jump\t// in\n    tag_127:\n      swap2\n      swap1\n      pop\n      sstore\n      pop\n        /* \"contracts/fructificateur.sol\":4838:4854  montantARecevoir */\n      dup1\n        /* \"contracts/fructificateur.sol\":4818:4834  contractBalances */\n      0x00\n      dup1\n        /* \"contracts/fructificateur.sol\":4818:4854  contractBalances -= montantARecevoir */\n      dup3\n      dup3\n      sload\n      tag_128\n      swap2\n      swap1\n      tag_129\n      jump\t// in\n    tag_128:\n      swap3\n      pop\n      pop\n      dup2\n      swap1\n      sstore\n      pop\n        /* \"contracts/fructificateur.sol\":4919:4920  0 */\n      0x00\n        /* \"contracts/fructificateur.sol\":4877:4889  investisseur */\n      0x01\n        /* \"contracts/fructificateur.sol\":4877:4901  investisseur[msg.sender] */\n      0x00\n        /* \"contracts/fructificateur.sol\":4890:4900  msg.sender */\n      caller\n        /* \"contracts/fructificateur.sol\":4877:4901  investisseur[msg.sender] */\n      0xffffffffffffffffffffffffffffffffffffffff\n      and\n      0xffffffffffffffffffffffffffffffffffffffff\n      and\n      dup2\n      mstore\n      0x20\n      add\n      swap1\n      dup2\n      mstore\n      0x20\n      add\n      0x00\n      keccak256\n        /* \"contracts/fructificateur.sol\":4877:4915  investisseur[msg.sender].dureeRestante */\n      0x02\n      add\n      sload\n        /* \"contracts/fructificateur.sol\":4877:4920  investisseur[msg.sender].dureeRestante == 0 */\n      sub\n        /* \"contracts/fructificateur.sol\":4873:4978  if (investisseur[msg.sender].dureeRestante == 0) {... */\n      tag_130\n      jumpi\n        /* \"contracts/fructificateur.sol\":4943:4955  investisseur */\n      0x01\n        /* \"contracts/fructificateur.sol\":4943:4967  investisseur[msg.sender] */\n      0x00\n        /* \"contracts/fructificateur.sol\":4956:4966  msg.sender */\n      caller\n        /* \"contracts/fructificateur.sol\":4943:4967  investisseur[msg.sender] */\n      0xffffffffffffffffffffffffffffffffffffffff\n      and\n      0xffffffffffffffffffffffffffffffffffffffff\n      and\n      dup2\n      mstore\n      0x20\n      add\n      swap1\n      dup2\n      mstore\n      0x20\n      add\n      0x00\n      keccak256\n      0x00\n        /* \"contracts/fructificateur.sol\":4936:4967  delete investisseur[msg.sender] */\n      dup1\n      dup3\n      add\n      0x00\n      swap1\n      sstore\n      0x01\n      dup3\n      add\n      0x00\n      swap1\n      sstore\n      0x02\n      dup3\n      add\n      0x00\n      swap1\n      sstore\n      0x03\n      dup3\n      add\n      0x00\n      swap1\n      sstore\n      pop\n      pop\n        /* \"contracts/fructificateur.sol\":4873:4978  if (investisseur[msg.sender].dureeRestante == 0) {... */\n    tag_130:\n        /* \"contracts/fructificateur.sol\":4092:4984  {... */\n      pop\n        /* \"contracts/fructificateur.sol\":4045:4984  function retourInvestissement() public payable {... */\n      jump\t// out\n        /* \"contracts/fructificateur.sol\":411:461  mapping(address => ValeurClient) public emprunteur */\n    tag_55:\n      mstore(0x20, 0x02)\n      dup1\n      0x00\n      mstore\n      keccak256(0x00, 0x40)\n      0x00\n      swap2\n      pop\n      swap1\n      pop\n      dup1\n      0x00\n      add\n      sload\n      swap1\n      dup1\n      0x01\n      add\n      sload\n      swap1\n      dup1\n      0x02\n      add\n      sload\n      swap1\n      dup1\n      0x03\n      add\n      sload\n      swap1\n      pop\n      dup5\n      jump\t// out\n        /* \"contracts/fructificateur.sol\":2090:3076  function emprunterFonds(uint256 amount, uint256 duration) public payable  {... */\n    tag_60:\n        /* \"contracts/fructificateur.sol\":2191:2192  0 */\n      0x00\n        /* \"contracts/fructificateur.sol\":2182:2188  amount */\n      dup3\n        /* \"contracts/fructificateur.sol\":2182:2192  amount > 0 */\n      gt\n        /* \"contracts/fructificateur.sol\":2174:2226  require(amount > 0, \"Amount must be greater than 0\") */\n      tag_132\n      jumpi\n      mload(0x40)\n      0x08c379a000000000000000000000000000000000000000000000000000000000\n      dup2\n      mstore\n      0x04\n      add\n      tag_133\n      swap1\n      tag_97\n      jump\t// in\n    tag_133:\n      mload(0x40)\n      dup1\n      swap2\n      sub\n      swap1\n      revert\n    tag_132:\n        /* \"contracts/fructificateur.sol\":2255:2256  0 */\n      0x00\n        /* \"contracts/fructificateur.sol\":2244:2252  duration */\n      dup2\n        /* \"contracts/fructificateur.sol\":2244:2256  duration > 0 */\n      gt\n        /* \"contracts/fructificateur.sol\":2236:2292  require(duration > 0, \"Duration must be greater than 0\") */\n      tag_134\n      jumpi\n      mload(0x40)\n      0x08c379a000000000000000000000000000000000000000000000000000000000\n      dup2\n      mstore\n      0x04\n      add\n      tag_135\n      swap1\n      tag_86\n      jump\t// in\n    tag_135:\n      mload(0x40)\n      dup1\n      swap2\n      sub\n      swap1\n      revert\n    tag_134:\n        /* \"contracts/fructificateur.sol\":2330:2336  amount */\n      dup2\n        /* \"contracts/fructificateur.sol\":2310:2326  contractBalances */\n      sload(0x00)\n        /* \"contracts/fructificateur.sol\":2310:2336  contractBalances >= amount */\n      lt\n      iszero\n        /* \"contracts/fructificateur.sol\":2302:2369  require(contractBalances >= amount, \"Balance contrat insuffisante\") */\n      tag_136\n      jumpi\n      mload(0x40)\n      0x08c379a000000000000000000000000000000000000000000000000000000000\n      dup2\n      mstore\n      0x04\n      add\n      tag_137\n      swap1\n      tag_121\n      jump\t// in\n    tag_137:\n      mload(0x40)\n      dup1\n      swap2\n      sub\n      swap1\n      revert\n    tag_136:\n        /* \"contracts/fructificateur.sol\":2412:2418  amount */\n      dup2\n        /* \"contracts/fructificateur.sol\":2387:2408  address(this).balance */\n      selfbalance\n        /* \"contracts/fructificateur.sol\":2387:2418  address(this).balance >= amount */\n      lt\n      iszero\n        /* \"contracts/fructificateur.sol\":2379:2447  require(address(this).balance >= amount, \"Fond contrat insuffisant\") */\n      tag_138\n      jumpi\n      mload(0x40)\n      0x08c379a000000000000000000000000000000000000000000000000000000000\n      dup2\n      mstore\n      0x04\n      add\n      tag_139\n      swap1\n      tag_140\n      jump\t// in\n    tag_139:\n      mload(0x40)\n      dup1\n      swap2\n      sub\n      swap1\n      revert\n    tag_138:\n        /* \"contracts/fructificateur.sol\":2466:2485  uint256 tauxInteret */\n      0x00\n        /* \"contracts/fructificateur.sol\":2488:2514  findInterestRate(duration) */\n      tag_141\n        /* \"contracts/fructificateur.sol\":2505:2513  duration */\n      dup3\n        /* \"contracts/fructificateur.sol\":2488:2504  findInterestRate */\n      tag_29\n        /* \"contracts/fructificateur.sol\":2488:2514  findInterestRate(duration) */\n      jump\t// in\n    tag_141:\n        /* \"contracts/fructificateur.sol\":2466:2514  uint256 tauxInteret = findInterestRate(duration) */\n      swap1\n      pop\n        /* \"contracts/fructificateur.sol\":2524:2540  uint256 interest */\n      0x00\n        /* \"contracts/fructificateur.sol\":2579:2582  100 */\n      0x64\n        /* \"contracts/fructificateur.sol\":2564:2575  tauxInteret */\n      dup3\n        /* \"contracts/fructificateur.sol\":2553:2561  duration */\n      dup5\n        /* \"contracts/fructificateur.sol\":2544:2550  amount */\n      dup7\n        /* \"contracts/fructificateur.sol\":2544:2561  amount * duration */\n      tag_142\n      swap2\n      swap1\n      tag_67\n      jump\t// in\n    tag_142:\n        /* \"contracts/fructificateur.sol\":2544:2575  amount * duration * tauxInteret */\n      tag_143\n      swap2\n      swap1\n      tag_67\n      jump\t// in\n    tag_143:\n        /* \"contracts/fructificateur.sol\":2543:2582  (amount * duration * tauxInteret) / 100 */\n      tag_144\n      swap2\n      swap1\n      tag_69\n      jump\t// in\n    tag_144:\n        /* \"contracts/fructificateur.sol\":2524:2582  uint256 interest = (amount * duration * tauxInteret) / 100 */\n      swap1\n      pop\n        /* \"contracts/fructificateur.sol\":2634:2642  interest */\n      dup1\n        /* \"contracts/fructificateur.sol\":2611:2621  msg.sender */\n      caller\n        /* \"contracts/fructificateur.sol\":2603:2630  address(msg.sender).balance */\n      0xffffffffffffffffffffffffffffffffffffffff\n      and\n      balance\n        /* \"contracts/fructificateur.sol\":2603:2642  address(msg.sender).balance >= interest */\n      lt\n      iszero\n        /* \"contracts/fructificateur.sol\":2595:2675  require(address(msg.sender).balance >= interest, \"Insufficient funds to borrow\") */\n      tag_145\n      jumpi\n      mload(0x40)\n      0x08c379a000000000000000000000000000000000000000000000000000000000\n      dup2\n      mstore\n      0x04\n      add\n      tag_146\n      swap1\n      tag_147\n      jump\t// in\n    tag_146:\n      mload(0x40)\n      dup1\n      swap2\n      sub\n      swap1\n      revert\n    tag_145:\n        /* \"contracts/fructificateur.sol\":2703:2713  msg.sender */\n      caller\n        /* \"contracts/fructificateur.sol\":2695:2723  payable(msg.sender).transfer */\n      0xffffffffffffffffffffffffffffffffffffffff\n      and\n        /* \"contracts/fructificateur.sol\":2695:2731  payable(msg.sender).transfer(amount) */\n      0x08fc\n        /* \"contracts/fructificateur.sol\":2724:2730  amount */\n      dup6\n        /* \"contracts/fructificateur.sol\":2695:2731  payable(msg.sender).transfer(amount) */\n      swap1\n      dup2\n      iszero\n      mul\n      swap1\n      mload(0x40)\n      0x00\n      mload(0x40)\n      dup1\n      dup4\n      sub\n      dup2\n      dup6\n      dup9\n      dup9\n      call\n      swap4\n      pop\n      pop\n      pop\n      pop\n      iszero\n      dup1\n      iszero\n      tag_149\n      jumpi\n      returndatasize\n      0x00\n      dup1\n      returndatacopy\n      revert(0x00, returndatasize)\n    tag_149:\n      pop\n        /* \"contracts/fructificateur.sol\":2761:2767  amount */\n      dup4\n        /* \"contracts/fructificateur.sol\":2741:2757  contractBalances */\n      0x00\n      dup1\n        /* \"contracts/fructificateur.sol\":2741:2767  contractBalances -= amount */\n      dup3\n      dup3\n      sload\n      tag_150\n      swap2\n      swap1\n      tag_129\n      jump\t// in\n    tag_150:\n      swap3\n      pop\n      pop\n      dup2\n      swap1\n      sstore\n      pop\n        /* \"contracts/fructificateur.sol\":2820:2826  amount */\n      dup4\n        /* \"contracts/fructificateur.sol\":2786:2796  emprunteur */\n      0x02\n        /* \"contracts/fructificateur.sol\":2786:2808  emprunteur[msg.sender] */\n      0x00\n        /* \"contracts/fructificateur.sol\":2797:2807  msg.sender */\n      caller\n        /* \"contracts/fructificateur.sol\":2786:2808  emprunteur[msg.sender] */\n      0xffffffffffffffffffffffffffffffffffffffff\n      and\n      0xffffffffffffffffffffffffffffffffffffffff\n      and\n      dup2\n      mstore\n      0x20\n      add\n      swap1\n      dup2\n      mstore\n      0x20\n      add\n      0x00\n      keccak256\n        /* \"contracts/fructificateur.sol\":2786:2816  emprunteur[msg.sender].montant */\n      0x00\n      add\n      0x00\n        /* \"contracts/fructificateur.sol\":2786:2826  emprunteur[msg.sender].montant += amount */\n      dup3\n      dup3\n      sload\n      tag_151\n      swap2\n      swap1\n      tag_71\n      jump\t// in\n    tag_151:\n      swap3\n      pop\n      pop\n      dup2\n      swap1\n      sstore\n      pop\n        /* \"contracts/fructificateur.sol\":2867:2875  duration */\n      dup3\n        /* \"contracts/fructificateur.sol\":2836:2846  emprunteur */\n      0x02\n        /* \"contracts/fructificateur.sol\":2836:2858  emprunteur[msg.sender] */\n      0x00\n        /* \"contracts/fructificateur.sol\":2847:2857  msg.sender */\n      caller\n        /* \"contracts/fructificateur.sol\":2836:2858  emprunteur[msg.sender] */\n      0xffffffffffffffffffffffffffffffffffffffff\n      and\n      0xffffffffffffffffffffffffffffffffffffffff\n      and\n      dup2\n      mstore\n      0x20\n      add\n      swap1\n      dup2\n      mstore\n      0x20\n      add\n      0x00\n      keccak256\n        /* \"contracts/fructificateur.sol\":2836:2864  emprunteur[msg.sender].duree */\n      0x01\n      add\n        /* \"contracts/fructificateur.sol\":2836:2875  emprunteur[msg.sender].duree = duration */\n      dup2\n      swap1\n      sstore\n      pop\n        /* \"contracts/fructificateur.sol\":2935:2943  duration */\n      dup3\n        /* \"contracts/fructificateur.sol\":2896:2906  emprunteur */\n      0x02\n        /* \"contracts/fructificateur.sol\":2896:2918  emprunteur[msg.sender] */\n      0x00\n        /* \"contracts/fructificateur.sol\":2907:2917  msg.sender */\n      caller\n        /* \"contracts/fructificateur.sol\":2896:2918  emprunteur[msg.sender] */\n      0xffffffffffffffffffffffffffffffffffffffff\n      and\n      0xffffffffffffffffffffffffffffffffffffffff\n      and\n      dup2\n      mstore\n      0x20\n      add\n      swap1\n      dup2\n      mstore\n      0x20\n      add\n      0x00\n      keccak256\n        /* \"contracts/fructificateur.sol\":2896:2932  emprunteur[msg.sender].dureeRestante */\n      0x02\n      add\n        /* \"contracts/fructificateur.sol\":2896:2943  emprunteur[msg.sender].dureeRestante = duration */\n      dup2\n      swap1\n      sstore\n      pop\n        /* \"contracts/fructificateur.sol\":3001:3012  tauxInteret */\n      dup2\n        /* \"contracts/fructificateur.sol\":2964:2974  emprunteur */\n      0x02\n        /* \"contracts/fructificateur.sol\":2964:2986  emprunteur[msg.sender] */\n      0x00\n        /* \"contracts/fructificateur.sol\":2975:2985  msg.sender */\n      caller\n        /* \"contracts/fructificateur.sol\":2964:2986  emprunteur[msg.sender] */\n      0xffffffffffffffffffffffffffffffffffffffff\n      and\n      0xffffffffffffffffffffffffffffffffffffffff\n      and\n      dup2\n      mstore\n      0x20\n      add\n      swap1\n      dup2\n      mstore\n      0x20\n      add\n      0x00\n      keccak256\n        /* \"contracts/fructificateur.sol\":2964:2998  emprunteur[msg.sender].tauxInteret */\n      0x03\n      add\n        /* \"contracts/fructificateur.sol\":2964:3012  emprunteur[msg.sender].tauxInteret = tauxInteret */\n      dup2\n      swap1\n      sstore\n      pop\n        /* \"contracts/fructificateur.sol\":3040:3050  msg.sender */\n      caller\n        /* \"contracts/fructificateur.sol\":3028:3069  LoanGranted(msg.sender, amount, duration) */\n      0xffffffffffffffffffffffffffffffffffffffff\n      and\n      0x1f4fa8bbaa124ef8d04466f13d5a2572fb712424cee0bc9cf430aec52439acd7\n        /* \"contracts/fructificateur.sol\":3052:3058  amount */\n      dup6\n        /* \"contracts/fructificateur.sol\":3060:3068  duration */\n      dup6\n        /* \"contracts/fructificateur.sol\":3028:3069  LoanGranted(msg.sender, amount, duration) */\n      mload(0x40)\n      tag_152\n      swap3\n      swap2\n      swap1\n      tag_110\n      jump\t// in\n    tag_152:\n      mload(0x40)\n      dup1\n      swap2\n      sub\n      swap1\n      log2\n        /* \"contracts/fructificateur.sol\":2164:3076  {... */\n      pop\n      pop\n        /* \"contracts/fructificateur.sol\":2090:3076  function emprunterFonds(uint256 amount, uint256 duration) public payable  {... */\n      pop\n      pop\n      jump\t// out\n        /* \"#utility.yul\":7:84   */\n    tag_153:\n        /* \"#utility.yul\":44:51   */\n      0x00\n        /* \"#utility.yul\":73:78   */\n      dup2\n        /* \"#utility.yul\":62:78   */\n      swap1\n      pop\n        /* \"#utility.yul\":7:84   */\n      swap2\n      swap1\n      pop\n      jump\t// out\n        /* \"#utility.yul\":90:208   */\n    tag_154:\n        /* \"#utility.yul\":177:201   */\n      tag_193\n        /* \"#utility.yul\":195:200   */\n      dup2\n        /* \"#utility.yul\":177:201   */\n      tag_153\n      jump\t// in\n    tag_193:\n        /* \"#utility.yul\":172:175   */\n      dup3\n        /* \"#utility.yul\":165:202   */\n      mstore\n        /* \"#utility.yul\":90:208   */\n      pop\n      pop\n      jump\t// out\n        /* \"#utility.yul\":214:436   */\n    tag_18:\n        /* \"#utility.yul\":307:311   */\n      0x00\n        /* \"#utility.yul\":345:347   */\n      0x20\n        /* \"#utility.yul\":334:343   */\n      dup3\n        /* \"#utility.yul\":330:348   */\n      add\n        /* \"#utility.yul\":322:348   */\n      swap1\n      pop\n        /* \"#utility.yul\":358:429   */\n      tag_195\n        /* \"#utility.yul\":426:427   */\n      0x00\n        /* \"#utility.yul\":415:424   */\n      dup4\n        /* \"#utility.yul\":411:428   */\n      add\n        /* \"#utility.yul\":402:408   */\n      dup5\n        /* \"#utility.yul\":358:429   */\n      tag_154\n      jump\t// in\n    tag_195:\n        /* \"#utility.yul\":214:436   */\n      swap3\n      swap2\n      pop\n      pop\n      jump\t// out\n        /* \"#utility.yul\":523:640   */\n    tag_156:\n        /* \"#utility.yul\":632:633   */\n      0x00\n        /* \"#utility.yul\":629:630   */\n      dup1\n        /* \"#utility.yul\":622:634   */\n      revert\n        /* \"#utility.yul\":769:891   */\n    tag_158:\n        /* \"#utility.yul\":842:866   */\n      tag_200\n        /* \"#utility.yul\":860:865   */\n      dup2\n        /* \"#utility.yul\":842:866   */\n      tag_153\n      jump\t// in\n    tag_200:\n        /* \"#utility.yul\":835:840   */\n      dup2\n        /* \"#utility.yul\":832:867   */\n      eq\n        /* \"#utility.yul\":822:885   */\n      tag_201\n      jumpi\n        /* \"#utility.yul\":881:882   */\n      0x00\n        /* \"#utility.yul\":878:879   */\n      dup1\n        /* \"#utility.yul\":871:883   */\n      revert\n        /* \"#utility.yul\":822:885   */\n    tag_201:\n        /* \"#utility.yul\":769:891   */\n      pop\n      jump\t// out\n        /* \"#utility.yul\":897:1036   */\n    tag_159:\n        /* \"#utility.yul\":943:948   */\n      0x00\n        /* \"#utility.yul\":981:987   */\n      dup2\n        /* \"#utility.yul\":968:988   */\n      calldataload\n        /* \"#utility.yul\":959:988   */\n      swap1\n      pop\n        /* \"#utility.yul\":997:1030   */\n      tag_203\n        /* \"#utility.yul\":1024:1029   */\n      dup2\n        /* \"#utility.yul\":997:1030   */\n      tag_158\n      jump\t// in\n    tag_203:\n        /* \"#utility.yul\":897:1036   */\n      swap3\n      swap2\n      pop\n      pop\n      jump\t// out\n        /* \"#utility.yul\":1042:1371   */\n    tag_28:\n        /* \"#utility.yul\":1101:1107   */\n      0x00\n        /* \"#utility.yul\":1150:1152   */\n      0x20\n        /* \"#utility.yul\":1138:1147   */\n      dup3\n        /* \"#utility.yul\":1129:1136   */\n      dup5\n        /* \"#utility.yul\":1125:1148   */\n      sub\n        /* \"#utility.yul\":1121:1153   */\n      slt\n        /* \"#utility.yul\":1118:1237   */\n      iszero\n      tag_205\n      jumpi\n        /* \"#utility.yul\":1156:1235   */\n      tag_206\n      tag_156\n      jump\t// in\n    tag_206:\n        /* \"#utility.yul\":1118:1237   */\n    tag_205:\n        /* \"#utility.yul\":1276:1277   */\n      0x00\n        /* \"#utility.yul\":1301:1354   */\n      tag_207\n        /* \"#utility.yul\":1346:1353   */\n      dup5\n        /* \"#utility.yul\":1337:1343   */\n      dup3\n        /* \"#utility.yul\":1326:1335   */\n      dup6\n        /* \"#utility.yul\":1322:1344   */\n      add\n        /* \"#utility.yul\":1301:1354   */\n      tag_159\n      jump\t// in\n    tag_207:\n        /* \"#utility.yul\":1291:1354   */\n      swap2\n      pop\n        /* \"#utility.yul\":1247:1364   */\n      pop\n        /* \"#utility.yul\":1042:1371   */\n      swap3\n      swap2\n      pop\n      pop\n      jump\t// out\n        /* \"#utility.yul\":1377:1503   */\n    tag_160:\n        /* \"#utility.yul\":1414:1421   */\n      0x00\n        /* \"#utility.yul\":1454:1496   */\n      0xffffffffffffffffffffffffffffffffffffffff\n        /* \"#utility.yul\":1447:1452   */\n      dup3\n        /* \"#utility.yul\":1443:1497   */\n      and\n        /* \"#utility.yul\":1432:1497   */\n      swap1\n      pop\n        /* \"#utility.yul\":1377:1503   */\n      swap2\n      swap1\n      pop\n      jump\t// out\n        /* \"#utility.yul\":1509:1605   */\n    tag_161:\n        /* \"#utility.yul\":1546:1553   */\n      0x00\n        /* \"#utility.yul\":1575:1599   */\n      tag_210\n        /* \"#utility.yul\":1593:1598   */\n      dup3\n        /* \"#utility.yul\":1575:1599   */\n      tag_160\n      jump\t// in\n    tag_210:\n        /* \"#utility.yul\":1564:1599   */\n      swap1\n      pop\n        /* \"#utility.yul\":1509:1605   */\n      swap2\n      swap1\n      pop\n      jump\t// out\n        /* \"#utility.yul\":1611:1729   */\n    tag_162:\n        /* \"#utility.yul\":1698:1722   */\n      tag_212\n        /* \"#utility.yul\":1716:1721   */\n      dup2\n        /* \"#utility.yul\":1698:1722   */\n      tag_161\n      jump\t// in\n    tag_212:\n        /* \"#utility.yul\":1693:1696   */\n      dup3\n        /* \"#utility.yul\":1686:1723   */\n      mstore\n        /* \"#utility.yul\":1611:1729   */\n      pop\n      pop\n      jump\t// out\n        /* \"#utility.yul\":1735:1957   */\n    tag_38:\n        /* \"#utility.yul\":1828:1832   */\n      0x00\n        /* \"#utility.yul\":1866:1868   */\n      0x20\n        /* \"#utility.yul\":1855:1864   */\n      dup3\n        /* \"#utility.yul\":1851:1869   */\n      add\n        /* \"#utility.yul\":1843:1869   */\n      swap1\n      pop\n        /* \"#utility.yul\":1879:1950   */\n      tag_214\n        /* \"#utility.yul\":1947:1948   */\n      0x00\n        /* \"#utility.yul\":1936:1945   */\n      dup4\n        /* \"#utility.yul\":1932:1949   */\n      add\n        /* \"#utility.yul\":1923:1929   */\n      dup5\n        /* \"#utility.yul\":1879:1950   */\n      tag_162\n      jump\t// in\n    tag_214:\n        /* \"#utility.yul\":1735:1957   */\n      swap3\n      swap2\n      pop\n      pop\n      jump\t// out\n        /* \"#utility.yul\":1963:2085   */\n    tag_163:\n        /* \"#utility.yul\":2036:2060   */\n      tag_216\n        /* \"#utility.yul\":2054:2059   */\n      dup2\n        /* \"#utility.yul\":2036:2060   */\n      tag_161\n      jump\t// in\n    tag_216:\n        /* \"#utility.yul\":2029:2034   */\n      dup2\n        /* \"#utility.yul\":2026:2061   */\n      eq\n        /* \"#utility.yul\":2016:2079   */\n      tag_217\n      jumpi\n        /* \"#utility.yul\":2075:2076   */\n      0x00\n        /* \"#utility.yul\":2072:2073   */\n      dup1\n        /* \"#utility.yul\":2065:2077   */\n      revert\n        /* \"#utility.yul\":2016:2079   */\n    tag_217:\n        /* \"#utility.yul\":1963:2085   */\n      pop\n      jump\t// out\n        /* \"#utility.yul\":2091:2230   */\n    tag_164:\n        /* \"#utility.yul\":2137:2142   */\n      0x00\n        /* \"#utility.yul\":2175:2181   */\n      dup2\n        /* \"#utility.yul\":2162:2182   */\n      calldataload\n        /* \"#utility.yul\":2153:2182   */\n      swap1\n      pop\n        /* \"#utility.yul\":2191:2224   */\n      tag_219\n        /* \"#utility.yul\":2218:2223   */\n      dup2\n        /* \"#utility.yul\":2191:2224   */\n      tag_163\n      jump\t// in\n    tag_219:\n        /* \"#utility.yul\":2091:2230   */\n      swap3\n      swap2\n      pop\n      pop\n      jump\t// out\n        /* \"#utility.yul\":2236:2565   */\n    tag_46:\n        /* \"#utility.yul\":2295:2301   */\n      0x00\n        /* \"#utility.yul\":2344:2346   */\n      0x20\n        /* \"#utility.yul\":2332:2341   */\n      dup3\n        /* \"#utility.yul\":2323:2330   */\n      dup5\n        /* \"#utility.yul\":2319:2342   */\n      sub\n        /* \"#utility.yul\":2315:2347   */\n      slt\n        /* \"#utility.yul\":2312:2431   */\n      iszero\n      tag_221\n      jumpi\n        /* \"#utility.yul\":2350:2429   */\n      tag_222\n      tag_156\n      jump\t// in\n    tag_222:\n        /* \"#utility.yul\":2312:2431   */\n    tag_221:\n        /* \"#utility.yul\":2470:2471   */\n      0x00\n        /* \"#utility.yul\":2495:2548   */\n      tag_223\n        /* \"#utility.yul\":2540:2547   */\n      dup5\n        /* \"#utility.yul\":2531:2537   */\n      dup3\n        /* \"#utility.yul\":2520:2529   */\n      dup6\n        /* \"#utility.yul\":2516:2538   */\n      add\n        /* \"#utility.yul\":2495:2548   */\n      tag_164\n      jump\t// in\n    tag_223:\n        /* \"#utility.yul\":2485:2548   */\n      swap2\n      pop\n        /* \"#utility.yul\":2441:2558   */\n      pop\n        /* \"#utility.yul\":2236:2565   */\n      swap3\n      swap2\n      pop\n      pop\n      jump\t// out\n        /* \"#utility.yul\":2571:3124   */\n    tag_49:\n        /* \"#utility.yul\":2748:2752   */\n      0x00\n        /* \"#utility.yul\":2786:2789   */\n      0x80\n        /* \"#utility.yul\":2775:2784   */\n      dup3\n        /* \"#utility.yul\":2771:2790   */\n      add\n        /* \"#utility.yul\":2763:2790   */\n      swap1\n      pop\n        /* \"#utility.yul\":2800:2871   */\n      tag_225\n        /* \"#utility.yul\":2868:2869   */\n      0x00\n        /* \"#utility.yul\":2857:2866   */\n      dup4\n        /* \"#utility.yul\":2853:2870   */\n      add\n        /* \"#utility.yul\":2844:2850   */\n      dup8\n        /* \"#utility.yul\":2800:2871   */\n      tag_154\n      jump\t// in\n    tag_225:\n        /* \"#utility.yul\":2881:2953   */\n      tag_226\n        /* \"#utility.yul\":2949:2951   */\n      0x20\n        /* \"#utility.yul\":2938:2947   */\n      dup4\n        /* \"#utility.yul\":2934:2952   */\n      add\n        /* \"#utility.yul\":2925:2931   */\n      dup7\n        /* \"#utility.yul\":2881:2953   */\n      tag_154\n      jump\t// in\n    tag_226:\n        /* \"#utility.yul\":2963:3035   */\n      tag_227\n        /* \"#utility.yul\":3031:3033   */\n      0x40\n        /* \"#utility.yul\":3020:3029   */\n      dup4\n        /* \"#utility.yul\":3016:3034   */\n      add\n        /* \"#utility.yul\":3007:3013   */\n      dup6\n        /* \"#utility.yul\":2963:3035   */\n      tag_154\n      jump\t// in\n    tag_227:\n        /* \"#utility.yul\":3045:3117   */\n      tag_228\n        /* \"#utility.yul\":3113:3115   */\n      0x60\n        /* \"#utility.yul\":3102:3111   */\n      dup4\n        /* \"#utility.yul\":3098:3116   */\n      add\n        /* \"#utility.yul\":3089:3095   */\n      dup5\n        /* \"#utility.yul\":3045:3117   */\n      tag_154\n      jump\t// in\n    tag_228:\n        /* \"#utility.yul\":2571:3124   */\n      swap6\n      swap5\n      pop\n      pop\n      pop\n      pop\n      pop\n      jump\t// out\n        /* \"#utility.yul\":3130:3604   */\n    tag_59:\n        /* \"#utility.yul\":3198:3204   */\n      0x00\n        /* \"#utility.yul\":3206:3212   */\n      dup1\n        /* \"#utility.yul\":3255:3257   */\n      0x40\n        /* \"#utility.yul\":3243:3252   */\n      dup4\n        /* \"#utility.yul\":3234:3241   */\n      dup6\n        /* \"#utility.yul\":3230:3253   */\n      sub\n        /* \"#utility.yul\":3226:3258   */\n      slt\n        /* \"#utility.yul\":3223:3342   */\n      iszero\n      tag_230\n      jumpi\n        /* \"#utility.yul\":3261:3340   */\n      tag_231\n      tag_156\n      jump\t// in\n    tag_231:\n        /* \"#utility.yul\":3223:3342   */\n    tag_230:\n        /* \"#utility.yul\":3381:3382   */\n      0x00\n        /* \"#utility.yul\":3406:3459   */\n      tag_232\n        /* \"#utility.yul\":3451:3458   */\n      dup6\n        /* \"#utility.yul\":3442:3448   */\n      dup3\n        /* \"#utility.yul\":3431:3440   */\n      dup7\n        /* \"#utility.yul\":3427:3449   */\n      add\n        /* \"#utility.yul\":3406:3459   */\n      tag_159\n      jump\t// in\n    tag_232:\n        /* \"#utility.yul\":3396:3459   */\n      swap3\n      pop\n        /* \"#utility.yul\":3352:3469   */\n      pop\n        /* \"#utility.yul\":3508:3510   */\n      0x20\n        /* \"#utility.yul\":3534:3587   */\n      tag_233\n        /* \"#utility.yul\":3579:3586   */\n      dup6\n        /* \"#utility.yul\":3570:3576   */\n      dup3\n        /* \"#utility.yul\":3559:3568   */\n      dup7\n        /* \"#utility.yul\":3555:3577   */\n      add\n        /* \"#utility.yul\":3534:3587   */\n      tag_159\n      jump\t// in\n    tag_233:\n        /* \"#utility.yul\":3524:3587   */\n      swap2\n      pop\n        /* \"#utility.yul\":3479:3597   */\n      pop\n        /* \"#utility.yul\":3130:3604   */\n      swap3\n      pop\n      swap3\n      swap1\n      pop\n      jump\t// out\n        /* \"#utility.yul\":3610:3779   */\n    tag_165:\n        /* \"#utility.yul\":3694:3705   */\n      0x00\n        /* \"#utility.yul\":3728:3734   */\n      dup3\n        /* \"#utility.yul\":3723:3726   */\n      dup3\n        /* \"#utility.yul\":3716:3735   */\n      mstore\n        /* \"#utility.yul\":3768:3772   */\n      0x20\n        /* \"#utility.yul\":3763:3766   */\n      dup3\n        /* \"#utility.yul\":3759:3773   */\n      add\n        /* \"#utility.yul\":3744:3773   */\n      swap1\n      pop\n        /* \"#utility.yul\":3610:3779   */\n      swap3\n      swap2\n      pop\n      pop\n      jump\t// out\n        /* \"#utility.yul\":3785:3958   */\n    tag_166:\n        /* \"#utility.yul\":3925:3950   */\n      0x417563756e20707265742061637469662074726f757665000000000000000000\n        /* \"#utility.yul\":3921:3922   */\n      0x00\n        /* \"#utility.yul\":3913:3919   */\n      dup3\n        /* \"#utility.yul\":3909:3923   */\n      add\n        /* \"#utility.yul\":3902:3951   */\n      mstore\n        /* \"#utility.yul\":3785:3958   */\n      pop\n      jump\t// out\n        /* \"#utility.yul\":3964:4330   */\n    tag_167:\n        /* \"#utility.yul\":4106:4109   */\n      0x00\n        /* \"#utility.yul\":4127:4194   */\n      tag_237\n        /* \"#utility.yul\":4191:4193   */\n      0x17\n        /* \"#utility.yul\":4186:4189   */\n      dup4\n        /* \"#utility.yul\":4127:4194   */\n      tag_165\n      jump\t// in\n    tag_237:\n        /* \"#utility.yul\":4120:4194   */\n      swap2\n      pop\n        /* \"#utility.yul\":4203:4296   */\n      tag_238\n        /* \"#utility.yul\":4292:4295   */\n      dup3\n        /* \"#utility.yul\":4203:4296   */\n      tag_166\n      jump\t// in\n    tag_238:\n        /* \"#utility.yul\":4321:4323   */\n      0x20\n        /* \"#utility.yul\":4316:4319   */\n      dup3\n        /* \"#utility.yul\":4312:4324   */\n      add\n        /* \"#utility.yul\":4305:4324   */\n      swap1\n      pop\n        /* \"#utility.yul\":3964:4330   */\n      swap2\n      swap1\n      pop\n      jump\t// out\n        /* \"#utility.yul\":4336:4755   */\n    tag_65:\n        /* \"#utility.yul\":4502:4506   */\n      0x00\n        /* \"#utility.yul\":4540:4542   */\n      0x20\n        /* \"#utility.yul\":4529:4538   */\n      dup3\n        /* \"#utility.yul\":4525:4543   */\n      add\n        /* \"#utility.yul\":4517:4543   */\n      swap1\n      pop\n        /* \"#utility.yul\":4589:4598   */\n      dup2\n        /* \"#utility.yul\":4583:4587   */\n      dup2\n        /* \"#utility.yul\":4579:4599   */\n      sub\n        /* \"#utility.yul\":4575:4576   */\n      0x00\n        /* \"#utility.yul\":4564:4573   */\n      dup4\n        /* \"#utility.yul\":4560:4577   */\n      add\n        /* \"#utility.yul\":4553:4600   */\n      mstore\n        /* \"#utility.yul\":4617:4748   */\n      tag_240\n        /* \"#utility.yul\":4743:4747   */\n      dup2\n        /* \"#utility.yul\":4617:4748   */\n      tag_167\n      jump\t// in\n    tag_240:\n        /* \"#utility.yul\":4609:4748   */\n      swap1\n      pop\n        /* \"#utility.yul\":4336:4755   */\n      swap2\n      swap1\n      pop\n      jump\t// out\n        /* \"#utility.yul\":4761:4941   */\n    tag_168:\n        /* \"#utility.yul\":4809:4886   */\n      0x4e487b7100000000000000000000000000000000000000000000000000000000\n        /* \"#utility.yul\":4806:4807   */\n      0x00\n        /* \"#utility.yul\":4799:4887   */\n      mstore\n        /* \"#utility.yul\":4906:4910   */\n      0x11\n        /* \"#utility.yul\":4903:4904   */\n      0x04\n        /* \"#utility.yul\":4896:4911   */\n      mstore\n        /* \"#utility.yul\":4930:4934   */\n      0x24\n        /* \"#utility.yul\":4927:4928   */\n      0x00\n        /* \"#utility.yul\":4920:4935   */\n      revert\n        /* \"#utility.yul\":4947:5357   */\n    tag_67:\n        /* \"#utility.yul\":4987:4994   */\n      0x00\n        /* \"#utility.yul\":5010:5030   */\n      tag_243\n        /* \"#utility.yul\":5028:5029   */\n      dup3\n        /* \"#utility.yul\":5010:5030   */\n      tag_153\n      jump\t// in\n    tag_243:\n        /* \"#utility.yul\":5005:5030   */\n      swap2\n      pop\n        /* \"#utility.yul\":5044:5064   */\n      tag_244\n        /* \"#utility.yul\":5062:5063   */\n      dup4\n        /* \"#utility.yul\":5044:5064   */\n      tag_153\n      jump\t// in\n    tag_244:\n        /* \"#utility.yul\":5039:5064   */\n      swap3\n      pop\n        /* \"#utility.yul\":5099:5100   */\n      dup3\n        /* \"#utility.yul\":5096:5097   */\n      dup3\n        /* \"#utility.yul\":5092:5101   */\n      mul\n        /* \"#utility.yul\":5121:5151   */\n      tag_245\n        /* \"#utility.yul\":5139:5150   */\n      dup2\n        /* \"#utility.yul\":5121:5151   */\n      tag_153\n      jump\t// in\n    tag_245:\n        /* \"#utility.yul\":5110:5151   */\n      swap2\n      pop\n        /* \"#utility.yul\":5300:5301   */\n      dup3\n        /* \"#utility.yul\":5291:5298   */\n      dup3\n        /* \"#utility.yul\":5287:5302   */\n      div\n        /* \"#utility.yul\":5284:5285   */\n      dup5\n        /* \"#utility.yul\":5281:5303   */\n      eq\n        /* \"#utility.yul\":5261:5262   */\n      dup4\n        /* \"#utility.yul\":5254:5263   */\n      iszero\n        /* \"#utility.yul\":5234:5317   */\n      or\n        /* \"#utility.yul\":5211:5350   */\n      tag_246\n      jumpi\n        /* \"#utility.yul\":5330:5348   */\n      tag_247\n      tag_168\n      jump\t// in\n    tag_247:\n        /* \"#utility.yul\":5211:5350   */\n    tag_246:\n        /* \"#utility.yul\":4995:5357   */\n      pop\n        /* \"#utility.yul\":4947:5357   */\n      swap3\n      swap2\n      pop\n      pop\n      jump\t// out\n        /* \"#utility.yul\":5363:5543   */\n    tag_169:\n        /* \"#utility.yul\":5411:5488   */\n      0x4e487b7100000000000000000000000000000000000000000000000000000000\n        /* \"#utility.yul\":5408:5409   */\n      0x00\n        /* \"#utility.yul\":5401:5489   */\n      mstore\n        /* \"#utility.yul\":5508:5512   */\n      0x12\n        /* \"#utility.yul\":5505:5506   */\n      0x04\n        /* \"#utility.yul\":5498:5513   */\n      mstore\n        /* \"#utility.yul\":5532:5536   */\n      0x24\n        /* \"#utility.yul\":5529:5530   */\n      0x00\n        /* \"#utility.yul\":5522:5537   */\n      revert\n        /* \"#utility.yul\":5549:5734   */\n    tag_69:\n        /* \"#utility.yul\":5589:5590   */\n      0x00\n        /* \"#utility.yul\":5606:5626   */\n      tag_250\n        /* \"#utility.yul\":5624:5625   */\n      dup3\n        /* \"#utility.yul\":5606:5626   */\n      tag_153\n      jump\t// in\n    tag_250:\n        /* \"#utility.yul\":5601:5626   */\n      swap2\n      pop\n        /* \"#utility.yul\":5640:5660   */\n      tag_251\n        /* \"#utility.yul\":5658:5659   */\n      dup4\n        /* \"#utility.yul\":5640:5660   */\n      tag_153\n      jump\t// in\n    tag_251:\n        /* \"#utility.yul\":5635:5660   */\n      swap3\n      pop\n        /* \"#utility.yul\":5679:5680   */\n      dup3\n        /* \"#utility.yul\":5669:5704   */\n      tag_252\n      jumpi\n        /* \"#utility.yul\":5684:5702   */\n      tag_253\n      tag_169\n      jump\t// in\n    tag_253:\n        /* \"#utility.yul\":5669:5704   */\n    tag_252:\n        /* \"#utility.yul\":5726:5727   */\n      dup3\n        /* \"#utility.yul\":5723:5724   */\n      dup3\n        /* \"#utility.yul\":5719:5728   */\n      div\n        /* \"#utility.yul\":5714:5728   */\n      swap1\n      pop\n        /* \"#utility.yul\":5549:5734   */\n      swap3\n      swap2\n      pop\n      pop\n      jump\t// out\n        /* \"#utility.yul\":5740:5931   */\n    tag_71:\n        /* \"#utility.yul\":5780:5783   */\n      0x00\n        /* \"#utility.yul\":5799:5819   */\n      tag_255\n        /* \"#utility.yul\":5817:5818   */\n      dup3\n        /* \"#utility.yul\":5799:5819   */\n      tag_153\n      jump\t// in\n    tag_255:\n        /* \"#utility.yul\":5794:5819   */\n      swap2\n      pop\n        /* \"#utility.yul\":5833:5853   */\n      tag_256\n        /* \"#utility.yul\":5851:5852   */\n      dup4\n        /* \"#utility.yul\":5833:5853   */\n      tag_153\n      jump\t// in\n    tag_256:\n        /* \"#utility.yul\":5828:5853   */\n      swap3\n      pop\n        /* \"#utility.yul\":5876:5877   */\n      dup3\n        /* \"#utility.yul\":5873:5874   */\n      dup3\n        /* \"#utility.yul\":5869:5878   */\n      add\n        /* \"#utility.yul\":5862:5878   */\n      swap1\n      pop\n        /* \"#utility.yul\":5897:5900   */\n      dup1\n        /* \"#utility.yul\":5894:5895   */\n      dup3\n        /* \"#utility.yul\":5891:5901   */\n      gt\n        /* \"#utility.yul\":5888:5924   */\n      iszero\n      tag_257\n      jumpi\n        /* \"#utility.yul\":5904:5922   */\n      tag_258\n      tag_168\n      jump\t// in\n    tag_258:\n        /* \"#utility.yul\":5888:5924   */\n    tag_257:\n        /* \"#utility.yul\":5740:5931   */\n      swap3\n      swap2\n      pop\n      pop\n      jump\t// out\n        /* \"#utility.yul\":5937:6107   */\n    tag_170:\n        /* \"#utility.yul\":6077:6099   */\n      0x42616c616e636520696e737566666973616e7465000000000000000000000000\n        /* \"#utility.yul\":6073:6074   */\n      0x00\n        /* \"#utility.yul\":6065:6071   */\n      dup3\n        /* \"#utility.yul\":6061:6075   */\n      add\n        /* \"#utility.yul\":6054:6100   */\n      mstore\n        /* \"#utility.yul\":5937:6107   */\n      pop\n      jump\t// out\n        /* \"#utility.yul\":6113:6479   */\n    tag_171:\n        /* \"#utility.yul\":6255:6258   */\n      0x00\n        /* \"#utility.yul\":6276:6343   */\n      tag_261\n        /* \"#utility.yul\":6340:6342   */\n      0x14\n        /* \"#utility.yul\":6335:6338   */\n      dup4\n        /* \"#utility.yul\":6276:6343   */\n      tag_165\n      jump\t// in\n    tag_261:\n        /* \"#utility.yul\":6269:6343   */\n      swap2\n      pop\n        /* \"#utility.yul\":6352:6445   */\n      tag_262\n        /* \"#utility.yul\":6441:6444   */\n      dup3\n        /* \"#utility.yul\":6352:6445   */\n      tag_170\n      jump\t// in\n    tag_262:\n        /* \"#utility.yul\":6470:6472   */\n      0x20\n        /* \"#utility.yul\":6465:6468   */\n      dup3\n        /* \"#utility.yul\":6461:6473   */\n      add\n        /* \"#utility.yul\":6454:6473   */\n      swap1\n      pop\n        /* \"#utility.yul\":6113:6479   */\n      swap2\n      swap1\n      pop\n      jump\t// out\n        /* \"#utility.yul\":6485:6904   */\n    tag_75:\n        /* \"#utility.yul\":6651:6655   */\n      0x00\n        /* \"#utility.yul\":6689:6691   */\n      0x20\n        /* \"#utility.yul\":6678:6687   */\n      dup3\n        /* \"#utility.yul\":6674:6692   */\n      add\n        /* \"#utility.yul\":6666:6692   */\n      swap1\n      pop\n        /* \"#utility.yul\":6738:6747   */\n      dup2\n        /* \"#utility.yul\":6732:6736   */\n      dup2\n        /* \"#utility.yul\":6728:6748   */\n      sub\n        /* \"#utility.yul\":6724:6725   */\n      0x00\n        /* \"#utility.yul\":6713:6722   */\n      dup4\n        /* \"#utility.yul\":6709:6726   */\n      add\n        /* \"#utility.yul\":6702:6749   */\n      mstore\n        /* \"#utility.yul\":6766:6897   */\n      tag_264\n        /* \"#utility.yul\":6892:6896   */\n      dup2\n        /* \"#utility.yul\":6766:6897   */\n      tag_171\n      jump\t// in\n    tag_264:\n        /* \"#utility.yul\":6758:6897   */\n      swap1\n      pop\n        /* \"#utility.yul\":6485:6904   */\n      swap2\n      swap1\n      pop\n      jump\t// out\n        /* \"#utility.yul\":6910:7136   */\n    tag_172:\n        /* \"#utility.yul\":7050:7084   */\n      0x56616c65757220706f7572206c61207472616e73616374696f6e20696e737566\n        /* \"#utility.yul\":7046:7047   */\n      0x00\n        /* \"#utility.yul\":7038:7044   */\n      dup3\n        /* \"#utility.yul\":7034:7048   */\n      add\n        /* \"#utility.yul\":7027:7085   */\n      mstore\n        /* \"#utility.yul\":7119:7128   */\n      0x666973616e746500000000000000000000000000000000000000000000000000\n        /* \"#utility.yul\":7114:7116   */\n      0x20\n        /* \"#utility.yul\":7106:7112   */\n      dup3\n        /* \"#utility.yul\":7102:7117   */\n      add\n        /* \"#utility.yul\":7095:7129   */\n      mstore\n        /* \"#utility.yul\":6910:7136   */\n      pop\n      jump\t// out\n        /* \"#utility.yul\":7142:7508   */\n    tag_173:\n        /* \"#utility.yul\":7284:7287   */\n      0x00\n        /* \"#utility.yul\":7305:7372   */\n      tag_267\n        /* \"#utility.yul\":7369:7371   */\n      0x27\n        /* \"#utility.yul\":7364:7367   */\n      dup4\n        /* \"#utility.yul\":7305:7372   */\n      tag_165\n      jump\t// in\n    tag_267:\n        /* \"#utility.yul\":7298:7372   */\n      swap2\n      pop\n        /* \"#utility.yul\":7381:7474   */\n      tag_268\n        /* \"#utility.yul\":7470:7473   */\n      dup3\n        /* \"#utility.yul\":7381:7474   */\n      tag_172\n      jump\t// in\n    tag_268:\n        /* \"#utility.yul\":7499:7501   */\n      0x40\n        /* \"#utility.yul\":7494:7497   */\n      dup3\n        /* \"#utility.yul\":7490:7502   */\n      add\n        /* \"#utility.yul\":7483:7502   */\n      swap1\n      pop\n        /* \"#utility.yul\":7142:7508   */\n      swap2\n      swap1\n      pop\n      jump\t// out\n        /* \"#utility.yul\":7514:7933   */\n    tag_78:\n        /* \"#utility.yul\":7680:7684   */\n      0x00\n        /* \"#utility.yul\":7718:7720   */\n      0x20\n        /* \"#utility.yul\":7707:7716   */\n      dup3\n        /* \"#utility.yul\":7703:7721   */\n      add\n        /* \"#utility.yul\":7695:7721   */\n      swap1\n      pop\n        /* \"#utility.yul\":7767:7776   */\n      dup2\n        /* \"#utility.yul\":7761:7765   */\n      dup2\n        /* \"#utility.yul\":7757:7777   */\n      sub\n        /* \"#utility.yul\":7753:7754   */\n      0x00\n        /* \"#utility.yul\":7742:7751   */\n      dup4\n        /* \"#utility.yul\":7738:7755   */\n      add\n        /* \"#utility.yul\":7731:7778   */\n      mstore\n        /* \"#utility.yul\":7795:7926   */\n      tag_270\n        /* \"#utility.yul\":7921:7925   */\n      dup2\n        /* \"#utility.yul\":7795:7926   */\n      tag_173\n      jump\t// in\n    tag_270:\n        /* \"#utility.yul\":7787:7926   */\n      swap1\n      pop\n        /* \"#utility.yul\":7514:7933   */\n      swap2\n      swap1\n      pop\n      jump\t// out\n        /* \"#utility.yul\":7939:8110   */\n    tag_81:\n        /* \"#utility.yul\":7978:7981   */\n      0x00\n        /* \"#utility.yul\":8001:8025   */\n      tag_272\n        /* \"#utility.yul\":8019:8024   */\n      dup3\n        /* \"#utility.yul\":8001:8025   */\n      tag_153\n      jump\t// in\n    tag_272:\n        /* \"#utility.yul\":7992:8025   */\n      swap2\n      pop\n        /* \"#utility.yul\":8047:8051   */\n      0x00\n        /* \"#utility.yul\":8040:8045   */\n      dup3\n        /* \"#utility.yul\":8037:8052   */\n      sub\n        /* \"#utility.yul\":8034:8075   */\n      tag_273\n      jumpi\n        /* \"#utility.yul\":8055:8073   */\n      tag_274\n      tag_168\n      jump\t// in\n    tag_274:\n        /* \"#utility.yul\":8034:8075   */\n    tag_273:\n        /* \"#utility.yul\":8102:8103   */\n      0x01\n        /* \"#utility.yul\":8095:8100   */\n      dup3\n        /* \"#utility.yul\":8091:8104   */\n      sub\n        /* \"#utility.yul\":8084:8104   */\n      swap1\n      pop\n        /* \"#utility.yul\":7939:8110   */\n      swap2\n      swap1\n      pop\n      jump\t// out\n        /* \"#utility.yul\":8116:8297   */\n    tag_174:\n        /* \"#utility.yul\":8256:8289   */\n      0x4475726174696f6e206d7573742062652067726561746572207468616e203000\n        /* \"#utility.yul\":8252:8253   */\n      0x00\n        /* \"#utility.yul\":8244:8250   */\n      dup3\n        /* \"#utility.yul\":8240:8254   */\n      add\n        /* \"#utility.yul\":8233:8290   */\n      mstore\n        /* \"#utility.yul\":8116:8297   */\n      pop\n      jump\t// out\n        /* \"#utility.yul\":8303:8669   */\n    tag_175:\n        /* \"#utility.yul\":8445:8448   */\n      0x00\n        /* \"#utility.yul\":8466:8533   */\n      tag_277\n        /* \"#utility.yul\":8530:8532   */\n      0x1f\n        /* \"#utility.yul\":8525:8528   */\n      dup4\n        /* \"#utility.yul\":8466:8533   */\n      tag_165\n      jump\t// in\n    tag_277:\n        /* \"#utility.yul\":8459:8533   */\n      swap2\n      pop\n        /* \"#utility.yul\":8542:8635   */\n      tag_278\n        /* \"#utility.yul\":8631:8634   */\n      dup3\n        /* \"#utility.yul\":8542:8635   */\n      tag_174\n      jump\t// in\n    tag_278:\n        /* \"#utility.yul\":8660:8662   */\n      0x20\n        /* \"#utility.yul\":8655:8658   */\n      dup3\n        /* \"#utility.yul\":8651:8663   */\n      add\n        /* \"#utility.yul\":8644:8663   */\n      swap1\n      pop\n        /* \"#utility.yul\":8303:8669   */\n      swap2\n      swap1\n      pop\n      jump\t// out\n        /* \"#utility.yul\":8675:9094   */\n    tag_86:\n        /* \"#utility.yul\":8841:8845   */\n      0x00\n        /* \"#utility.yul\":8879:8881   */\n      0x20\n        /* \"#utility.yul\":8868:8877   */\n      dup3\n        /* \"#utility.yul\":8864:8882   */\n      add\n        /* \"#utility.yul\":8856:8882   */\n      swap1\n      pop\n        /* \"#utility.yul\":8928:8937   */\n      dup2\n        /* \"#utility.yul\":8922:8926   */\n      dup2\n        /* \"#utility.yul\":8918:8938   */\n      sub\n        /* \"#utility.yul\":8914:8915   */\n      0x00\n        /* \"#utility.yul\":8903:8912   */\n      dup4\n        /* \"#utility.yul\":8899:8916   */\n      add\n        /* \"#utility.yul\":8892:8939   */\n      mstore\n        /* \"#utility.yul\":8956:9087   */\n      tag_280\n        /* \"#utility.yul\":9082:9086   */\n      dup2\n        /* \"#utility.yul\":8956:9087   */\n      tag_175\n      jump\t// in\n    tag_280:\n        /* \"#utility.yul\":8948:9087   */\n      swap1\n      pop\n        /* \"#utility.yul\":8675:9094   */\n      swap2\n      swap1\n      pop\n      jump\t// out\n        /* \"#utility.yul\":9100:9276   */\n    tag_176:\n        /* \"#utility.yul\":9240:9268   */\n      0x496e73756666696369656e742066756e647320746f206c656e64000000000000\n        /* \"#utility.yul\":9236:9237   */\n      0x00\n        /* \"#utility.yul\":9228:9234   */\n      dup3\n        /* \"#utility.yul\":9224:9238   */\n      add\n        /* \"#utility.yul\":9217:9269   */\n      mstore\n        /* \"#utility.yul\":9100:9276   */\n      pop\n      jump\t// out\n        /* \"#utility.yul\":9282:9648   */\n    tag_177:\n        /* \"#utility.yul\":9424:9427   */\n      0x00\n        /* \"#utility.yul\":9445:9512   */\n      tag_283\n        /* \"#utility.yul\":9509:9511   */\n      0x1a\n        /* \"#utility.yul\":9504:9507   */\n      dup4\n        /* \"#utility.yul\":9445:9512   */\n      tag_165\n      jump\t// in\n    tag_283:\n        /* \"#utility.yul\":9438:9512   */\n      swap2\n      pop\n        /* \"#utility.yul\":9521:9614   */\n      tag_284\n        /* \"#utility.yul\":9610:9613   */\n      dup3\n        /* \"#utility.yul\":9521:9614   */\n      tag_176\n      jump\t// in\n    tag_284:\n        /* \"#utility.yul\":9639:9641   */\n      0x20\n        /* \"#utility.yul\":9634:9637   */\n      dup3\n        /* \"#utility.yul\":9630:9642   */\n      add\n        /* \"#utility.yul\":9623:9642   */\n      swap1\n      pop\n        /* \"#utility.yul\":9282:9648   */\n      swap2\n      swap1\n      pop\n      jump\t// out\n        /* \"#utility.yul\":9654:10073   */\n    tag_94:\n        /* \"#utility.yul\":9820:9824   */\n      0x00\n        /* \"#utility.yul\":9858:9860   */\n      0x20\n        /* \"#utility.yul\":9847:9856   */\n      dup3\n        /* \"#utility.yul\":9843:9861   */\n      add\n        /* \"#utility.yul\":9835:9861   */\n      swap1\n      pop\n        /* \"#utility.yul\":9907:9916   */\n      dup2\n        /* \"#utility.yul\":9901:9905   */\n      dup2\n        /* \"#utility.yul\":9897:9917   */\n      sub\n        /* \"#utility.yul\":9893:9894   */\n      0x00\n        /* \"#utility.yul\":9882:9891   */\n      dup4\n        /* \"#utility.yul\":9878:9895   */\n      add\n        /* \"#utility.yul\":9871:9918   */\n      mstore\n        /* \"#utility.yul\":9935:10066   */\n      tag_286\n        /* \"#utility.yul\":10061:10065   */\n      dup2\n        /* \"#utility.yul\":9935:10066   */\n      tag_177\n      jump\t// in\n    tag_286:\n        /* \"#utility.yul\":9927:10066   */\n      swap1\n      pop\n        /* \"#utility.yul\":9654:10073   */\n      swap2\n      swap1\n      pop\n      jump\t// out\n        /* \"#utility.yul\":10079:10258   */\n    tag_178:\n        /* \"#utility.yul\":10219:10250   */\n      0x416d6f756e74206d7573742062652067726561746572207468616e2030000000\n        /* \"#utility.yul\":10215:10216   */\n      0x00\n        /* \"#utility.yul\":10207:10213   */\n      dup3\n        /* \"#utility.yul\":10203:10217   */\n      add\n        /* \"#utility.yul\":10196:10251   */\n      mstore\n        /* \"#utility.yul\":10079:10258   */\n      pop\n      jump\t// out\n        /* \"#utility.yul\":10264:10630   */\n    tag_179:\n        /* \"#utility.yul\":10406:10409   */\n      0x00\n        /* \"#utility.yul\":10427:10494   */\n      tag_289\n        /* \"#utility.yul\":10491:10493   */\n      0x1d\n        /* \"#utility.yul\":10486:10489   */\n      dup4\n        /* \"#utility.yul\":10427:10494   */\n      tag_165\n      jump\t// in\n    tag_289:\n        /* \"#utility.yul\":10420:10494   */\n      swap2\n      pop\n        /* \"#utility.yul\":10503:10596   */\n      tag_290\n        /* \"#utility.yul\":10592:10595   */\n      dup3\n        /* \"#utility.yul\":10503:10596   */\n      tag_178\n      jump\t// in\n    tag_290:\n        /* \"#utility.yul\":10621:10623   */\n      0x20\n        /* \"#utility.yul\":10616:10619   */\n      dup3\n        /* \"#utility.yul\":10612:10624   */\n      add\n        /* \"#utility.yul\":10605:10624   */\n      swap1\n      pop\n        /* \"#utility.yul\":10264:10630   */\n      swap2\n      swap1\n      pop\n      jump\t// out\n        /* \"#utility.yul\":10636:11055   */\n    tag_97:\n        /* \"#utility.yul\":10802:10806   */\n      0x00\n        /* \"#utility.yul\":10840:10842   */\n      0x20\n        /* \"#utility.yul\":10829:10838   */\n      dup3\n        /* \"#utility.yul\":10825:10843   */\n      add\n        /* \"#utility.yul\":10817:10843   */\n      swap1\n      pop\n        /* \"#utility.yul\":10889:10898   */\n      dup2\n        /* \"#utility.yul\":10883:10887   */\n      dup2\n        /* \"#utility.yul\":10879:10899   */\n      sub\n        /* \"#utility.yul\":10875:10876   */\n      0x00\n        /* \"#utility.yul\":10864:10873   */\n      dup4\n        /* \"#utility.yul\":10860:10877   */\n      add\n        /* \"#utility.yul\":10853:10900   */\n      mstore\n        /* \"#utility.yul\":10917:11048   */\n      tag_292\n        /* \"#utility.yul\":11043:11047   */\n      dup2\n        /* \"#utility.yul\":10917:11048   */\n      tag_179\n      jump\t// in\n    tag_292:\n        /* \"#utility.yul\":10909:11048   */\n      swap1\n      pop\n        /* \"#utility.yul\":10636:11055   */\n      swap2\n      swap1\n      pop\n      jump\t// out\n        /* \"#utility.yul\":11061:11242   */\n    tag_180:\n        /* \"#utility.yul\":11201:11234   */\n      0x496e746572657374206d7573742062652067726561746572207468616e203000\n        /* \"#utility.yul\":11197:11198   */\n      0x00\n        /* \"#utility.yul\":11189:11195   */\n      dup3\n        /* \"#utility.yul\":11185:11199   */\n      add\n        /* \"#utility.yul\":11178:11235   */\n      mstore\n        /* \"#utility.yul\":11061:11242   */\n      pop\n      jump\t// out\n        /* \"#utility.yul\":11248:11614   */\n    tag_181:\n        /* \"#utility.yul\":11390:11393   */\n      0x00\n        /* \"#utility.yul\":11411:11478   */\n      tag_295\n        /* \"#utility.yul\":11475:11477   */\n      0x1f\n        /* \"#utility.yul\":11470:11473   */\n      dup4\n        /* \"#utility.yul\":11411:11478   */\n      tag_165\n      jump\t// in\n    tag_295:\n        /* \"#utility.yul\":11404:11478   */\n      swap2\n      pop\n        /* \"#utility.yul\":11487:11580   */\n      tag_296\n        /* \"#utility.yul\":11576:11579   */\n      dup3\n        /* \"#utility.yul\":11487:11580   */\n      tag_180\n      jump\t// in\n    tag_296:\n        /* \"#utility.yul\":11605:11607   */\n      0x20\n        /* \"#utility.yul\":11600:11603   */\n      dup3\n        /* \"#utility.yul\":11596:11608   */\n      add\n        /* \"#utility.yul\":11589:11608   */\n      swap1\n      pop\n        /* \"#utility.yul\":11248:11614   */\n      swap2\n      swap1\n      pop\n      jump\t// out\n        /* \"#utility.yul\":11620:12039   */\n    tag_106:\n        /* \"#utility.yul\":11786:11790   */\n      0x00\n        /* \"#utility.yul\":11824:11826   */\n      0x20\n        /* \"#utility.yul\":11813:11822   */\n      dup3\n        /* \"#utility.yul\":11809:11827   */\n      add\n        /* \"#utility.yul\":11801:11827   */\n      swap1\n      pop\n        /* \"#utility.yul\":11873:11882   */\n      dup2\n        /* \"#utility.yul\":11867:11871   */\n      dup2\n        /* \"#utility.yul\":11863:11883   */\n      sub\n        /* \"#utility.yul\":11859:11860   */\n      0x00\n        /* \"#utility.yul\":11848:11857   */\n      dup4\n        /* \"#utility.yul\":11844:11861   */\n      add\n        /* \"#utility.yul\":11837:11884   */\n      mstore\n        /* \"#utility.yul\":11901:12032   */\n      tag_298\n        /* \"#utility.yul\":12027:12031   */\n      dup2\n        /* \"#utility.yul\":11901:12032   */\n      tag_181\n      jump\t// in\n    tag_298:\n        /* \"#utility.yul\":11893:12032   */\n      swap1\n      pop\n        /* \"#utility.yul\":11620:12039   */\n      swap2\n      swap1\n      pop\n      jump\t// out\n        /* \"#utility.yul\":12045:12377   */\n    tag_110:\n        /* \"#utility.yul\":12166:12170   */\n      0x00\n        /* \"#utility.yul\":12204:12206   */\n      0x40\n        /* \"#utility.yul\":12193:12202   */\n      dup3\n        /* \"#utility.yul\":12189:12207   */\n      add\n        /* \"#utility.yul\":12181:12207   */\n      swap1\n      pop\n        /* \"#utility.yul\":12217:12288   */\n      tag_300\n        /* \"#utility.yul\":12285:12286   */\n      0x00\n        /* \"#utility.yul\":12274:12283   */\n      dup4\n        /* \"#utility.yul\":12270:12287   */\n      add\n        /* \"#utility.yul\":12261:12267   */\n      dup6\n        /* \"#utility.yul\":12217:12288   */\n      tag_154\n      jump\t// in\n    tag_300:\n        /* \"#utility.yul\":12298:12370   */\n      tag_301\n        /* \"#utility.yul\":12366:12368   */\n      0x20\n        /* \"#utility.yul\":12355:12364   */\n      dup4\n        /* \"#utility.yul\":12351:12369   */\n      add\n        /* \"#utility.yul\":12342:12348   */\n      dup5\n        /* \"#utility.yul\":12298:12370   */\n      tag_154\n      jump\t// in\n    tag_301:\n        /* \"#utility.yul\":12045:12377   */\n      swap4\n      swap3\n      pop\n      pop\n      pop\n      jump\t// out\n        /* \"#utility.yul\":12383:12561   */\n    tag_182:\n        /* \"#utility.yul\":12523:12553   */\n      0x42616c616e636520636f6e7472617420696e737566666973616e746500000000\n        /* \"#utility.yul\":12519:12520   */\n      0x00\n        /* \"#utility.yul\":12511:12517   */\n      dup3\n        /* \"#utility.yul\":12507:12521   */\n      add\n        /* \"#utility.yul\":12500:12554   */\n      mstore\n        /* \"#utility.yul\":12383:12561   */\n      pop\n      jump\t// out\n        /* \"#utility.yul\":12567:12933   */\n    tag_183:\n        /* \"#utility.yul\":12709:12712   */\n      0x00\n        /* \"#utility.yul\":12730:12797   */\n      tag_304\n        /* \"#utility.yul\":12794:12796   */\n      0x1c\n        /* \"#utility.yul\":12789:12792   */\n      dup4\n        /* \"#utility.yul\":12730:12797   */\n      tag_165\n      jump\t// in\n    tag_304:\n        /* \"#utility.yul\":12723:12797   */\n      swap2\n      pop\n        /* \"#utility.yul\":12806:12899   */\n      tag_305\n        /* \"#utility.yul\":12895:12898   */\n      dup3\n        /* \"#utility.yul\":12806:12899   */\n      tag_182\n      jump\t// in\n    tag_305:\n        /* \"#utility.yul\":12924:12926   */\n      0x20\n        /* \"#utility.yul\":12919:12922   */\n      dup3\n        /* \"#utility.yul\":12915:12927   */\n      add\n        /* \"#utility.yul\":12908:12927   */\n      swap1\n      pop\n        /* \"#utility.yul\":12567:12933   */\n      swap2\n      swap1\n      pop\n      jump\t// out\n        /* \"#utility.yul\":12939:13358   */\n    tag_121:\n        /* \"#utility.yul\":13105:13109   */\n      0x00\n        /* \"#utility.yul\":13143:13145   */\n      0x20\n        /* \"#utility.yul\":13132:13141   */\n      dup3\n        /* \"#utility.yul\":13128:13146   */\n      add\n        /* \"#utility.yul\":13120:13146   */\n      swap1\n      pop\n        /* \"#utility.yul\":13192:13201   */\n      dup2\n        /* \"#utility.yul\":13186:13190   */\n      dup2\n        /* \"#utility.yul\":13182:13202   */\n      sub\n        /* \"#utility.yul\":13178:13179   */\n      0x00\n        /* \"#utility.yul\":13167:13176   */\n      dup4\n        /* \"#utility.yul\":13163:13180   */\n      add\n        /* \"#utility.yul\":13156:13203   */\n      mstore\n        /* \"#utility.yul\":13220:13351   */\n      tag_307\n        /* \"#utility.yul\":13346:13350   */\n      dup2\n        /* \"#utility.yul\":13220:13351   */\n      tag_183\n      jump\t// in\n    tag_307:\n        /* \"#utility.yul\":13212:13351   */\n      swap1\n      pop\n        /* \"#utility.yul\":12939:13358   */\n      swap2\n      swap1\n      pop\n      jump\t// out\n        /* \"#utility.yul\":13364:13542   */\n    tag_184:\n        /* \"#utility.yul\":13504:13534   */\n      0x466f6e6420647520636f6e747261637420696e737566666973616e7400000000\n        /* \"#utility.yul\":13500:13501   */\n      0x00\n        /* \"#utility.yul\":13492:13498   */\n      dup3\n        /* \"#utility.yul\":13488:13502   */\n      add\n        /* \"#utility.yul\":13481:13535   */\n      mstore\n        /* \"#utility.yul\":13364:13542   */\n      pop\n      jump\t// out\n        /* \"#utility.yul\":13548:13914   */\n    tag_185:\n        /* \"#utility.yul\":13690:13693   */\n      0x00\n        /* \"#utility.yul\":13711:13778   */\n      tag_310\n        /* \"#utility.yul\":13775:13777   */\n      0x1c\n        /* \"#utility.yul\":13770:13773   */\n      dup4\n        /* \"#utility.yul\":13711:13778   */\n      tag_165\n      jump\t// in\n    tag_310:\n        /* \"#utility.yul\":13704:13778   */\n      swap2\n      pop\n        /* \"#utility.yul\":13787:13880   */\n      tag_311\n        /* \"#utility.yul\":13876:13879   */\n      dup3\n        /* \"#utility.yul\":13787:13880   */\n      tag_184\n      jump\t// in\n    tag_311:\n        /* \"#utility.yul\":13905:13907   */\n      0x20\n        /* \"#utility.yul\":13900:13903   */\n      dup3\n        /* \"#utility.yul\":13896:13908   */\n      add\n        /* \"#utility.yul\":13889:13908   */\n      swap1\n      pop\n        /* \"#utility.yul\":13548:13914   */\n      swap2\n      swap1\n      pop\n      jump\t// out\n        /* \"#utility.yul\":13920:14339   */\n    tag_124:\n        /* \"#utility.yul\":14086:14090   */\n      0x00\n        /* \"#utility.yul\":14124:14126   */\n      0x20\n        /* \"#utility.yul\":14113:14122   */\n      dup3\n        /* \"#utility.yul\":14109:14127   */\n      add\n        /* \"#utility.yul\":14101:14127   */\n      swap1\n      pop\n        /* \"#utility.yul\":14173:14182   */\n      dup2\n        /* \"#utility.yul\":14167:14171   */\n      dup2\n        /* \"#utility.yul\":14163:14183   */\n      sub\n        /* \"#utility.yul\":14159:14160   */\n      0x00\n        /* \"#utility.yul\":14148:14157   */\n      dup4\n        /* \"#utility.yul\":14144:14161   */\n      add\n        /* \"#utility.yul\":14137:14184   */\n      mstore\n        /* \"#utility.yul\":14201:14332   */\n      tag_313\n        /* \"#utility.yul\":14327:14331   */\n      dup2\n        /* \"#utility.yul\":14201:14332   */\n      tag_185\n      jump\t// in\n    tag_313:\n        /* \"#utility.yul\":14193:14332   */\n      swap1\n      pop\n        /* \"#utility.yul\":13920:14339   */\n      swap2\n      swap1\n      pop\n      jump\t// out\n        /* \"#utility.yul\":14345:14539   */\n    tag_129:\n        /* \"#utility.yul\":14385:14389   */\n      0x00\n        /* \"#utility.yul\":14405:14425   */\n      tag_315\n        /* \"#utility.yul\":14423:14424   */\n      dup3\n        /* \"#utility.yul\":14405:14425   */\n      tag_153\n      jump\t// in\n    tag_315:\n        /* \"#utility.yul\":14400:14425   */\n      swap2\n      pop\n        /* \"#utility.yul\":14439:14459   */\n      tag_316\n        /* \"#utility.yul\":14457:14458   */\n      dup4\n        /* \"#utility.yul\":14439:14459   */\n      tag_153\n      jump\t// in\n    tag_316:\n        /* \"#utility.yul\":14434:14459   */\n      swap3\n      pop\n        /* \"#utility.yul\":14483:14484   */\n      dup3\n        /* \"#utility.yul\":14480:14481   */\n      dup3\n        /* \"#utility.yul\":14476:14485   */\n      sub\n        /* \"#utility.yul\":14468:14485   */\n      swap1\n      pop\n        /* \"#utility.yul\":14507:14508   */\n      dup2\n        /* \"#utility.yul\":14501:14505   */\n      dup2\n        /* \"#utility.yul\":14498:14509   */\n      gt\n        /* \"#utility.yul\":14495:14532   */\n      iszero\n      tag_317\n      jumpi\n        /* \"#utility.yul\":14512:14530   */\n      tag_318\n      tag_168\n      jump\t// in\n    tag_318:\n        /* \"#utility.yul\":14495:14532   */\n    tag_317:\n        /* \"#utility.yul\":14345:14539   */\n      swap3\n      swap2\n      pop\n      pop\n      jump\t// out\n        /* \"#utility.yul\":14545:14719   */\n    tag_186:\n        /* \"#utility.yul\":14685:14711   */\n      0x466f6e6420636f6e7472617420696e737566666973616e740000000000000000\n        /* \"#utility.yul\":14681:14682   */\n      0x00\n        /* \"#utility.yul\":14673:14679   */\n      dup3\n        /* \"#utility.yul\":14669:14683   */\n      add\n        /* \"#utility.yul\":14662:14712   */\n      mstore\n        /* \"#utility.yul\":14545:14719   */\n      pop\n      jump\t// out\n        /* \"#utility.yul\":14725:15091   */\n    tag_187:\n        /* \"#utility.yul\":14867:14870   */\n      0x00\n        /* \"#utility.yul\":14888:14955   */\n      tag_321\n        /* \"#utility.yul\":14952:14954   */\n      0x18\n        /* \"#utility.yul\":14947:14950   */\n      dup4\n        /* \"#utility.yul\":14888:14955   */\n      tag_165\n      jump\t// in\n    tag_321:\n        /* \"#utility.yul\":14881:14955   */\n      swap2\n      pop\n        /* \"#utility.yul\":14964:15057   */\n      tag_322\n        /* \"#utility.yul\":15053:15056   */\n      dup3\n        /* \"#utility.yul\":14964:15057   */\n      tag_186\n      jump\t// in\n    tag_322:\n        /* \"#utility.yul\":15082:15084   */\n      0x20\n        /* \"#utility.yul\":15077:15080   */\n      dup3\n        /* \"#utility.yul\":15073:15085   */\n      add\n        /* \"#utility.yul\":15066:15085   */\n      swap1\n      pop\n        /* \"#utility.yul\":14725:15091   */\n      swap2\n      swap1\n      pop\n      jump\t// out\n        /* \"#utility.yul\":15097:15516   */\n    tag_140:\n        /* \"#utility.yul\":15263:15267   */\n      0x00\n        /* \"#utility.yul\":15301:15303   */\n      0x20\n        /* \"#utility.yul\":15290:15299   */\n      dup3\n        /* \"#utility.yul\":15286:15304   */\n      add\n        /* \"#utility.yul\":15278:15304   */\n      swap1\n      pop\n        /* \"#utility.yul\":15350:15359   */\n      dup2\n        /* \"#utility.yul\":15344:15348   */\n      dup2\n        /* \"#utility.yul\":15340:15360   */\n      sub\n        /* \"#utility.yul\":15336:15337   */\n      0x00\n        /* \"#utility.yul\":15325:15334   */\n      dup4\n        /* \"#utility.yul\":15321:15338   */\n      add\n        /* \"#utility.yul\":15314:15361   */\n      mstore\n        /* \"#utility.yul\":15378:15509   */\n      tag_324\n        /* \"#utility.yul\":15504:15508   */\n      dup2\n        /* \"#utility.yul\":15378:15509   */\n      tag_187\n      jump\t// in\n    tag_324:\n        /* \"#utility.yul\":15370:15509   */\n      swap1\n      pop\n        /* \"#utility.yul\":15097:15516   */\n      swap2\n      swap1\n      pop\n      jump\t// out\n        /* \"#utility.yul\":15522:15700   */\n    tag_188:\n        /* \"#utility.yul\":15662:15692   */\n      0x496e73756666696369656e742066756e647320746f20626f72726f7700000000\n        /* \"#utility.yul\":15658:15659   */\n      0x00\n        /* \"#utility.yul\":15650:15656   */\n      dup3\n        /* \"#utility.yul\":15646:15660   */\n      add\n        /* \"#utility.yul\":15639:15693   */\n      mstore\n        /* \"#utility.yul\":15522:15700   */\n      pop\n      jump\t// out\n        /* \"#utility.yul\":15706:16072   */\n    tag_189:\n        /* \"#utility.yul\":15848:15851   */\n      0x00\n        /* \"#utility.yul\":15869:15936   */\n      tag_327\n        /* \"#utility.yul\":15933:15935   */\n      0x1c\n        /* \"#utility.yul\":15928:15931   */\n      dup4\n        /* \"#utility.yul\":15869:15936   */\n      tag_165\n      jump\t// in\n    tag_327:\n        /* \"#utility.yul\":15862:15936   */\n      swap2\n      pop\n        /* \"#utility.yul\":15945:16038   */\n      tag_328\n        /* \"#utility.yul\":16034:16037   */\n      dup3\n        /* \"#utility.yul\":15945:16038   */\n      tag_188\n      jump\t// in\n    tag_328:\n        /* \"#utility.yul\":16063:16065   */\n      0x20\n        /* \"#utility.yul\":16058:16061   */\n      dup3\n        /* \"#utility.yul\":16054:16066   */\n      add\n        /* \"#utility.yul\":16047:16066   */\n      swap1\n      pop\n        /* \"#utility.yul\":15706:16072   */\n      swap2\n      swap1\n      pop\n      jump\t// out\n        /* \"#utility.yul\":16078:16497   */\n    tag_147:\n        /* \"#utility.yul\":16244:16248   */\n      0x00\n        /* \"#utility.yul\":16282:16284   */\n      0x20\n        /* \"#utility.yul\":16271:16280   */\n      dup3\n        /* \"#utility.yul\":16267:16285   */\n      add\n        /* \"#utility.yul\":16259:16285   */\n      swap1\n      pop\n        /* \"#utility.yul\":16331:16340   */\n      dup2\n        /* \"#utility.yul\":16325:16329   */\n      dup2\n        /* \"#utility.yul\":16321:16341   */\n      sub\n        /* \"#utility.yul\":16317:16318   */\n      0x00\n        /* \"#utility.yul\":16306:16315   */\n      dup4\n        /* \"#utility.yul\":16302:16319   */\n      add\n        /* \"#utility.yul\":16295:16342   */\n      mstore\n        /* \"#utility.yul\":16359:16490   */\n      tag_330\n        /* \"#utility.yul\":16485:16489   */\n      dup2\n        /* \"#utility.yul\":16359:16490   */\n      tag_189\n      jump\t// in\n    tag_330:\n        /* \"#utility.yul\":16351:16490   */\n      swap1\n      pop\n        /* \"#utility.yul\":16078:16497   */\n      swap2\n      swap1\n      pop\n      jump\t// out\n\n    auxdata: 0xa2646970667358221220d8a24b359977a62a661dd4ada05ebefbe6b18464dc5aea51380d8eb7fa16afcd64736f6c63430008190033\n}\n",
				"bytecode": {
					"linkReferences": {},
					"object": "60806040525f80553480156011575f80fd5b503360035f6101000a81548173ffffffffffffffffffffffffffffffffffffffff021916908373ffffffffffffffffffffffffffffffffffffffff1602179055506118b48061005f5f395ff3fe60806040526004361061009b575f3560e01c80638da5cb5b116100635780638da5cb5b1461015557806397643fd71461017f578063cc336ee1146101a9578063ccbb629b146101e8578063de4c1982146101f2578063feabae58146102315761009b565b80632163885a1461009f5780636f9fb98a146100c9578063704d914d146100f35780637341db60146100fd5780637c0c360214610139575b5f80fd5b3480156100aa575f80fd5b506100b361024d565b6040516100c091906110b1565b60405180910390f35b3480156100d4575f80fd5b506100dd610252565b6040516100ea91906110b1565b60405180910390f35b6100fb61025a565b005b348015610108575f80fd5b50610123600480360381019061011e91906110f8565b6105bf565b60405161013091906110b1565b60405180910390f35b610153600480360381019061014e91906110f8565b610634565b005b348015610160575f80fd5b5061016961091b565b6040516101769190611162565b60405180910390f35b34801561018a575f80fd5b50610193610940565b6040516101a091906110b1565b60405180910390f35b3480156101b4575f80fd5b506101cf60048036038101906101ca91906111a5565b610947565b6040516101df94939291906111d0565b60405180910390f35b6101f0610973565b005b3480156101fd575f80fd5b50610218600480360381019061021391906111a5565b610d01565b60405161022894939291906111d0565b60405180910390f35b61024b60048036038101906102469190611213565b610d2d565b005b5f5481565b5f8054905090565b5f60025f3373ffffffffffffffffffffffffffffffffffffffff1673ffffffffffffffffffffffffffffffffffffffff1681526020019081526020015f2060020154116102dc576040517f08c379a00000000000000000000000000000000000000000000000000000000081526004016102d3906112ab565b60405180910390fd5b5f3490505f60025f3373ffffffffffffffffffffffffffffffffffffffff1673ffffffffffffffffffffffffffffffffffffffff1681526020019081526020015f2060010154606460025f3373ffffffffffffffffffffffffffffffffffffffff1673ffffffffffffffffffffffffffffffffffffffff1681526020019081526020015f206003015460025f3373ffffffffffffffffffffffffffffffffffffffff1673ffffffffffffffffffffffffffffffffffffffff1681526020019081526020015f205f01546103af91906112f6565b6103b99190611364565b60025f3373ffffffffffffffffffffffffffffffffffffffff1673ffffffffffffffffffffffffffffffffffffffff1681526020019081526020015f205f01546104039190611394565b61040d9190611364565b90503373ffffffffffffffffffffffffffffffffffffffff1631811115610469576040517f08c379a000000000000000000000000000000000000000000000000000000000815260040161046090611411565b60405180910390fd5b818111156104ac576040517f08c379a00000000000000000000000000000000000000000000000000000000081526004016104a39061149f565b60405180910390fd5b805f808282546104bc9190611394565b9250508190555060025f3373ffffffffffffffffffffffffffffffffffffffff1673ffffffffffffffffffffffffffffffffffffffff1681526020019081526020015f206002015f815480929190610513906114bd565b91905055505f60025f3373ffffffffffffffffffffffffffffffffffffffff1673ffffffffffffffffffffffffffffffffffffffff1681526020019081526020015f2060020154036105bb5760025f3373ffffffffffffffffffffffffffffffffffffffff1673ffffffffffffffffffffffffffffffffffffffff1681526020019081526020015f205f8082015f9055600182015f9055600282015f9055600382015f905550505b5050565b5f808211610602576040517f08c379a00000000000000000000000000000000000000000000000000000000081526004016105f99061152e565b60405180910390fd5b5f60068311610614576005905061062b565b600c8311610625576008905061062a565b600a90505b5b80915050919050565b5f3490503373ffffffffffffffffffffffffffffffffffffffff1631811115610692576040517f08c379a000000000000000000000000000000000000000000000000000000000815260040161068990611596565b60405180910390fd5b5f81116106d4576040517f08c379a00000000000000000000000000000000000000000000000000000000081526004016106cb906115fe565b60405180910390fd5b5f8211610716576040517f08c379a000000000000000000000000000000000000000000000000000000000815260040161070d9061152e565b60405180910390fd5b5f610720836105bf565b90505f606482858561073291906112f6565b61073c91906112f6565b6107469190611364565b90505f811161078a576040517f08c379a000000000000000000000000000000000000000000000000000000000815260040161078190611666565b60405180910390fd5b825f8082825461079a9190611394565b925050819055508260015f3373ffffffffffffffffffffffffffffffffffffffff1673ffffffffffffffffffffffffffffffffffffffff1681526020019081526020015f205f015f8282546107ef9190611394565b925050819055508360015f3373ffffffffffffffffffffffffffffffffffffffff1673ffffffffffffffffffffffffffffffffffffffff1681526020019081526020015f20600101819055508360015f3373ffffffffffffffffffffffffffffffffffffffff1673ffffffffffffffffffffffffffffffffffffffff1681526020019081526020015f20600201819055508160015f3373ffffffffffffffffffffffffffffffffffffffff1673ffffffffffffffffffffffffffffffffffffffff1681526020019081526020015f20600301819055503373ffffffffffffffffffffffffffffffffffffffff167f1f4fa8bbaa124ef8d04466f13d5a2572fb712424cee0bc9cf430aec52439acd7848660405161090d929190611684565b60405180910390a250505050565b60035f9054906101000a900473ffffffffffffffffffffffffffffffffffffffff1681565b5f47905090565b6001602052805f5260405f205f91509050805f0154908060010154908060020154908060030154905084565b5f60015f3373ffffffffffffffffffffffffffffffffffffffff1673ffffffffffffffffffffffffffffffffffffffff1681526020019081526020015f2060020154116109f5576040517f08c379a00000000000000000000000000000000000000000000000000000000081526004016109ec906112ab565b60405180910390fd5b5f60015f3373ffffffffffffffffffffffffffffffffffffffff1673ffffffffffffffffffffffffffffffffffffffff1681526020019081526020015f2060010154606460015f3373ffffffffffffffffffffffffffffffffffffffff1673ffffffffffffffffffffffffffffffffffffffff1681526020019081526020015f206003015460015f3373ffffffffffffffffffffffffffffffffffffffff1673ffffffffffffffffffffffffffffffffffffffff1681526020019081526020015f205f0154610ac491906112f6565b610ace9190611364565b60015f3373ffffffffffffffffffffffffffffffffffffffff1673ffffffffffffffffffffffffffffffffffffffff1681526020019081526020015f205f0154610b189190611394565b610b229190611364565b9050805f541015610b68576040517f08c379a0000000000000000000000000000000000000000000000000000000008152600401610b5f906116f5565b60405180910390fd5b80471015610bab576040517f08c379a0000000000000000000000000000000000000000000000000000000008152600401610ba29061175d565b60405180910390fd5b3373ffffffffffffffffffffffffffffffffffffffff166108fc8290811502906040515f60405180830381858888f19350505050158015610bee573d5f803e3d5ffd5b5060015f3373ffffffffffffffffffffffffffffffffffffffff1673ffffffffffffffffffffffffffffffffffffffff1681526020019081526020015f206002015f815480929190610c3f906114bd565b9190505550805f80828254610c54919061177b565b925050819055505f60015f3373ffffffffffffffffffffffffffffffffffffffff1673ffffffffffffffffffffffffffffffffffffffff1681526020019081526020015f206002015403610cfe5760015f3373ffffffffffffffffffffffffffffffffffffffff1673ffffffffffffffffffffffffffffffffffffffff1681526020019081526020015f205f8082015f9055600182015f9055600282015f9055600382015f905550505b50565b6002602052805f5260405f205f91509050805f0154908060010154908060020154908060030154905084565b5f8211610d6f576040517f08c379a0000000000000000000000000000000000000000000000000000000008152600401610d66906115fe565b60405180910390fd5b5f8111610db1576040517f08c379a0000000000000000000000000000000000000000000000000000000008152600401610da89061152e565b60405180910390fd5b815f541015610df5576040517f08c379a0000000000000000000000000000000000000000000000000000000008152600401610dec906116f5565b60405180910390fd5b81471015610e38576040517f08c379a0000000000000000000000000000000000000000000000000000000008152600401610e2f906117f8565b60405180910390fd5b5f610e42826105bf565b90505f6064828486610e5491906112f6565b610e5e91906112f6565b610e689190611364565b9050803373ffffffffffffffffffffffffffffffffffffffff16311015610ec4576040517f08c379a0000000000000000000000000000000000000000000000000000000008152600401610ebb90611860565b60405180910390fd5b3373ffffffffffffffffffffffffffffffffffffffff166108fc8590811502906040515f60405180830381858888f19350505050158015610f07573d5f803e3d5ffd5b50835f80828254610f18919061177b565b925050819055508360025f3373ffffffffffffffffffffffffffffffffffffffff1673ffffffffffffffffffffffffffffffffffffffff1681526020019081526020015f205f015f828254610f6d9190611394565b925050819055508260025f3373ffffffffffffffffffffffffffffffffffffffff1673ffffffffffffffffffffffffffffffffffffffff1681526020019081526020015f20600101819055508260025f3373ffffffffffffffffffffffffffffffffffffffff1673ffffffffffffffffffffffffffffffffffffffff1681526020019081526020015f20600201819055508160025f3373ffffffffffffffffffffffffffffffffffffffff1673ffffffffffffffffffffffffffffffffffffffff1681526020019081526020015f20600301819055503373ffffffffffffffffffffffffffffffffffffffff167f1f4fa8bbaa124ef8d04466f13d5a2572fb712424cee0bc9cf430aec52439acd7858560405161108b929190611684565b60405180910390a250505050565b5f819050919050565b6110ab81611099565b82525050565b5f6020820190506110c45f8301846110a2565b92915050565b5f80fd5b6110d781611099565b81146110e1575f80fd5b50565b5f813590506110f2816110ce565b92915050565b5f6020828403121561110d5761110c6110ca565b5b5f61111a848285016110e4565b91505092915050565b5f73ffffffffffffffffffffffffffffffffffffffff82169050919050565b5f61114c82611123565b9050919050565b61115c81611142565b82525050565b5f6020820190506111755f830184611153565b92915050565b61118481611142565b811461118e575f80fd5b50565b5f8135905061119f8161117b565b92915050565b5f602082840312156111ba576111b96110ca565b5b5f6111c784828501611191565b91505092915050565b5f6080820190506111e35f8301876110a2565b6111f060208301866110a2565b6111fd60408301856110a2565b61120a60608301846110a2565b95945050505050565b5f8060408385031215611229576112286110ca565b5b5f611236858286016110e4565b9250506020611247858286016110e4565b9150509250929050565b5f82825260208201905092915050565b7f417563756e20707265742061637469662074726f7576650000000000000000005f82015250565b5f611295601783611251565b91506112a082611261565b602082019050919050565b5f6020820190508181035f8301526112c281611289565b9050919050565b7f4e487b71000000000000000000000000000000000000000000000000000000005f52601160045260245ffd5b5f61130082611099565b915061130b83611099565b925082820261131981611099565b915082820484148315176113305761132f6112c9565b5b5092915050565b7f4e487b71000000000000000000000000000000000000000000000000000000005f52601260045260245ffd5b5f61136e82611099565b915061137983611099565b92508261138957611388611337565b5b828204905092915050565b5f61139e82611099565b91506113a983611099565b92508282019050808211156113c1576113c06112c9565b5b92915050565b7f42616c616e636520696e737566666973616e74650000000000000000000000005f82015250565b5f6113fb601483611251565b9150611406826113c7565b602082019050919050565b5f6020820190508181035f830152611428816113ef565b9050919050565b7f56616c65757220706f7572206c61207472616e73616374696f6e20696e7375665f8201527f666973616e746500000000000000000000000000000000000000000000000000602082015250565b5f611489602783611251565b91506114948261142f565b604082019050919050565b5f6020820190508181035f8301526114b68161147d565b9050919050565b5f6114c782611099565b91505f82036114d9576114d86112c9565b5b600182039050919050565b7f4475726174696f6e206d7573742062652067726561746572207468616e2030005f82015250565b5f611518601f83611251565b9150611523826114e4565b602082019050919050565b5f6020820190508181035f8301526115458161150c565b9050919050565b7f496e73756666696369656e742066756e647320746f206c656e640000000000005f82015250565b5f611580601a83611251565b915061158b8261154c565b602082019050919050565b5f6020820190508181035f8301526115ad81611574565b9050919050565b7f416d6f756e74206d7573742062652067726561746572207468616e20300000005f82015250565b5f6115e8601d83611251565b91506115f3826115b4565b602082019050919050565b5f6020820190508181035f830152611615816115dc565b9050919050565b7f496e746572657374206d7573742062652067726561746572207468616e2030005f82015250565b5f611650601f83611251565b915061165b8261161c565b602082019050919050565b5f6020820190508181035f83015261167d81611644565b9050919050565b5f6040820190506116975f8301856110a2565b6116a460208301846110a2565b9392505050565b7f42616c616e636520636f6e7472617420696e737566666973616e7465000000005f82015250565b5f6116df601c83611251565b91506116ea826116ab565b602082019050919050565b5f6020820190508181035f83015261170c816116d3565b9050919050565b7f466f6e6420647520636f6e747261637420696e737566666973616e74000000005f82015250565b5f611747601c83611251565b915061175282611713565b602082019050919050565b5f6020820190508181035f8301526117748161173b565b9050919050565b5f61178582611099565b915061179083611099565b92508282039050818111156117a8576117a76112c9565b5b92915050565b7f466f6e6420636f6e7472617420696e737566666973616e7400000000000000005f82015250565b5f6117e2601883611251565b91506117ed826117ae565b602082019050919050565b5f6020820190508181035f83015261180f816117d6565b9050919050565b7f496e73756666696369656e742066756e647320746f20626f72726f77000000005f82015250565b5f61184a601c83611251565b915061185582611816565b602082019050919050565b5f6020820190508181035f8301526118778161183e565b905091905056fea2646970667358221220d8a24b359977a62a661dd4ada05ebefbe6b18464dc5aea51380d8eb7fa16afcd64736f6c63430008190033",
					"opcodes": "PUSH1 0x80 PUSH1 0x40 MSTORE PUSH0 DUP1 SSTORE CALLVALUE DUP1 ISZERO PUSH1 0x11 JUMPI PUSH0 DUP1 REVERT JUMPDEST POP CALLER PUSH1 0x3 PUSH0 PUSH2 0x100 EXP DUP2 SLOAD DUP2 PUSH20 0xFFFFFFFFFFFFFFFFFFFFFFFFFFFFFFFFFFFFFFFF MUL NOT AND SWAP1 DUP4 PUSH20 0xFFFFFFFFFFFFFFFFFFFFFFFFFFFFFFFFFFFFFFFF AND MUL OR SWAP1 SSTORE POP PUSH2 0x18B4 DUP1 PUSH2 0x5F PUSH0 CODECOPY PUSH0 RETURN INVALID PUSH1 0x80 PUSH1 0x40 MSTORE PUSH1 0x4 CALLDATASIZE LT PUSH2 0x9B JUMPI PUSH0 CALLDATALOAD PUSH1 0xE0 SHR DUP1 PUSH4 0x8DA5CB5B GT PUSH2 0x63 JUMPI DUP1 PUSH4 0x8DA5CB5B EQ PUSH2 0x155 JUMPI DUP1 PUSH4 0x97643FD7 EQ PUSH2 0x17F JUMPI DUP1 PUSH4 0xCC336EE1 EQ PUSH2 0x1A9 JUMPI DUP1 PUSH4 0xCCBB629B EQ PUSH2 0x1E8 JUMPI DUP1 PUSH4 0xDE4C1982 EQ PUSH2 0x1F2 JUMPI DUP1 PUSH4 0xFEABAE58 EQ PUSH2 0x231 JUMPI PUSH2 0x9B JUMP JUMPDEST DUP1 PUSH4 0x2163885A EQ PUSH2 0x9F JUMPI DUP1 PUSH4 0x6F9FB98A EQ PUSH2 0xC9 JUMPI DUP1 PUSH4 0x704D914D EQ PUSH2 0xF3 JUMPI DUP1 PUSH4 0x7341DB60 EQ PUSH2 0xFD JUMPI DUP1 PUSH4 0x7C0C3602 EQ PUSH2 0x139 JUMPI JUMPDEST PUSH0 DUP1 REVERT JUMPDEST CALLVALUE DUP1 ISZERO PUSH2 0xAA JUMPI PUSH0 DUP1 REVERT JUMPDEST POP PUSH2 0xB3 PUSH2 0x24D JUMP JUMPDEST PUSH1 0x40 MLOAD PUSH2 0xC0 SWAP2 SWAP1 PUSH2 0x10B1 JUMP JUMPDEST PUSH1 0x40 MLOAD DUP1 SWAP2 SUB SWAP1 RETURN JUMPDEST CALLVALUE DUP1 ISZERO PUSH2 0xD4 JUMPI PUSH0 DUP1 REVERT JUMPDEST POP PUSH2 0xDD PUSH2 0x252 JUMP JUMPDEST PUSH1 0x40 MLOAD PUSH2 0xEA SWAP2 SWAP1 PUSH2 0x10B1 JUMP JUMPDEST PUSH1 0x40 MLOAD DUP1 SWAP2 SUB SWAP1 RETURN JUMPDEST PUSH2 0xFB PUSH2 0x25A JUMP JUMPDEST STOP JUMPDEST CALLVALUE DUP1 ISZERO PUSH2 0x108 JUMPI PUSH0 DUP1 REVERT JUMPDEST POP PUSH2 0x123 PUSH1 0x4 DUP1 CALLDATASIZE SUB DUP2 ADD SWAP1 PUSH2 0x11E SWAP2 SWAP1 PUSH2 0x10F8 JUMP JUMPDEST PUSH2 0x5BF JUMP JUMPDEST PUSH1 0x40 MLOAD PUSH2 0x130 SWAP2 SWAP1 PUSH2 0x10B1 JUMP JUMPDEST PUSH1 0x40 MLOAD DUP1 SWAP2 SUB SWAP1 RETURN JUMPDEST PUSH2 0x153 PUSH1 0x4 DUP1 CALLDATASIZE SUB DUP2 ADD SWAP1 PUSH2 0x14E SWAP2 SWAP1 PUSH2 0x10F8 JUMP JUMPDEST PUSH2 0x634 JUMP JUMPDEST STOP JUMPDEST CALLVALUE DUP1 ISZERO PUSH2 0x160 JUMPI PUSH0 DUP1 REVERT JUMPDEST POP PUSH2 0x169 PUSH2 0x91B JUMP JUMPDEST PUSH1 0x40 MLOAD PUSH2 0x176 SWAP2 SWAP1 PUSH2 0x1162 JUMP JUMPDEST PUSH1 0x40 MLOAD DUP1 SWAP2 SUB SWAP1 RETURN JUMPDEST CALLVALUE DUP1 ISZERO PUSH2 0x18A JUMPI PUSH0 DUP1 REVERT JUMPDEST POP PUSH2 0x193 PUSH2 0x940 JUMP JUMPDEST PUSH1 0x40 MLOAD PUSH2 0x1A0 SWAP2 SWAP1 PUSH2 0x10B1 JUMP JUMPDEST PUSH1 0x40 MLOAD DUP1 SWAP2 SUB SWAP1 RETURN JUMPDEST CALLVALUE DUP1 ISZERO PUSH2 0x1B4 JUMPI PUSH0 DUP1 REVERT JUMPDEST POP PUSH2 0x1CF PUSH1 0x4 DUP1 CALLDATASIZE SUB DUP2 ADD SWAP1 PUSH2 0x1CA SWAP2 SWAP1 PUSH2 0x11A5 JUMP JUMPDEST PUSH2 0x947 JUMP JUMPDEST PUSH1 0x40 MLOAD PUSH2 0x1DF SWAP5 SWAP4 SWAP3 SWAP2 SWAP1 PUSH2 0x11D0 JUMP JUMPDEST PUSH1 0x40 MLOAD DUP1 SWAP2 SUB SWAP1 RETURN JUMPDEST PUSH2 0x1F0 PUSH2 0x973 JUMP JUMPDEST STOP JUMPDEST CALLVALUE DUP1 ISZERO PUSH2 0x1FD JUMPI PUSH0 DUP1 REVERT JUMPDEST POP PUSH2 0x218 PUSH1 0x4 DUP1 CALLDATASIZE SUB DUP2 ADD SWAP1 PUSH2 0x213 SWAP2 SWAP1 PUSH2 0x11A5 JUMP JUMPDEST PUSH2 0xD01 JUMP JUMPDEST PUSH1 0x40 MLOAD PUSH2 0x228 SWAP5 SWAP4 SWAP3 SWAP2 SWAP1 PUSH2 0x11D0 JUMP JUMPDEST PUSH1 0x40 MLOAD DUP1 SWAP2 SUB SWAP1 RETURN JUMPDEST PUSH2 0x24B PUSH1 0x4 DUP1 CALLDATASIZE SUB DUP2 ADD SWAP1 PUSH2 0x246 SWAP2 SWAP1 PUSH2 0x1213 JUMP JUMPDEST PUSH2 0xD2D JUMP JUMPDEST STOP JUMPDEST PUSH0 SLOAD DUP2 JUMP JUMPDEST PUSH0 DUP1 SLOAD SWAP1 POP SWAP1 JUMP JUMPDEST PUSH0 PUSH1 0x2 PUSH0 CALLER PUSH20 0xFFFFFFFFFFFFFFFFFFFFFFFFFFFFFFFFFFFFFFFF AND PUSH20 0xFFFFFFFFFFFFFFFFFFFFFFFFFFFFFFFFFFFFFFFF AND DUP2 MSTORE PUSH1 0x20 ADD SWAP1 DUP2 MSTORE PUSH1 0x20 ADD PUSH0 KECCAK256 PUSH1 0x2 ADD SLOAD GT PUSH2 0x2DC JUMPI PUSH1 0x40 MLOAD PUSH32 0x8C379A000000000000000000000000000000000000000000000000000000000 DUP2 MSTORE PUSH1 0x4 ADD PUSH2 0x2D3 SWAP1 PUSH2 0x12AB JUMP JUMPDEST PUSH1 0x40 MLOAD DUP1 SWAP2 SUB SWAP1 REVERT JUMPDEST PUSH0 CALLVALUE SWAP1 POP PUSH0 PUSH1 0x2 PUSH0 CALLER PUSH20 0xFFFFFFFFFFFFFFFFFFFFFFFFFFFFFFFFFFFFFFFF AND PUSH20 0xFFFFFFFFFFFFFFFFFFFFFFFFFFFFFFFFFFFFFFFF AND DUP2 MSTORE PUSH1 0x20 ADD SWAP1 DUP2 MSTORE PUSH1 0x20 ADD PUSH0 KECCAK256 PUSH1 0x1 ADD SLOAD PUSH1 0x64 PUSH1 0x2 PUSH0 CALLER PUSH20 0xFFFFFFFFFFFFFFFFFFFFFFFFFFFFFFFFFFFFFFFF AND PUSH20 0xFFFFFFFFFFFFFFFFFFFFFFFFFFFFFFFFFFFFFFFF AND DUP2 MSTORE PUSH1 0x20 ADD SWAP1 DUP2 MSTORE PUSH1 0x20 ADD PUSH0 KECCAK256 PUSH1 0x3 ADD SLOAD PUSH1 0x2 PUSH0 CALLER PUSH20 0xFFFFFFFFFFFFFFFFFFFFFFFFFFFFFFFFFFFFFFFF AND PUSH20 0xFFFFFFFFFFFFFFFFFFFFFFFFFFFFFFFFFFFFFFFF AND DUP2 MSTORE PUSH1 0x20 ADD SWAP1 DUP2 MSTORE PUSH1 0x20 ADD PUSH0 KECCAK256 PUSH0 ADD SLOAD PUSH2 0x3AF SWAP2 SWAP1 PUSH2 0x12F6 JUMP JUMPDEST PUSH2 0x3B9 SWAP2 SWAP1 PUSH2 0x1364 JUMP JUMPDEST PUSH1 0x2 PUSH0 CALLER PUSH20 0xFFFFFFFFFFFFFFFFFFFFFFFFFFFFFFFFFFFFFFFF AND PUSH20 0xFFFFFFFFFFFFFFFFFFFFFFFFFFFFFFFFFFFFFFFF AND DUP2 MSTORE PUSH1 0x20 ADD SWAP1 DUP2 MSTORE PUSH1 0x20 ADD PUSH0 KECCAK256 PUSH0 ADD SLOAD PUSH2 0x403 SWAP2 SWAP1 PUSH2 0x1394 JUMP JUMPDEST PUSH2 0x40D SWAP2 SWAP1 PUSH2 0x1364 JUMP JUMPDEST SWAP1 POP CALLER PUSH20 0xFFFFFFFFFFFFFFFFFFFFFFFFFFFFFFFFFFFFFFFF AND BALANCE DUP2 GT ISZERO PUSH2 0x469 JUMPI PUSH1 0x40 MLOAD PUSH32 0x8C379A000000000000000000000000000000000000000000000000000000000 DUP2 MSTORE PUSH1 0x4 ADD PUSH2 0x460 SWAP1 PUSH2 0x1411 JUMP JUMPDEST PUSH1 0x40 MLOAD DUP1 SWAP2 SUB SWAP1 REVERT JUMPDEST DUP2 DUP2 GT ISZERO PUSH2 0x4AC JUMPI PUSH1 0x40 MLOAD PUSH32 0x8C379A000000000000000000000000000000000000000000000000000000000 DUP2 MSTORE PUSH1 0x4 ADD PUSH2 0x4A3 SWAP1 PUSH2 0x149F JUMP JUMPDEST PUSH1 0x40 MLOAD DUP1 SWAP2 SUB SWAP1 REVERT JUMPDEST DUP1 PUSH0 DUP1 DUP3 DUP3 SLOAD PUSH2 0x4BC SWAP2 SWAP1 PUSH2 0x1394 JUMP JUMPDEST SWAP3 POP POP DUP2 SWAP1 SSTORE POP PUSH1 0x2 PUSH0 CALLER PUSH20 0xFFFFFFFFFFFFFFFFFFFFFFFFFFFFFFFFFFFFFFFF AND PUSH20 0xFFFFFFFFFFFFFFFFFFFFFFFFFFFFFFFFFFFFFFFF AND DUP2 MSTORE PUSH1 0x20 ADD SWAP1 DUP2 MSTORE PUSH1 0x20 ADD PUSH0 KECCAK256 PUSH1 0x2 ADD PUSH0 DUP2 SLOAD DUP1 SWAP3 SWAP2 SWAP1 PUSH2 0x513 SWAP1 PUSH2 0x14BD JUMP JUMPDEST SWAP2 SWAP1 POP SSTORE POP PUSH0 PUSH1 0x2 PUSH0 CALLER PUSH20 0xFFFFFFFFFFFFFFFFFFFFFFFFFFFFFFFFFFFFFFFF AND PUSH20 0xFFFFFFFFFFFFFFFFFFFFFFFFFFFFFFFFFFFFFFFF AND DUP2 MSTORE PUSH1 0x20 ADD SWAP1 DUP2 MSTORE PUSH1 0x20 ADD PUSH0 KECCAK256 PUSH1 0x2 ADD SLOAD SUB PUSH2 0x5BB JUMPI PUSH1 0x2 PUSH0 CALLER PUSH20 0xFFFFFFFFFFFFFFFFFFFFFFFFFFFFFFFFFFFFFFFF AND PUSH20 0xFFFFFFFFFFFFFFFFFFFFFFFFFFFFFFFFFFFFFFFF AND DUP2 MSTORE PUSH1 0x20 ADD SWAP1 DUP2 MSTORE PUSH1 0x20 ADD PUSH0 KECCAK256 PUSH0 DUP1 DUP3 ADD PUSH0 SWAP1 SSTORE PUSH1 0x1 DUP3 ADD PUSH0 SWAP1 SSTORE PUSH1 0x2 DUP3 ADD PUSH0 SWAP1 SSTORE PUSH1 0x3 DUP3 ADD PUSH0 SWAP1 SSTORE POP POP JUMPDEST POP POP JUMP JUMPDEST PUSH0 DUP1 DUP3 GT PUSH2 0x602 JUMPI PUSH1 0x40 MLOAD PUSH32 0x8C379A000000000000000000000000000000000000000000000000000000000 DUP2 MSTORE PUSH1 0x4 ADD PUSH2 0x5F9 SWAP1 PUSH2 0x152E JUMP JUMPDEST PUSH1 0x40 MLOAD DUP1 SWAP2 SUB SWAP1 REVERT JUMPDEST PUSH0 PUSH1 0x6 DUP4 GT PUSH2 0x614 JUMPI PUSH1 0x5 SWAP1 POP PUSH2 0x62B JUMP JUMPDEST PUSH1 0xC DUP4 GT PUSH2 0x625 JUMPI PUSH1 0x8 SWAP1 POP PUSH2 0x62A JUMP JUMPDEST PUSH1 0xA SWAP1 POP JUMPDEST JUMPDEST DUP1 SWAP2 POP POP SWAP2 SWAP1 POP JUMP JUMPDEST PUSH0 CALLVALUE SWAP1 POP CALLER PUSH20 0xFFFFFFFFFFFFFFFFFFFFFFFFFFFFFFFFFFFFFFFF AND BALANCE DUP2 GT ISZERO PUSH2 0x692 JUMPI PUSH1 0x40 MLOAD PUSH32 0x8C379A000000000000000000000000000000000000000000000000000000000 DUP2 MSTORE PUSH1 0x4 ADD PUSH2 0x689 SWAP1 PUSH2 0x1596 JUMP JUMPDEST PUSH1 0x40 MLOAD DUP1 SWAP2 SUB SWAP1 REVERT JUMPDEST PUSH0 DUP2 GT PUSH2 0x6D4 JUMPI PUSH1 0x40 MLOAD PUSH32 0x8C379A000000000000000000000000000000000000000000000000000000000 DUP2 MSTORE PUSH1 0x4 ADD PUSH2 0x6CB SWAP1 PUSH2 0x15FE JUMP JUMPDEST PUSH1 0x40 MLOAD DUP1 SWAP2 SUB SWAP1 REVERT JUMPDEST PUSH0 DUP3 GT PUSH2 0x716 JUMPI PUSH1 0x40 MLOAD PUSH32 0x8C379A000000000000000000000000000000000000000000000000000000000 DUP2 MSTORE PUSH1 0x4 ADD PUSH2 0x70D SWAP1 PUSH2 0x152E JUMP JUMPDEST PUSH1 0x40 MLOAD DUP1 SWAP2 SUB SWAP1 REVERT JUMPDEST PUSH0 PUSH2 0x720 DUP4 PUSH2 0x5BF JUMP JUMPDEST SWAP1 POP PUSH0 PUSH1 0x64 DUP3 DUP6 DUP6 PUSH2 0x732 SWAP2 SWAP1 PUSH2 0x12F6 JUMP JUMPDEST PUSH2 0x73C SWAP2 SWAP1 PUSH2 0x12F6 JUMP JUMPDEST PUSH2 0x746 SWAP2 SWAP1 PUSH2 0x1364 JUMP JUMPDEST SWAP1 POP PUSH0 DUP2 GT PUSH2 0x78A JUMPI PUSH1 0x40 MLOAD PUSH32 0x8C379A000000000000000000000000000000000000000000000000000000000 DUP2 MSTORE PUSH1 0x4 ADD PUSH2 0x781 SWAP1 PUSH2 0x1666 JUMP JUMPDEST PUSH1 0x40 MLOAD DUP1 SWAP2 SUB SWAP1 REVERT JUMPDEST DUP3 PUSH0 DUP1 DUP3 DUP3 SLOAD PUSH2 0x79A SWAP2 SWAP1 PUSH2 0x1394 JUMP JUMPDEST SWAP3 POP POP DUP2 SWAP1 SSTORE POP DUP3 PUSH1 0x1 PUSH0 CALLER PUSH20 0xFFFFFFFFFFFFFFFFFFFFFFFFFFFFFFFFFFFFFFFF AND PUSH20 0xFFFFFFFFFFFFFFFFFFFFFFFFFFFFFFFFFFFFFFFF AND DUP2 MSTORE PUSH1 0x20 ADD SWAP1 DUP2 MSTORE PUSH1 0x20 ADD PUSH0 KECCAK256 PUSH0 ADD PUSH0 DUP3 DUP3 SLOAD PUSH2 0x7EF SWAP2 SWAP1 PUSH2 0x1394 JUMP JUMPDEST SWAP3 POP POP DUP2 SWAP1 SSTORE POP DUP4 PUSH1 0x1 PUSH0 CALLER PUSH20 0xFFFFFFFFFFFFFFFFFFFFFFFFFFFFFFFFFFFFFFFF AND PUSH20 0xFFFFFFFFFFFFFFFFFFFFFFFFFFFFFFFFFFFFFFFF AND DUP2 MSTORE PUSH1 0x20 ADD SWAP1 DUP2 MSTORE PUSH1 0x20 ADD PUSH0 KECCAK256 PUSH1 0x1 ADD DUP2 SWAP1 SSTORE POP DUP4 PUSH1 0x1 PUSH0 CALLER PUSH20 0xFFFFFFFFFFFFFFFFFFFFFFFFFFFFFFFFFFFFFFFF AND PUSH20 0xFFFFFFFFFFFFFFFFFFFFFFFFFFFFFFFFFFFFFFFF AND DUP2 MSTORE PUSH1 0x20 ADD SWAP1 DUP2 MSTORE PUSH1 0x20 ADD PUSH0 KECCAK256 PUSH1 0x2 ADD DUP2 SWAP1 SSTORE POP DUP2 PUSH1 0x1 PUSH0 CALLER PUSH20 0xFFFFFFFFFFFFFFFFFFFFFFFFFFFFFFFFFFFFFFFF AND PUSH20 0xFFFFFFFFFFFFFFFFFFFFFFFFFFFFFFFFFFFFFFFF AND DUP2 MSTORE PUSH1 0x20 ADD SWAP1 DUP2 MSTORE PUSH1 0x20 ADD PUSH0 KECCAK256 PUSH1 0x3 ADD DUP2 SWAP1 SSTORE POP CALLER PUSH20 0xFFFFFFFFFFFFFFFFFFFFFFFFFFFFFFFFFFFFFFFF AND PUSH32 0x1F4FA8BBAA124EF8D04466F13D5A2572FB712424CEE0BC9CF430AEC52439ACD7 DUP5 DUP7 PUSH1 0x40 MLOAD PUSH2 0x90D SWAP3 SWAP2 SWAP1 PUSH2 0x1684 JUMP JUMPDEST PUSH1 0x40 MLOAD DUP1 SWAP2 SUB SWAP1 LOG2 POP POP POP POP JUMP JUMPDEST PUSH1 0x3 PUSH0 SWAP1 SLOAD SWAP1 PUSH2 0x100 EXP SWAP1 DIV PUSH20 0xFFFFFFFFFFFFFFFFFFFFFFFFFFFFFFFFFFFFFFFF AND DUP2 JUMP JUMPDEST PUSH0 SELFBALANCE SWAP1 POP SWAP1 JUMP JUMPDEST PUSH1 0x1 PUSH1 0x20 MSTORE DUP1 PUSH0 MSTORE PUSH1 0x40 PUSH0 KECCAK256 PUSH0 SWAP2 POP SWAP1 POP DUP1 PUSH0 ADD SLOAD SWAP1 DUP1 PUSH1 0x1 ADD SLOAD SWAP1 DUP1 PUSH1 0x2 ADD SLOAD SWAP1 DUP1 PUSH1 0x3 ADD SLOAD SWAP1 POP DUP5 JUMP JUMPDEST PUSH0 PUSH1 0x1 PUSH0 CALLER PUSH20 0xFFFFFFFFFFFFFFFFFFFFFFFFFFFFFFFFFFFFFFFF AND PUSH20 0xFFFFFFFFFFFFFFFFFFFFFFFFFFFFFFFFFFFFFFFF AND DUP2 MSTORE PUSH1 0x20 ADD SWAP1 DUP2 MSTORE PUSH1 0x20 ADD PUSH0 KECCAK256 PUSH1 0x2 ADD SLOAD GT PUSH2 0x9F5 JUMPI PUSH1 0x40 MLOAD PUSH32 0x8C379A000000000000000000000000000000000000000000000000000000000 DUP2 MSTORE PUSH1 0x4 ADD PUSH2 0x9EC SWAP1 PUSH2 0x12AB JUMP JUMPDEST PUSH1 0x40 MLOAD DUP1 SWAP2 SUB SWAP1 REVERT JUMPDEST PUSH0 PUSH1 0x1 PUSH0 CALLER PUSH20 0xFFFFFFFFFFFFFFFFFFFFFFFFFFFFFFFFFFFFFFFF AND PUSH20 0xFFFFFFFFFFFFFFFFFFFFFFFFFFFFFFFFFFFFFFFF AND DUP2 MSTORE PUSH1 0x20 ADD SWAP1 DUP2 MSTORE PUSH1 0x20 ADD PUSH0 KECCAK256 PUSH1 0x1 ADD SLOAD PUSH1 0x64 PUSH1 0x1 PUSH0 CALLER PUSH20 0xFFFFFFFFFFFFFFFFFFFFFFFFFFFFFFFFFFFFFFFF AND PUSH20 0xFFFFFFFFFFFFFFFFFFFFFFFFFFFFFFFFFFFFFFFF AND DUP2 MSTORE PUSH1 0x20 ADD SWAP1 DUP2 MSTORE PUSH1 0x20 ADD PUSH0 KECCAK256 PUSH1 0x3 ADD SLOAD PUSH1 0x1 PUSH0 CALLER PUSH20 0xFFFFFFFFFFFFFFFFFFFFFFFFFFFFFFFFFFFFFFFF AND PUSH20 0xFFFFFFFFFFFFFFFFFFFFFFFFFFFFFFFFFFFFFFFF AND DUP2 MSTORE PUSH1 0x20 ADD SWAP1 DUP2 MSTORE PUSH1 0x20 ADD PUSH0 KECCAK256 PUSH0 ADD SLOAD PUSH2 0xAC4 SWAP2 SWAP1 PUSH2 0x12F6 JUMP JUMPDEST PUSH2 0xACE SWAP2 SWAP1 PUSH2 0x1364 JUMP JUMPDEST PUSH1 0x1 PUSH0 CALLER PUSH20 0xFFFFFFFFFFFFFFFFFFFFFFFFFFFFFFFFFFFFFFFF AND PUSH20 0xFFFFFFFFFFFFFFFFFFFFFFFFFFFFFFFFFFFFFFFF AND DUP2 MSTORE PUSH1 0x20 ADD SWAP1 DUP2 MSTORE PUSH1 0x20 ADD PUSH0 KECCAK256 PUSH0 ADD SLOAD PUSH2 0xB18 SWAP2 SWAP1 PUSH2 0x1394 JUMP JUMPDEST PUSH2 0xB22 SWAP2 SWAP1 PUSH2 0x1364 JUMP JUMPDEST SWAP1 POP DUP1 PUSH0 SLOAD LT ISZERO PUSH2 0xB68 JUMPI PUSH1 0x40 MLOAD PUSH32 0x8C379A000000000000000000000000000000000000000000000000000000000 DUP2 MSTORE PUSH1 0x4 ADD PUSH2 0xB5F SWAP1 PUSH2 0x16F5 JUMP JUMPDEST PUSH1 0x40 MLOAD DUP1 SWAP2 SUB SWAP1 REVERT JUMPDEST DUP1 SELFBALANCE LT ISZERO PUSH2 0xBAB JUMPI PUSH1 0x40 MLOAD PUSH32 0x8C379A000000000000000000000000000000000000000000000000000000000 DUP2 MSTORE PUSH1 0x4 ADD PUSH2 0xBA2 SWAP1 PUSH2 0x175D JUMP JUMPDEST PUSH1 0x40 MLOAD DUP1 SWAP2 SUB SWAP1 REVERT JUMPDEST CALLER PUSH20 0xFFFFFFFFFFFFFFFFFFFFFFFFFFFFFFFFFFFFFFFF AND PUSH2 0x8FC DUP3 SWAP1 DUP2 ISZERO MUL SWAP1 PUSH1 0x40 MLOAD PUSH0 PUSH1 0x40 MLOAD DUP1 DUP4 SUB DUP2 DUP6 DUP9 DUP9 CALL SWAP4 POP POP POP POP ISZERO DUP1 ISZERO PUSH2 0xBEE JUMPI RETURNDATASIZE PUSH0 DUP1 RETURNDATACOPY RETURNDATASIZE PUSH0 REVERT JUMPDEST POP PUSH1 0x1 PUSH0 CALLER PUSH20 0xFFFFFFFFFFFFFFFFFFFFFFFFFFFFFFFFFFFFFFFF AND PUSH20 0xFFFFFFFFFFFFFFFFFFFFFFFFFFFFFFFFFFFFFFFF AND DUP2 MSTORE PUSH1 0x20 ADD SWAP1 DUP2 MSTORE PUSH1 0x20 ADD PUSH0 KECCAK256 PUSH1 0x2 ADD PUSH0 DUP2 SLOAD DUP1 SWAP3 SWAP2 SWAP1 PUSH2 0xC3F SWAP1 PUSH2 0x14BD JUMP JUMPDEST SWAP2 SWAP1 POP SSTORE POP DUP1 PUSH0 DUP1 DUP3 DUP3 SLOAD PUSH2 0xC54 SWAP2 SWAP1 PUSH2 0x177B JUMP JUMPDEST SWAP3 POP POP DUP2 SWAP1 SSTORE POP PUSH0 PUSH1 0x1 PUSH0 CALLER PUSH20 0xFFFFFFFFFFFFFFFFFFFFFFFFFFFFFFFFFFFFFFFF AND PUSH20 0xFFFFFFFFFFFFFFFFFFFFFFFFFFFFFFFFFFFFFFFF AND DUP2 MSTORE PUSH1 0x20 ADD SWAP1 DUP2 MSTORE PUSH1 0x20 ADD PUSH0 KECCAK256 PUSH1 0x2 ADD SLOAD SUB PUSH2 0xCFE JUMPI PUSH1 0x1 PUSH0 CALLER PUSH20 0xFFFFFFFFFFFFFFFFFFFFFFFFFFFFFFFFFFFFFFFF AND PUSH20 0xFFFFFFFFFFFFFFFFFFFFFFFFFFFFFFFFFFFFFFFF AND DUP2 MSTORE PUSH1 0x20 ADD SWAP1 DUP2 MSTORE PUSH1 0x20 ADD PUSH0 KECCAK256 PUSH0 DUP1 DUP3 ADD PUSH0 SWAP1 SSTORE PUSH1 0x1 DUP3 ADD PUSH0 SWAP1 SSTORE PUSH1 0x2 DUP3 ADD PUSH0 SWAP1 SSTORE PUSH1 0x3 DUP3 ADD PUSH0 SWAP1 SSTORE POP POP JUMPDEST POP JUMP JUMPDEST PUSH1 0x2 PUSH1 0x20 MSTORE DUP1 PUSH0 MSTORE PUSH1 0x40 PUSH0 KECCAK256 PUSH0 SWAP2 POP SWAP1 POP DUP1 PUSH0 ADD SLOAD SWAP1 DUP1 PUSH1 0x1 ADD SLOAD SWAP1 DUP1 PUSH1 0x2 ADD SLOAD SWAP1 DUP1 PUSH1 0x3 ADD SLOAD SWAP1 POP DUP5 JUMP JUMPDEST PUSH0 DUP3 GT PUSH2 0xD6F JUMPI PUSH1 0x40 MLOAD PUSH32 0x8C379A000000000000000000000000000000000000000000000000000000000 DUP2 MSTORE PUSH1 0x4 ADD PUSH2 0xD66 SWAP1 PUSH2 0x15FE JUMP JUMPDEST PUSH1 0x40 MLOAD DUP1 SWAP2 SUB SWAP1 REVERT JUMPDEST PUSH0 DUP2 GT PUSH2 0xDB1 JUMPI PUSH1 0x40 MLOAD PUSH32 0x8C379A000000000000000000000000000000000000000000000000000000000 DUP2 MSTORE PUSH1 0x4 ADD PUSH2 0xDA8 SWAP1 PUSH2 0x152E JUMP JUMPDEST PUSH1 0x40 MLOAD DUP1 SWAP2 SUB SWAP1 REVERT JUMPDEST DUP2 PUSH0 SLOAD LT ISZERO PUSH2 0xDF5 JUMPI PUSH1 0x40 MLOAD PUSH32 0x8C379A000000000000000000000000000000000000000000000000000000000 DUP2 MSTORE PUSH1 0x4 ADD PUSH2 0xDEC SWAP1 PUSH2 0x16F5 JUMP JUMPDEST PUSH1 0x40 MLOAD DUP1 SWAP2 SUB SWAP1 REVERT JUMPDEST DUP2 SELFBALANCE LT ISZERO PUSH2 0xE38 JUMPI PUSH1 0x40 MLOAD PUSH32 0x8C379A000000000000000000000000000000000000000000000000000000000 DUP2 MSTORE PUSH1 0x4 ADD PUSH2 0xE2F SWAP1 PUSH2 0x17F8 JUMP JUMPDEST PUSH1 0x40 MLOAD DUP1 SWAP2 SUB SWAP1 REVERT JUMPDEST PUSH0 PUSH2 0xE42 DUP3 PUSH2 0x5BF JUMP JUMPDEST SWAP1 POP PUSH0 PUSH1 0x64 DUP3 DUP5 DUP7 PUSH2 0xE54 SWAP2 SWAP1 PUSH2 0x12F6 JUMP JUMPDEST PUSH2 0xE5E SWAP2 SWAP1 PUSH2 0x12F6 JUMP JUMPDEST PUSH2 0xE68 SWAP2 SWAP1 PUSH2 0x1364 JUMP JUMPDEST SWAP1 POP DUP1 CALLER PUSH20 0xFFFFFFFFFFFFFFFFFFFFFFFFFFFFFFFFFFFFFFFF AND BALANCE LT ISZERO PUSH2 0xEC4 JUMPI PUSH1 0x40 MLOAD PUSH32 0x8C379A000000000000000000000000000000000000000000000000000000000 DUP2 MSTORE PUSH1 0x4 ADD PUSH2 0xEBB SWAP1 PUSH2 0x1860 JUMP JUMPDEST PUSH1 0x40 MLOAD DUP1 SWAP2 SUB SWAP1 REVERT JUMPDEST CALLER PUSH20 0xFFFFFFFFFFFFFFFFFFFFFFFFFFFFFFFFFFFFFFFF AND PUSH2 0x8FC DUP6 SWAP1 DUP2 ISZERO MUL SWAP1 PUSH1 0x40 MLOAD PUSH0 PUSH1 0x40 MLOAD DUP1 DUP4 SUB DUP2 DUP6 DUP9 DUP9 CALL SWAP4 POP POP POP POP ISZERO DUP1 ISZERO PUSH2 0xF07 JUMPI RETURNDATASIZE PUSH0 DUP1 RETURNDATACOPY RETURNDATASIZE PUSH0 REVERT JUMPDEST POP DUP4 PUSH0 DUP1 DUP3 DUP3 SLOAD PUSH2 0xF18 SWAP2 SWAP1 PUSH2 0x177B JUMP JUMPDEST SWAP3 POP POP DUP2 SWAP1 SSTORE POP DUP4 PUSH1 0x2 PUSH0 CALLER PUSH20 0xFFFFFFFFFFFFFFFFFFFFFFFFFFFFFFFFFFFFFFFF AND PUSH20 0xFFFFFFFFFFFFFFFFFFFFFFFFFFFFFFFFFFFFFFFF AND DUP2 MSTORE PUSH1 0x20 ADD SWAP1 DUP2 MSTORE PUSH1 0x20 ADD PUSH0 KECCAK256 PUSH0 ADD PUSH0 DUP3 DUP3 SLOAD PUSH2 0xF6D SWAP2 SWAP1 PUSH2 0x1394 JUMP JUMPDEST SWAP3 POP POP DUP2 SWAP1 SSTORE POP DUP3 PUSH1 0x2 PUSH0 CALLER PUSH20 0xFFFFFFFFFFFFFFFFFFFFFFFFFFFFFFFFFFFFFFFF AND PUSH20 0xFFFFFFFFFFFFFFFFFFFFFFFFFFFFFFFFFFFFFFFF AND DUP2 MSTORE PUSH1 0x20 ADD SWAP1 DUP2 MSTORE PUSH1 0x20 ADD PUSH0 KECCAK256 PUSH1 0x1 ADD DUP2 SWAP1 SSTORE POP DUP3 PUSH1 0x2 PUSH0 CALLER PUSH20 0xFFFFFFFFFFFFFFFFFFFFFFFFFFFFFFFFFFFFFFFF AND PUSH20 0xFFFFFFFFFFFFFFFFFFFFFFFFFFFFFFFFFFFFFFFF AND DUP2 MSTORE PUSH1 0x20 ADD SWAP1 DUP2 MSTORE PUSH1 0x20 ADD PUSH0 KECCAK256 PUSH1 0x2 ADD DUP2 SWAP1 SSTORE POP DUP2 PUSH1 0x2 PUSH0 CALLER PUSH20 0xFFFFFFFFFFFFFFFFFFFFFFFFFFFFFFFFFFFFFFFF AND PUSH20 0xFFFFFFFFFFFFFFFFFFFFFFFFFFFFFFFFFFFFFFFF AND DUP2 MSTORE PUSH1 0x20 ADD SWAP1 DUP2 MSTORE PUSH1 0x20 ADD PUSH0 KECCAK256 PUSH1 0x3 ADD DUP2 SWAP1 SSTORE POP CALLER PUSH20 0xFFFFFFFFFFFFFFFFFFFFFFFFFFFFFFFFFFFFFFFF AND PUSH32 0x1F4FA8BBAA124EF8D04466F13D5A2572FB712424CEE0BC9CF430AEC52439ACD7 DUP6 DUP6 PUSH1 0x40 MLOAD PUSH2 0x108B SWAP3 SWAP2 SWAP1 PUSH2 0x1684 JUMP JUMPDEST PUSH1 0x40 MLOAD DUP1 SWAP2 SUB SWAP1 LOG2 POP POP POP POP JUMP JUMPDEST PUSH0 DUP2 SWAP1 POP SWAP2 SWAP1 POP JUMP JUMPDEST PUSH2 0x10AB DUP2 PUSH2 0x1099 JUMP JUMPDEST DUP3 MSTORE POP POP JUMP JUMPDEST PUSH0 PUSH1 0x20 DUP3 ADD SWAP1 POP PUSH2 0x10C4 PUSH0 DUP4 ADD DUP5 PUSH2 0x10A2 JUMP JUMPDEST SWAP3 SWAP2 POP POP JUMP JUMPDEST PUSH0 DUP1 REVERT JUMPDEST PUSH2 0x10D7 DUP2 PUSH2 0x1099 JUMP JUMPDEST DUP2 EQ PUSH2 0x10E1 JUMPI PUSH0 DUP1 REVERT JUMPDEST POP JUMP JUMPDEST PUSH0 DUP2 CALLDATALOAD SWAP1 POP PUSH2 0x10F2 DUP2 PUSH2 0x10CE JUMP JUMPDEST SWAP3 SWAP2 POP POP JUMP JUMPDEST PUSH0 PUSH1 0x20 DUP3 DUP5 SUB SLT ISZERO PUSH2 0x110D JUMPI PUSH2 0x110C PUSH2 0x10CA JUMP JUMPDEST JUMPDEST PUSH0 PUSH2 0x111A DUP5 DUP3 DUP6 ADD PUSH2 0x10E4 JUMP JUMPDEST SWAP2 POP POP SWAP3 SWAP2 POP POP JUMP JUMPDEST PUSH0 PUSH20 0xFFFFFFFFFFFFFFFFFFFFFFFFFFFFFFFFFFFFFFFF DUP3 AND SWAP1 POP SWAP2 SWAP1 POP JUMP JUMPDEST PUSH0 PUSH2 0x114C DUP3 PUSH2 0x1123 JUMP JUMPDEST SWAP1 POP SWAP2 SWAP1 POP JUMP JUMPDEST PUSH2 0x115C DUP2 PUSH2 0x1142 JUMP JUMPDEST DUP3 MSTORE POP POP JUMP JUMPDEST PUSH0 PUSH1 0x20 DUP3 ADD SWAP1 POP PUSH2 0x1175 PUSH0 DUP4 ADD DUP5 PUSH2 0x1153 JUMP JUMPDEST SWAP3 SWAP2 POP POP JUMP JUMPDEST PUSH2 0x1184 DUP2 PUSH2 0x1142 JUMP JUMPDEST DUP2 EQ PUSH2 0x118E JUMPI PUSH0 DUP1 REVERT JUMPDEST POP JUMP JUMPDEST PUSH0 DUP2 CALLDATALOAD SWAP1 POP PUSH2 0x119F DUP2 PUSH2 0x117B JUMP JUMPDEST SWAP3 SWAP2 POP POP JUMP JUMPDEST PUSH0 PUSH1 0x20 DUP3 DUP5 SUB SLT ISZERO PUSH2 0x11BA JUMPI PUSH2 0x11B9 PUSH2 0x10CA JUMP JUMPDEST JUMPDEST PUSH0 PUSH2 0x11C7 DUP5 DUP3 DUP6 ADD PUSH2 0x1191 JUMP JUMPDEST SWAP2 POP POP SWAP3 SWAP2 POP POP JUMP JUMPDEST PUSH0 PUSH1 0x80 DUP3 ADD SWAP1 POP PUSH2 0x11E3 PUSH0 DUP4 ADD DUP8 PUSH2 0x10A2 JUMP JUMPDEST PUSH2 0x11F0 PUSH1 0x20 DUP4 ADD DUP7 PUSH2 0x10A2 JUMP JUMPDEST PUSH2 0x11FD PUSH1 0x40 DUP4 ADD DUP6 PUSH2 0x10A2 JUMP JUMPDEST PUSH2 0x120A PUSH1 0x60 DUP4 ADD DUP5 PUSH2 0x10A2 JUMP JUMPDEST SWAP6 SWAP5 POP POP POP POP POP JUMP JUMPDEST PUSH0 DUP1 PUSH1 0x40 DUP4 DUP6 SUB SLT ISZERO PUSH2 0x1229 JUMPI PUSH2 0x1228 PUSH2 0x10CA JUMP JUMPDEST JUMPDEST PUSH0 PUSH2 0x1236 DUP6 DUP3 DUP7 ADD PUSH2 0x10E4 JUMP JUMPDEST SWAP3 POP POP PUSH1 0x20 PUSH2 0x1247 DUP6 DUP3 DUP7 ADD PUSH2 0x10E4 JUMP JUMPDEST SWAP2 POP POP SWAP3 POP SWAP3 SWAP1 POP JUMP JUMPDEST PUSH0 DUP3 DUP3 MSTORE PUSH1 0x20 DUP3 ADD SWAP1 POP SWAP3 SWAP2 POP POP JUMP JUMPDEST PUSH32 0x417563756E20707265742061637469662074726F757665000000000000000000 PUSH0 DUP3 ADD MSTORE POP JUMP JUMPDEST PUSH0 PUSH2 0x1295 PUSH1 0x17 DUP4 PUSH2 0x1251 JUMP JUMPDEST SWAP2 POP PUSH2 0x12A0 DUP3 PUSH2 0x1261 JUMP JUMPDEST PUSH1 0x20 DUP3 ADD SWAP1 POP SWAP2 SWAP1 POP JUMP JUMPDEST PUSH0 PUSH1 0x20 DUP3 ADD SWAP1 POP DUP2 DUP2 SUB PUSH0 DUP4 ADD MSTORE PUSH2 0x12C2 DUP2 PUSH2 0x1289 JUMP JUMPDEST SWAP1 POP SWAP2 SWAP1 POP JUMP JUMPDEST PUSH32 0x4E487B7100000000000000000000000000000000000000000000000000000000 PUSH0 MSTORE PUSH1 0x11 PUSH1 0x4 MSTORE PUSH1 0x24 PUSH0 REVERT JUMPDEST PUSH0 PUSH2 0x1300 DUP3 PUSH2 0x1099 JUMP JUMPDEST SWAP2 POP PUSH2 0x130B DUP4 PUSH2 0x1099 JUMP JUMPDEST SWAP3 POP DUP3 DUP3 MUL PUSH2 0x1319 DUP2 PUSH2 0x1099 JUMP JUMPDEST SWAP2 POP DUP3 DUP3 DIV DUP5 EQ DUP4 ISZERO OR PUSH2 0x1330 JUMPI PUSH2 0x132F PUSH2 0x12C9 JUMP JUMPDEST JUMPDEST POP SWAP3 SWAP2 POP POP JUMP JUMPDEST PUSH32 0x4E487B7100000000000000000000000000000000000000000000000000000000 PUSH0 MSTORE PUSH1 0x12 PUSH1 0x4 MSTORE PUSH1 0x24 PUSH0 REVERT JUMPDEST PUSH0 PUSH2 0x136E DUP3 PUSH2 0x1099 JUMP JUMPDEST SWAP2 POP PUSH2 0x1379 DUP4 PUSH2 0x1099 JUMP JUMPDEST SWAP3 POP DUP3 PUSH2 0x1389 JUMPI PUSH2 0x1388 PUSH2 0x1337 JUMP JUMPDEST JUMPDEST DUP3 DUP3 DIV SWAP1 POP SWAP3 SWAP2 POP POP JUMP JUMPDEST PUSH0 PUSH2 0x139E DUP3 PUSH2 0x1099 JUMP JUMPDEST SWAP2 POP PUSH2 0x13A9 DUP4 PUSH2 0x1099 JUMP JUMPDEST SWAP3 POP DUP3 DUP3 ADD SWAP1 POP DUP1 DUP3 GT ISZERO PUSH2 0x13C1 JUMPI PUSH2 0x13C0 PUSH2 0x12C9 JUMP JUMPDEST JUMPDEST SWAP3 SWAP2 POP POP JUMP JUMPDEST PUSH32 0x42616C616E636520696E737566666973616E7465000000000000000000000000 PUSH0 DUP3 ADD MSTORE POP JUMP JUMPDEST PUSH0 PUSH2 0x13FB PUSH1 0x14 DUP4 PUSH2 0x1251 JUMP JUMPDEST SWAP2 POP PUSH2 0x1406 DUP3 PUSH2 0x13C7 JUMP JUMPDEST PUSH1 0x20 DUP3 ADD SWAP1 POP SWAP2 SWAP1 POP JUMP JUMPDEST PUSH0 PUSH1 0x20 DUP3 ADD SWAP1 POP DUP2 DUP2 SUB PUSH0 DUP4 ADD MSTORE PUSH2 0x1428 DUP2 PUSH2 0x13EF JUMP JUMPDEST SWAP1 POP SWAP2 SWAP1 POP JUMP JUMPDEST PUSH32 0x56616C65757220706F7572206C61207472616E73616374696F6E20696E737566 PUSH0 DUP3 ADD MSTORE PUSH32 0x666973616E746500000000000000000000000000000000000000000000000000 PUSH1 0x20 DUP3 ADD MSTORE POP JUMP JUMPDEST PUSH0 PUSH2 0x1489 PUSH1 0x27 DUP4 PUSH2 0x1251 JUMP JUMPDEST SWAP2 POP PUSH2 0x1494 DUP3 PUSH2 0x142F JUMP JUMPDEST PUSH1 0x40 DUP3 ADD SWAP1 POP SWAP2 SWAP1 POP JUMP JUMPDEST PUSH0 PUSH1 0x20 DUP3 ADD SWAP1 POP DUP2 DUP2 SUB PUSH0 DUP4 ADD MSTORE PUSH2 0x14B6 DUP2 PUSH2 0x147D JUMP JUMPDEST SWAP1 POP SWAP2 SWAP1 POP JUMP JUMPDEST PUSH0 PUSH2 0x14C7 DUP3 PUSH2 0x1099 JUMP JUMPDEST SWAP2 POP PUSH0 DUP3 SUB PUSH2 0x14D9 JUMPI PUSH2 0x14D8 PUSH2 0x12C9 JUMP JUMPDEST JUMPDEST PUSH1 0x1 DUP3 SUB SWAP1 POP SWAP2 SWAP1 POP JUMP JUMPDEST PUSH32 0x4475726174696F6E206D7573742062652067726561746572207468616E203000 PUSH0 DUP3 ADD MSTORE POP JUMP JUMPDEST PUSH0 PUSH2 0x1518 PUSH1 0x1F DUP4 PUSH2 0x1251 JUMP JUMPDEST SWAP2 POP PUSH2 0x1523 DUP3 PUSH2 0x14E4 JUMP JUMPDEST PUSH1 0x20 DUP3 ADD SWAP1 POP SWAP2 SWAP1 POP JUMP JUMPDEST PUSH0 PUSH1 0x20 DUP3 ADD SWAP1 POP DUP2 DUP2 SUB PUSH0 DUP4 ADD MSTORE PUSH2 0x1545 DUP2 PUSH2 0x150C JUMP JUMPDEST SWAP1 POP SWAP2 SWAP1 POP JUMP JUMPDEST PUSH32 0x496E73756666696369656E742066756E647320746F206C656E64000000000000 PUSH0 DUP3 ADD MSTORE POP JUMP JUMPDEST PUSH0 PUSH2 0x1580 PUSH1 0x1A DUP4 PUSH2 0x1251 JUMP JUMPDEST SWAP2 POP PUSH2 0x158B DUP3 PUSH2 0x154C JUMP JUMPDEST PUSH1 0x20 DUP3 ADD SWAP1 POP SWAP2 SWAP1 POP JUMP JUMPDEST PUSH0 PUSH1 0x20 DUP3 ADD SWAP1 POP DUP2 DUP2 SUB PUSH0 DUP4 ADD MSTORE PUSH2 0x15AD DUP2 PUSH2 0x1574 JUMP JUMPDEST SWAP1 POP SWAP2 SWAP1 POP JUMP JUMPDEST PUSH32 0x416D6F756E74206D7573742062652067726561746572207468616E2030000000 PUSH0 DUP3 ADD MSTORE POP JUMP JUMPDEST PUSH0 PUSH2 0x15E8 PUSH1 0x1D DUP4 PUSH2 0x1251 JUMP JUMPDEST SWAP2 POP PUSH2 0x15F3 DUP3 PUSH2 0x15B4 JUMP JUMPDEST PUSH1 0x20 DUP3 ADD SWAP1 POP SWAP2 SWAP1 POP JUMP JUMPDEST PUSH0 PUSH1 0x20 DUP3 ADD SWAP1 POP DUP2 DUP2 SUB PUSH0 DUP4 ADD MSTORE PUSH2 0x1615 DUP2 PUSH2 0x15DC JUMP JUMPDEST SWAP1 POP SWAP2 SWAP1 POP JUMP JUMPDEST PUSH32 0x496E746572657374206D7573742062652067726561746572207468616E203000 PUSH0 DUP3 ADD MSTORE POP JUMP JUMPDEST PUSH0 PUSH2 0x1650 PUSH1 0x1F DUP4 PUSH2 0x1251 JUMP JUMPDEST SWAP2 POP PUSH2 0x165B DUP3 PUSH2 0x161C JUMP JUMPDEST PUSH1 0x20 DUP3 ADD SWAP1 POP SWAP2 SWAP1 POP JUMP JUMPDEST PUSH0 PUSH1 0x20 DUP3 ADD SWAP1 POP DUP2 DUP2 SUB PUSH0 DUP4 ADD MSTORE PUSH2 0x167D DUP2 PUSH2 0x1644 JUMP JUMPDEST SWAP1 POP SWAP2 SWAP1 POP JUMP JUMPDEST PUSH0 PUSH1 0x40 DUP3 ADD SWAP1 POP PUSH2 0x1697 PUSH0 DUP4 ADD DUP6 PUSH2 0x10A2 JUMP JUMPDEST PUSH2 0x16A4 PUSH1 0x20 DUP4 ADD DUP5 PUSH2 0x10A2 JUMP JUMPDEST SWAP4 SWAP3 POP POP POP JUMP JUMPDEST PUSH32 0x42616C616E636520636F6E7472617420696E737566666973616E746500000000 PUSH0 DUP3 ADD MSTORE POP JUMP JUMPDEST PUSH0 PUSH2 0x16DF PUSH1 0x1C DUP4 PUSH2 0x1251 JUMP JUMPDEST SWAP2 POP PUSH2 0x16EA DUP3 PUSH2 0x16AB JUMP JUMPDEST PUSH1 0x20 DUP3 ADD SWAP1 POP SWAP2 SWAP1 POP JUMP JUMPDEST PUSH0 PUSH1 0x20 DUP3 ADD SWAP1 POP DUP2 DUP2 SUB PUSH0 DUP4 ADD MSTORE PUSH2 0x170C DUP2 PUSH2 0x16D3 JUMP JUMPDEST SWAP1 POP SWAP2 SWAP1 POP JUMP JUMPDEST PUSH32 0x466F6E6420647520636F6E747261637420696E737566666973616E7400000000 PUSH0 DUP3 ADD MSTORE POP JUMP JUMPDEST PUSH0 PUSH2 0x1747 PUSH1 0x1C DUP4 PUSH2 0x1251 JUMP JUMPDEST SWAP2 POP PUSH2 0x1752 DUP3 PUSH2 0x1713 JUMP JUMPDEST PUSH1 0x20 DUP3 ADD SWAP1 POP SWAP2 SWAP1 POP JUMP JUMPDEST PUSH0 PUSH1 0x20 DUP3 ADD SWAP1 POP DUP2 DUP2 SUB PUSH0 DUP4 ADD MSTORE PUSH2 0x1774 DUP2 PUSH2 0x173B JUMP JUMPDEST SWAP1 POP SWAP2 SWAP1 POP JUMP JUMPDEST PUSH0 PUSH2 0x1785 DUP3 PUSH2 0x1099 JUMP JUMPDEST SWAP2 POP PUSH2 0x1790 DUP4 PUSH2 0x1099 JUMP JUMPDEST SWAP3 POP DUP3 DUP3 SUB SWAP1 POP DUP2 DUP2 GT ISZERO PUSH2 0x17A8 JUMPI PUSH2 0x17A7 PUSH2 0x12C9 JUMP JUMPDEST JUMPDEST SWAP3 SWAP2 POP POP JUMP JUMPDEST PUSH32 0x466F6E6420636F6E7472617420696E737566666973616E740000000000000000 PUSH0 DUP3 ADD MSTORE POP JUMP JUMPDEST PUSH0 PUSH2 0x17E2 PUSH1 0x18 DUP4 PUSH2 0x1251 JUMP JUMPDEST SWAP2 POP PUSH2 0x17ED DUP3 PUSH2 0x17AE JUMP JUMPDEST PUSH1 0x20 DUP3 ADD SWAP1 POP SWAP2 SWAP1 POP JUMP JUMPDEST PUSH0 PUSH1 0x20 DUP3 ADD SWAP1 POP DUP2 DUP2 SUB PUSH0 DUP4 ADD MSTORE PUSH2 0x180F DUP2 PUSH2 0x17D6 JUMP JUMPDEST SWAP1 POP SWAP2 SWAP1 POP JUMP JUMPDEST PUSH32 0x496E73756666696369656E742066756E647320746F20626F72726F7700000000 PUSH0 DUP3 ADD MSTORE POP JUMP JUMPDEST PUSH0 PUSH2 0x184A PUSH1 0x1C DUP4 PUSH2 0x1251 JUMP JUMPDEST SWAP2 POP PUSH2 0x1855 DUP3 PUSH2 0x1816 JUMP JUMPDEST PUSH1 0x20 DUP3 ADD SWAP1 POP SWAP2 SWAP1 POP JUMP JUMPDEST PUSH0 PUSH1 0x20 DUP3 ADD SWAP1 POP DUP2 DUP2 SUB PUSH0 DUP4 ADD MSTORE PUSH2 0x1877 DUP2 PUSH2 0x183E JUMP JUMPDEST SWAP1 POP SWAP2 SWAP1 POP JUMP INVALID LOG2 PUSH5 0x6970667358 0x22 SLT KECCAK256 0xD8 LOG2 0x4B CALLDATALOAD SWAP10 PUSH24 0xA62A661DD4ADA05EBEFBE6B18464DC5AEA51380D8EB7FA16 0xAF 0xCD PUSH5 0x736F6C6343 STOP ADDMOD NOT STOP CALLER "
				},
				"gasEstimates": {
					"creation": {
						"codeDepositCost": "1264800",
						"executionCost": "30583",
						"totalCost": "1295383"
					},
					"external": {
						"contractBalances()": "2425",
						"emprunterFonds(uint256,uint256)": "infinite",
						"emprunteur(address)": "infinite",
						"findInterestRate(uint256)": "infinite",
						"getContractBalance()": "2455",
						"getContractBalanceReelle()": "356",
						"investirFonds(uint256)": "infinite",
						"investisseur(address)": "infinite",
						"owner()": "2508",
						"rembouserEmprunt()": "infinite",
						"retourInvestissement()": "infinite"
					}
				},
				"methodIdentifiers": {
					"contractBalances()": "2163885a",
					"emprunterFonds(uint256,uint256)": "feabae58",
					"emprunteur(address)": "de4c1982",
					"findInterestRate(uint256)": "7341db60",
					"getContractBalance()": "6f9fb98a",
					"getContractBalanceReelle()": "97643fd7",
					"investirFonds(uint256)": "7c0c3602",
					"investisseur(address)": "cc336ee1",
					"owner()": "8da5cb5b",
					"rembouserEmprunt()": "704d914d",
					"retourInvestissement()": "ccbb629b"
				}
			},
			"storageLayout": {
				"storage": [
					{
						"astId": 4,
						"contract": "contracts/fructificateur.sol:fructificateur",
						"label": "contractBalances",
						"offset": 0,
						"slot": "0",
						"type": "t_uint256"
					},
					{
						"astId": 18,
						"contract": "contracts/fructificateur.sol:fructificateur",
						"label": "investisseur",
						"offset": 0,
						"slot": "1",
						"type": "t_mapping(t_address,t_struct(ValeurClient)13_storage)"
					},
					{
						"astId": 23,
						"contract": "contracts/fructificateur.sol:fructificateur",
						"label": "emprunteur",
						"offset": 0,
						"slot": "2",
						"type": "t_mapping(t_address,t_struct(ValeurClient)13_storage)"
					},
					{
						"astId": 25,
						"contract": "contracts/fructificateur.sol:fructificateur",
						"label": "owner",
						"offset": 0,
						"slot": "3",
						"type": "t_address"
					}
				],
				"types": {
					"t_address": {
						"encoding": "inplace",
						"label": "address",
						"numberOfBytes": "20"
					},
					"t_mapping(t_address,t_struct(ValeurClient)13_storage)": {
						"encoding": "mapping",
						"key": "t_address",
						"label": "mapping(address => struct fructificateur.ValeurClient)",
						"numberOfBytes": "32",
						"value": "t_struct(ValeurClient)13_storage"
					},
					"t_struct(ValeurClient)13_storage": {
						"encoding": "inplace",
						"label": "struct fructificateur.ValeurClient",
						"members": [
							{
								"astId": 6,
								"contract": "contracts/fructificateur.sol:fructificateur",
								"label": "montant",
								"offset": 0,
								"slot": "0",
								"type": "t_uint256"
							},
							{
								"astId": 8,
								"contract": "contracts/fructificateur.sol:fructificateur",
								"label": "duree",
								"offset": 0,
								"slot": "1",
								"type": "t_uint256"
							},
							{
								"astId": 10,
								"contract": "contracts/fructificateur.sol:fructificateur",
								"label": "dureeRestante",
								"offset": 0,
								"slot": "2",
								"type": "t_uint256"
							},
							{
								"astId": 12,
								"contract": "contracts/fructificateur.sol:fructificateur",
								"label": "tauxInteret",
								"offset": 0,
								"slot": "3",
								"type": "t_uint256"
							}
						],
						"numberOfBytes": "128"
					},
					"t_uint256": {
						"encoding": "inplace",
						"label": "uint256",
						"numberOfBytes": "32"
					}
				}
			},
			"userdoc": {
				"kind": "user",
				"methods": {},
				"version": 1
			}
		}
	}
}