{
	"data": {
		"bytecode": {
			"linkReferences": {},
			"object": "60806040525f80553480156011575f80fd5b503360035f6101000a81548173ffffffffffffffffffffffffffffffffffffffff021916908373ffffffffffffffffffffffffffffffffffffffff1602179055506118b48061005f5f395ff3fe60806040526004361061009b575f3560e01c80638da5cb5b116100635780638da5cb5b1461015557806397643fd71461017f578063cc336ee1146101a9578063ccbb629b146101e8578063de4c1982146101f2578063feabae58146102315761009b565b80632163885a1461009f5780636f9fb98a146100c9578063704d914d146100f35780637341db60146100fd5780637c0c360214610139575b5f80fd5b3480156100aa575f80fd5b506100b361024d565b6040516100c091906110b1565b60405180910390f35b3480156100d4575f80fd5b506100dd610252565b6040516100ea91906110b1565b60405180910390f35b6100fb61025a565b005b348015610108575f80fd5b50610123600480360381019061011e91906110f8565b6105bf565b60405161013091906110b1565b60405180910390f35b610153600480360381019061014e91906110f8565b610634565b005b348015610160575f80fd5b5061016961091b565b6040516101769190611162565b60405180910390f35b34801561018a575f80fd5b50610193610940565b6040516101a091906110b1565b60405180910390f35b3480156101b4575f80fd5b506101cf60048036038101906101ca91906111a5565b610947565b6040516101df94939291906111d0565b60405180910390f35b6101f0610973565b005b3480156101fd575f80fd5b50610218600480360381019061021391906111a5565b610d01565b60405161022894939291906111d0565b60405180910390f35b61024b60048036038101906102469190611213565b610d2d565b005b5f5481565b5f8054905090565b5f60025f3373ffffffffffffffffffffffffffffffffffffffff1673ffffffffffffffffffffffffffffffffffffffff1681526020019081526020015f2060020154116102dc576040517f08c379a00000000000000000000000000000000000000000000000000000000081526004016102d3906112ab565b60405180910390fd5b5f3490505f60025f3373ffffffffffffffffffffffffffffffffffffffff1673ffffffffffffffffffffffffffffffffffffffff1681526020019081526020015f2060010154606460025f3373ffffffffffffffffffffffffffffffffffffffff1673ffffffffffffffffffffffffffffffffffffffff1681526020019081526020015f206003015460025f3373ffffffffffffffffffffffffffffffffffffffff1673ffffffffffffffffffffffffffffffffffffffff1681526020019081526020015f205f01546103af91906112f6565b6103b99190611364565b60025f3373ffffffffffffffffffffffffffffffffffffffff1673ffffffffffffffffffffffffffffffffffffffff1681526020019081526020015f205f01546104039190611394565b61040d9190611364565b90503373ffffffffffffffffffffffffffffffffffffffff1631811115610469576040517f08c379a000000000000000000000000000000000000000000000000000000000815260040161046090611411565b60405180910390fd5b818111156104ac576040517f08c379a00000000000000000000000000000000000000000000000000000000081526004016104a39061149f565b60405180910390fd5b805f808282546104bc9190611394565b9250508190555060025f3373ffffffffffffffffffffffffffffffffffffffff1673ffffffffffffffffffffffffffffffffffffffff1681526020019081526020015f206002015f815480929190610513906114bd565b91905055505f60025f3373ffffffffffffffffffffffffffffffffffffffff1673ffffffffffffffffffffffffffffffffffffffff1681526020019081526020015f2060020154036105bb5760025f3373ffffffffffffffffffffffffffffffffffffffff1673ffffffffffffffffffffffffffffffffffffffff1681526020019081526020015f205f8082015f9055600182015f9055600282015f9055600382015f905550505b5050565b5f808211610602576040517f08c379a00000000000000000000000000000000000000000000000000000000081526004016105f99061152e565b60405180910390fd5b5f60068311610614576005905061062b565b600c8311610625576008905061062a565b600a90505b5b80915050919050565b5f3490503373ffffffffffffffffffffffffffffffffffffffff1631811115610692576040517f08c379a000000000000000000000000000000000000000000000000000000000815260040161068990611596565b60405180910390fd5b5f81116106d4576040517f08c379a00000000000000000000000000000000000000000000000000000000081526004016106cb906115fe565b60405180910390fd5b5f8211610716576040517f08c379a000000000000000000000000000000000000000000000000000000000815260040161070d9061152e565b60405180910390fd5b5f610720836105bf565b90505f606482858561073291906112f6565b61073c91906112f6565b6107469190611364565b90505f811161078a576040517f08c379a000000000000000000000000000000000000000000000000000000000815260040161078190611666565b60405180910390fd5b825f8082825461079a9190611394565b925050819055508260015f3373ffffffffffffffffffffffffffffffffffffffff1673ffffffffffffffffffffffffffffffffffffffff1681526020019081526020015f205f015f8282546107ef9190611394565b925050819055508360015f3373ffffffffffffffffffffffffffffffffffffffff1673ffffffffffffffffffffffffffffffffffffffff1681526020019081526020015f20600101819055508360015f3373ffffffffffffffffffffffffffffffffffffffff1673ffffffffffffffffffffffffffffffffffffffff1681526020019081526020015f20600201819055508160015f3373ffffffffffffffffffffffffffffffffffffffff1673ffffffffffffffffffffffffffffffffffffffff1681526020019081526020015f20600301819055503373ffffffffffffffffffffffffffffffffffffffff167f1f4fa8bbaa124ef8d04466f13d5a2572fb712424cee0bc9cf430aec52439acd7848660405161090d929190611684565b60405180910390a250505050565b60035f9054906101000a900473ffffffffffffffffffffffffffffffffffffffff1681565b5f47905090565b6001602052805f5260405f205f91509050805f0154908060010154908060020154908060030154905084565b5f60015f3373ffffffffffffffffffffffffffffffffffffffff1673ffffffffffffffffffffffffffffffffffffffff1681526020019081526020015f2060020154116109f5576040517f08c379a00000000000000000000000000000000000000000000000000000000081526004016109ec906112ab565b60405180910390fd5b5f60015f3373ffffffffffffffffffffffffffffffffffffffff1673ffffffffffffffffffffffffffffffffffffffff1681526020019081526020015f2060010154606460015f3373ffffffffffffffffffffffffffffffffffffffff1673ffffffffffffffffffffffffffffffffffffffff1681526020019081526020015f206003015460015f3373ffffffffffffffffffffffffffffffffffffffff1673ffffffffffffffffffffffffffffffffffffffff1681526020019081526020015f205f0154610ac491906112f6565b610ace9190611364565b60015f3373ffffffffffffffffffffffffffffffffffffffff1673ffffffffffffffffffffffffffffffffffffffff1681526020019081526020015f205f0154610b189190611394565b610b229190611364565b9050805f541015610b68576040517f08c379a0000000000000000000000000000000000000000000000000000000008152600401610b5f906116f5565b60405180910390fd5b80471015610bab576040517f08c379a0000000000000000000000000000000000000000000000000000000008152600401610ba29061175d565b60405180910390fd5b3373ffffffffffffffffffffffffffffffffffffffff166108fc8290811502906040515f60405180830381858888f19350505050158015610bee573d5f803e3d5ffd5b5060015f3373ffffffffffffffffffffffffffffffffffffffff1673ffffffffffffffffffffffffffffffffffffffff1681526020019081526020015f206002015f815480929190610c3f906114bd565b9190505550805f80828254610c54919061177b565b925050819055505f60015f3373ffffffffffffffffffffffffffffffffffffffff1673ffffffffffffffffffffffffffffffffffffffff1681526020019081526020015f206002015403610cfe5760015f3373ffffffffffffffffffffffffffffffffffffffff1673ffffffffffffffffffffffffffffffffffffffff1681526020019081526020015f205f8082015f9055600182015f9055600282015f9055600382015f905550505b50565b6002602052805f5260405f205f91509050805f0154908060010154908060020154908060030154905084565b5f8211610d6f576040517f08c379a0000000000000000000000000000000000000000000000000000000008152600401610d66906115fe565b60405180910390fd5b5f8111610db1576040517f08c379a0000000000000000000000000000000000000000000000000000000008152600401610da89061152e565b60405180910390fd5b815f541015610df5576040517f08c379a0000000000000000000000000000000000000000000000000000000008152600401610dec906116f5565b60405180910390fd5b81471015610e38576040517f08c379a0000000000000000000000000000000000000000000000000000000008152600401610e2f906117f8565b60405180910390fd5b5f610e42826105bf565b90505f6064828486610e5491906112f6565b610e5e91906112f6565b610e689190611364565b9050803373ffffffffffffffffffffffffffffffffffffffff16311015610ec4576040517f08c379a0000000000000000000000000000000000000000000000000000000008152600401610ebb90611860565b60405180910390fd5b3373ffffffffffffffffffffffffffffffffffffffff166108fc8590811502906040515f60405180830381858888f19350505050158015610f07573d5f803e3d5ffd5b50835f80828254610f18919061177b565b925050819055508360025f3373ffffffffffffffffffffffffffffffffffffffff1673ffffffffffffffffffffffffffffffffffffffff1681526020019081526020015f205f015f828254610f6d9190611394565b925050819055508260025f3373ffffffffffffffffffffffffffffffffffffffff1673ffffffffffffffffffffffffffffffffffffffff1681526020019081526020015f20600101819055508260025f3373ffffffffffffffffffffffffffffffffffffffff1673ffffffffffffffffffffffffffffffffffffffff1681526020019081526020015f20600201819055508160025f3373ffffffffffffffffffffffffffffffffffffffff1673ffffffffffffffffffffffffffffffffffffffff1681526020019081526020015f20600301819055503373ffffffffffffffffffffffffffffffffffffffff167f1f4fa8bbaa124ef8d04466f13d5a2572fb712424cee0bc9cf430aec52439acd7858560405161108b929190611684565b60405180910390a250505050565b5f819050919050565b6110ab81611099565b82525050565b5f6020820190506110c45f8301846110a2565b92915050565b5f80fd5b6110d781611099565b81146110e1575f80fd5b50565b5f813590506110f2816110ce565b92915050565b5f6020828403121561110d5761110c6110ca565b5b5f61111a848285016110e4565b91505092915050565b5f73ffffffffffffffffffffffffffffffffffffffff82169050919050565b5f61114c82611123565b9050919050565b61115c81611142565b82525050565b5f6020820190506111755f830184611153565b92915050565b61118481611142565b811461118e575f80fd5b50565b5f8135905061119f8161117b565b92915050565b5f602082840312156111ba576111b96110ca565b5b5f6111c784828501611191565b91505092915050565b5f6080820190506111e35f8301876110a2565b6111f060208301866110a2565b6111fd60408301856110a2565b61120a60608301846110a2565b95945050505050565b5f8060408385031215611229576112286110ca565b5b5f611236858286016110e4565b9250506020611247858286016110e4565b9150509250929050565b5f82825260208201905092915050565b7f417563756e20707265742061637469662074726f7576650000000000000000005f82015250565b5f611295601783611251565b91506112a082611261565b602082019050919050565b5f6020820190508181035f8301526112c281611289565b9050919050565b7f4e487b71000000000000000000000000000000000000000000000000000000005f52601160045260245ffd5b5f61130082611099565b915061130b83611099565b925082820261131981611099565b915082820484148315176113305761132f6112c9565b5b5092915050565b7f4e487b71000000000000000000000000000000000000000000000000000000005f52601260045260245ffd5b5f61136e82611099565b915061137983611099565b92508261138957611388611337565b5b828204905092915050565b5f61139e82611099565b91506113a983611099565b92508282019050808211156113c1576113c06112c9565b5b92915050565b7f42616c616e636520696e737566666973616e74650000000000000000000000005f82015250565b5f6113fb601483611251565b9150611406826113c7565b602082019050919050565b5f6020820190508181035f830152611428816113ef565b9050919050565b7f56616c65757220706f7572206c61207472616e73616374696f6e20696e7375665f8201527f666973616e746500000000000000000000000000000000000000000000000000602082015250565b5f611489602783611251565b91506114948261142f565b604082019050919050565b5f6020820190508181035f8301526114b68161147d565b9050919050565b5f6114c782611099565b91505f82036114d9576114d86112c9565b5b600182039050919050565b7f4475726174696f6e206d7573742062652067726561746572207468616e2030005f82015250565b5f611518601f83611251565b9150611523826114e4565b602082019050919050565b5f6020820190508181035f8301526115458161150c565b9050919050565b7f496e73756666696369656e742066756e647320746f206c656e640000000000005f82015250565b5f611580601a83611251565b915061158b8261154c565b602082019050919050565b5f6020820190508181035f8301526115ad81611574565b9050919050565b7f416d6f756e74206d7573742062652067726561746572207468616e20300000005f82015250565b5f6115e8601d83611251565b91506115f3826115b4565b602082019050919050565b5f6020820190508181035f830152611615816115dc565b9050919050565b7f496e746572657374206d7573742062652067726561746572207468616e2030005f82015250565b5f611650601f83611251565b915061165b8261161c565b602082019050919050565b5f6020820190508181035f83015261167d81611644565b9050919050565b5f6040820190506116975f8301856110a2565b6116a460208301846110a2565b9392505050565b7f42616c616e636520636f6e7472617420696e737566666973616e7465000000005f82015250565b5f6116df601c83611251565b91506116ea826116ab565b602082019050919050565b5f6020820190508181035f83015261170c816116d3565b9050919050565b7f466f6e6420647520636f6e747261637420696e737566666973616e74000000005f82015250565b5f611747601c83611251565b915061175282611713565b602082019050919050565b5f6020820190508181035f8301526117748161173b565b9050919050565b5f61178582611099565b915061179083611099565b92508282039050818111156117a8576117a76112c9565b5b92915050565b7f466f6e6420636f6e7472617420696e737566666973616e7400000000000000005f82015250565b5f6117e2601883611251565b91506117ed826117ae565b602082019050919050565b5f6020820190508181035f83015261180f816117d6565b9050919050565b7f496e73756666696369656e742066756e647320746f20626f72726f77000000005f82015250565b5f61184a601c83611251565b915061185582611816565b602082019050919050565b5f6020820190508181035f8301526118778161183e565b905091905056fea2646970667358221220d8a24b359977a62a661dd4ada05ebefbe6b18464dc5aea51380d8eb7fa16afcd64736f6c63430008190033",
			"opcodes": "PUSH1 0x80 PUSH1 0x40 MSTORE PUSH0 DUP1 SSTORE CALLVALUE DUP1 ISZERO PUSH1 0x11 JUMPI PUSH0 DUP1 REVERT JUMPDEST POP CALLER PUSH1 0x3 PUSH0 PUSH2 0x100 EXP DUP2 SLOAD DUP2 PUSH20 0xFFFFFFFFFFFFFFFFFFFFFFFFFFFFFFFFFFFFFFFF MUL NOT AND SWAP1 DUP4 PUSH20 0xFFFFFFFFFFFFFFFFFFFFFFFFFFFFFFFFFFFFFFFF AND MUL OR SWAP1 SSTORE POP PUSH2 0x18B4 DUP1 PUSH2 0x5F PUSH0 CODECOPY PUSH0 RETURN INVALID PUSH1 0x80 PUSH1 0x40 MSTORE PUSH1 0x4 CALLDATASIZE LT PUSH2 0x9B JUMPI PUSH0 CALLDATALOAD PUSH1 0xE0 SHR DUP1 PUSH4 0x8DA5CB5B GT PUSH2 0x63 JUMPI DUP1 PUSH4 0x8DA5CB5B EQ PUSH2 0x155 JUMPI DUP1 PUSH4 0x97643FD7 EQ PUSH2 0x17F JUMPI DUP1 PUSH4 0xCC336EE1 EQ PUSH2 0x1A9 JUMPI DUP1 PUSH4 0xCCBB629B EQ PUSH2 0x1E8 JUMPI DUP1 PUSH4 0xDE4C1982 EQ PUSH2 0x1F2 JUMPI DUP1 PUSH4 0xFEABAE58 EQ PUSH2 0x231 JUMPI PUSH2 0x9B JUMP JUMPDEST DUP1 PUSH4 0x2163885A EQ PUSH2 0x9F JUMPI DUP1 PUSH4 0x6F9FB98A EQ PUSH2 0xC9 JUMPI DUP1 PUSH4 0x704D914D EQ PUSH2 0xF3 JUMPI DUP1 PUSH4 0x7341DB60 EQ PUSH2 0xFD JUMPI DUP1 PUSH4 0x7C0C3602 EQ PUSH2 0x139 JUMPI JUMPDEST PUSH0 DUP1 REVERT JUMPDEST CALLVALUE DUP1 ISZERO PUSH2 0xAA JUMPI PUSH0 DUP1 REVERT JUMPDEST POP PUSH2 0xB3 PUSH2 0x24D JUMP JUMPDEST PUSH1 0x40 MLOAD PUSH2 0xC0 SWAP2 SWAP1 PUSH2 0x10B1 JUMP JUMPDEST PUSH1 0x40 MLOAD DUP1 SWAP2 SUB SWAP1 RETURN JUMPDEST CALLVALUE DUP1 ISZERO PUSH2 0xD4 JUMPI PUSH0 DUP1 REVERT JUMPDEST POP PUSH2 0xDD PUSH2 0x252 JUMP JUMPDEST PUSH1 0x40 MLOAD PUSH2 0xEA SWAP2 SWAP1 PUSH2 0x10B1 JUMP JUMPDEST PUSH1 0x40 MLOAD DUP1 SWAP2 SUB SWAP1 RETURN JUMPDEST PUSH2 0xFB PUSH2 0x25A JUMP JUMPDEST STOP JUMPDEST CALLVALUE DUP1 ISZERO PUSH2 0x108 JUMPI PUSH0 DUP1 REVERT JUMPDEST POP PUSH2 0x123 PUSH1 0x4 DUP1 CALLDATASIZE SUB DUP2 ADD SWAP1 PUSH2 0x11E SWAP2 SWAP1 PUSH2 0x10F8 JUMP JUMPDEST PUSH2 0x5BF JUMP JUMPDEST PUSH1 0x40 MLOAD PUSH2 0x130 SWAP2 SWAP1 PUSH2 0x10B1 JUMP JUMPDEST PUSH1 0x40 MLOAD DUP1 SWAP2 SUB SWAP1 RETURN JUMPDEST PUSH2 0x153 PUSH1 0x4 DUP1 CALLDATASIZE SUB DUP2 ADD SWAP1 PUSH2 0x14E SWAP2 SWAP1 PUSH2 0x10F8 JUMP JUMPDEST PUSH2 0x634 JUMP JUMPDEST STOP JUMPDEST CALLVALUE DUP1 ISZERO PUSH2 0x160 JUMPI PUSH0 DUP1 REVERT JUMPDEST POP PUSH2 0x169 PUSH2 0x91B JUMP JUMPDEST PUSH1 0x40 MLOAD PUSH2 0x176 SWAP2 SWAP1 PUSH2 0x1162 JUMP JUMPDEST PUSH1 0x40 MLOAD DUP1 SWAP2 SUB SWAP1 RETURN JUMPDEST CALLVALUE DUP1 ISZERO PUSH2 0x18A JUMPI PUSH0 DUP1 REVERT JUMPDEST POP PUSH2 0x193 PUSH2 0x940 JUMP JUMPDEST PUSH1 0x40 MLOAD PUSH2 0x1A0 SWAP2 SWAP1 PUSH2 0x10B1 JUMP JUMPDEST PUSH1 0x40 MLOAD DUP1 SWAP2 SUB SWAP1 RETURN JUMPDEST CALLVALUE DUP1 ISZERO PUSH2 0x1B4 JUMPI PUSH0 DUP1 REVERT JUMPDEST POP PUSH2 0x1CF PUSH1 0x4 DUP1 CALLDATASIZE SUB DUP2 ADD SWAP1 PUSH2 0x1CA SWAP2 SWAP1 PUSH2 0x11A5 JUMP JUMPDEST PUSH2 0x947 JUMP JUMPDEST PUSH1 0x40 MLOAD PUSH2 0x1DF SWAP5 SWAP4 SWAP3 SWAP2 SWAP1 PUSH2 0x11D0 JUMP JUMPDEST PUSH1 0x40 MLOAD DUP1 SWAP2 SUB SWAP1 RETURN JUMPDEST PUSH2 0x1F0 PUSH2 0x973 JUMP JUMPDEST STOP JUMPDEST CALLVALUE DUP1 ISZERO PUSH2 0x1FD JUMPI PUSH0 DUP1 REVERT JUMPDEST POP PUSH2 0x218 PUSH1 0x4 DUP1 CALLDATASIZE SUB DUP2 ADD SWAP1 PUSH2 0x213 SWAP2 SWAP1 PUSH2 0x11A5 JUMP JUMPDEST PUSH2 0xD01 JUMP JUMPDEST PUSH1 0x40 MLOAD PUSH2 0x228 SWAP5 SWAP4 SWAP3 SWAP2 SWAP1 PUSH2 0x11D0 JUMP JUMPDEST PUSH1 0x40 MLOAD DUP1 SWAP2 SUB SWAP1 RETURN JUMPDEST PUSH2 0x24B PUSH1 0x4 DUP1 CALLDATASIZE SUB DUP2 ADD SWAP1 PUSH2 0x246 SWAP2 SWAP1 PUSH2 0x1213 JUMP JUMPDEST PUSH2 0xD2D JUMP JUMPDEST STOP JUMPDEST PUSH0 SLOAD DUP2 JUMP JUMPDEST PUSH0 DUP1 SLOAD SWAP1 POP SWAP1 JUMP JUMPDEST PUSH0 PUSH1 0x2 PUSH0 CALLER PUSH20 0xFFFFFFFFFFFFFFFFFFFFFFFFFFFFFFFFFFFFFFFF AND PUSH20 0xFFFFFFFFFFFFFFFFFFFFFFFFFFFFFFFFFFFFFFFF AND DUP2 MSTORE PUSH1 0x20 ADD SWAP1 DUP2 MSTORE PUSH1 0x20 ADD PUSH0 KECCAK256 PUSH1 0x2 ADD SLOAD GT PUSH2 0x2DC JUMPI PUSH1 0x40 MLOAD PUSH32 0x8C379A000000000000000000000000000000000000000000000000000000000 DUP2 MSTORE PUSH1 0x4 ADD PUSH2 0x2D3 SWAP1 PUSH2 0x12AB JUMP JUMPDEST PUSH1 0x40 MLOAD DUP1 SWAP2 SUB SWAP1 REVERT JUMPDEST PUSH0 CALLVALUE SWAP1 POP PUSH0 PUSH1 0x2 PUSH0 CALLER PUSH20 0xFFFFFFFFFFFFFFFFFFFFFFFFFFFFFFFFFFFFFFFF AND PUSH20 0xFFFFFFFFFFFFFFFFFFFFFFFFFFFFFFFFFFFFFFFF AND DUP2 MSTORE PUSH1 0x20 ADD SWAP1 DUP2 MSTORE PUSH1 0x20 ADD PUSH0 KECCAK256 PUSH1 0x1 ADD SLOAD PUSH1 0x64 PUSH1 0x2 PUSH0 CALLER PUSH20 0xFFFFFFFFFFFFFFFFFFFFFFFFFFFFFFFFFFFFFFFF AND PUSH20 0xFFFFFFFFFFFFFFFFFFFFFFFFFFFFFFFFFFFFFFFF AND DUP2 MSTORE PUSH1 0x20 ADD SWAP1 DUP2 MSTORE PUSH1 0x20 ADD PUSH0 KECCAK256 PUSH1 0x3 ADD SLOAD PUSH1 0x2 PUSH0 CALLER PUSH20 0xFFFFFFFFFFFFFFFFFFFFFFFFFFFFFFFFFFFFFFFF AND PUSH20 0xFFFFFFFFFFFFFFFFFFFFFFFFFFFFFFFFFFFFFFFF AND DUP2 MSTORE PUSH1 0x20 ADD SWAP1 DUP2 MSTORE PUSH1 0x20 ADD PUSH0 KECCAK256 PUSH0 ADD SLOAD PUSH2 0x3AF SWAP2 SWAP1 PUSH2 0x12F6 JUMP JUMPDEST PUSH2 0x3B9 SWAP2 SWAP1 PUSH2 0x1364 JUMP JUMPDEST PUSH1 0x2 PUSH0 CALLER PUSH20 0xFFFFFFFFFFFFFFFFFFFFFFFFFFFFFFFFFFFFFFFF AND PUSH20 0xFFFFFFFFFFFFFFFFFFFFFFFFFFFFFFFFFFFFFFFF AND DUP2 MSTORE PUSH1 0x20 ADD SWAP1 DUP2 MSTORE PUSH1 0x20 ADD PUSH0 KECCAK256 PUSH0 ADD SLOAD PUSH2 0x403 SWAP2 SWAP1 PUSH2 0x1394 JUMP JUMPDEST PUSH2 0x40D SWAP2 SWAP1 PUSH2 0x1364 JUMP JUMPDEST SWAP1 POP CALLER PUSH20 0xFFFFFFFFFFFFFFFFFFFFFFFFFFFFFFFFFFFFFFFF AND BALANCE DUP2 GT ISZERO PUSH2 0x469 JUMPI PUSH1 0x40 MLOAD PUSH32 0x8C379A000000000000000000000000000000000000000000000000000000000 DUP2 MSTORE PUSH1 0x4 ADD PUSH2 0x460 SWAP1 PUSH2 0x1411 JUMP JUMPDEST PUSH1 0x40 MLOAD DUP1 SWAP2 SUB SWAP1 REVERT JUMPDEST DUP2 DUP2 GT ISZERO PUSH2 0x4AC JUMPI PUSH1 0x40 MLOAD PUSH32 0x8C379A000000000000000000000000000000000000000000000000000000000 DUP2 MSTORE PUSH1 0x4 ADD PUSH2 0x4A3 SWAP1 PUSH2 0x149F JUMP JUMPDEST PUSH1 0x40 MLOAD DUP1 SWAP2 SUB SWAP1 REVERT JUMPDEST DUP1 PUSH0 DUP1 DUP3 DUP3 SLOAD PUSH2 0x4BC SWAP2 SWAP1 PUSH2 0x1394 JUMP JUMPDEST SWAP3 POP POP DUP2 SWAP1 SSTORE POP PUSH1 0x2 PUSH0 CALLER PUSH20 0xFFFFFFFFFFFFFFFFFFFFFFFFFFFFFFFFFFFFFFFF AND PUSH20 0xFFFFFFFFFFFFFFFFFFFFFFFFFFFFFFFFFFFFFFFF AND DUP2 MSTORE PUSH1 0x20 ADD SWAP1 DUP2 MSTORE PUSH1 0x20 ADD PUSH0 KECCAK256 PUSH1 0x2 ADD PUSH0 DUP2 SLOAD DUP1 SWAP3 SWAP2 SWAP1 PUSH2 0x513 SWAP1 PUSH2 0x14BD JUMP JUMPDEST SWAP2 SWAP1 POP SSTORE POP PUSH0 PUSH1 0x2 PUSH0 CALLER PUSH20 0xFFFFFFFFFFFFFFFFFFFFFFFFFFFFFFFFFFFFFFFF AND PUSH20 0xFFFFFFFFFFFFFFFFFFFFFFFFFFFFFFFFFFFFFFFF AND DUP2 MSTORE PUSH1 0x20 ADD SWAP1 DUP2 MSTORE PUSH1 0x20 ADD PUSH0 KECCAK256 PUSH1 0x2 ADD SLOAD SUB PUSH2 0x5BB JUMPI PUSH1 0x2 PUSH0 CALLER PUSH20 0xFFFFFFFFFFFFFFFFFFFFFFFFFFFFFFFFFFFFFFFF AND PUSH20 0xFFFFFFFFFFFFFFFFFFFFFFFFFFFFFFFFFFFFFFFF AND DUP2 MSTORE PUSH1 0x20 ADD SWAP1 DUP2 MSTORE PUSH1 0x20 ADD PUSH0 KECCAK256 PUSH0 DUP1 DUP3 ADD PUSH0 SWAP1 SSTORE PUSH1 0x1 DUP3 ADD PUSH0 SWAP1 SSTORE PUSH1 0x2 DUP3 ADD PUSH0 SWAP1 SSTORE PUSH1 0x3 DUP3 ADD PUSH0 SWAP1 SSTORE POP POP JUMPDEST POP POP JUMP JUMPDEST PUSH0 DUP1 DUP3 GT PUSH2 0x602 JUMPI PUSH1 0x40 MLOAD PUSH32 0x8C379A000000000000000000000000000000000000000000000000000000000 DUP2 MSTORE PUSH1 0x4 ADD PUSH2 0x5F9 SWAP1 PUSH2 0x152E JUMP JUMPDEST PUSH1 0x40 MLOAD DUP1 SWAP2 SUB SWAP1 REVERT JUMPDEST PUSH0 PUSH1 0x6 DUP4 GT PUSH2 0x614 JUMPI PUSH1 0x5 SWAP1 POP PUSH2 0x62B JUMP JUMPDEST PUSH1 0xC DUP4 GT PUSH2 0x625 JUMPI PUSH1 0x8 SWAP1 POP PUSH2 0x62A JUMP JUMPDEST PUSH1 0xA SWAP1 POP JUMPDEST JUMPDEST DUP1 SWAP2 POP POP SWAP2 SWAP1 POP JUMP JUMPDEST PUSH0 CALLVALUE SWAP1 POP CALLER PUSH20 0xFFFFFFFFFFFFFFFFFFFFFFFFFFFFFFFFFFFFFFFF AND BALANCE DUP2 GT ISZERO PUSH2 0x692 JUMPI PUSH1 0x40 MLOAD PUSH32 0x8C379A000000000000000000000000000000000000000000000000000000000 DUP2 MSTORE PUSH1 0x4 ADD PUSH2 0x689 SWAP1 PUSH2 0x1596 JUMP JUMPDEST PUSH1 0x40 MLOAD DUP1 SWAP2 SUB SWAP1 REVERT JUMPDEST PUSH0 DUP2 GT PUSH2 0x6D4 JUMPI PUSH1 0x40 MLOAD PUSH32 0x8C379A000000000000000000000000000000000000000000000000000000000 DUP2 MSTORE PUSH1 0x4 ADD PUSH2 0x6CB SWAP1 PUSH2 0x15FE JUMP JUMPDEST PUSH1 0x40 MLOAD DUP1 SWAP2 SUB SWAP1 REVERT JUMPDEST PUSH0 DUP3 GT PUSH2 0x716 JUMPI PUSH1 0x40 MLOAD PUSH32 0x8C379A000000000000000000000000000000000000000000000000000000000 DUP2 MSTORE PUSH1 0x4 ADD PUSH2 0x70D SWAP1 PUSH2 0x152E JUMP JUMPDEST PUSH1 0x40 MLOAD DUP1 SWAP2 SUB SWAP1 REVERT JUMPDEST PUSH0 PUSH2 0x720 DUP4 PUSH2 0x5BF JUMP JUMPDEST SWAP1 POP PUSH0 PUSH1 0x64 DUP3 DUP6 DUP6 PUSH2 0x732 SWAP2 SWAP1 PUSH2 0x12F6 JUMP JUMPDEST PUSH2 0x73C SWAP2 SWAP1 PUSH2 0x12F6 JUMP JUMPDEST PUSH2 0x746 SWAP2 SWAP1 PUSH2 0x1364 JUMP JUMPDEST SWAP1 POP PUSH0 DUP2 GT PUSH2 0x78A JUMPI PUSH1 0x40 MLOAD PUSH32 0x8C379A000000000000000000000000000000000000000000000000000000000 DUP2 MSTORE PUSH1 0x4 ADD PUSH2 0x781 SWAP1 PUSH2 0x1666 JUMP JUMPDEST PUSH1 0x40 MLOAD DUP1 SWAP2 SUB SWAP1 REVERT JUMPDEST DUP3 PUSH0 DUP1 DUP3 DUP3 SLOAD PUSH2 0x79A SWAP2 SWAP1 PUSH2 0x1394 JUMP JUMPDEST SWAP3 POP POP DUP2 SWAP1 SSTORE POP DUP3 PUSH1 0x1 PUSH0 CALLER PUSH20 0xFFFFFFFFFFFFFFFFFFFFFFFFFFFFFFFFFFFFFFFF AND PUSH20 0xFFFFFFFFFFFFFFFFFFFFFFFFFFFFFFFFFFFFFFFF AND DUP2 MSTORE PUSH1 0x20 ADD SWAP1 DUP2 MSTORE PUSH1 0x20 ADD PUSH0 KECCAK256 PUSH0 ADD PUSH0 DUP3 DUP3 SLOAD PUSH2 0x7EF SWAP2 SWAP1 PUSH2 0x1394 JUMP JUMPDEST SWAP3 POP POP DUP2 SWAP1 SSTORE POP DUP4 PUSH1 0x1 PUSH0 CALLER PUSH20 0xFFFFFFFFFFFFFFFFFFFFFFFFFFFFFFFFFFFFFFFF AND PUSH20 0xFFFFFFFFFFFFFFFFFFFFFFFFFFFFFFFFFFFFFFFF AND DUP2 MSTORE PUSH1 0x20 ADD SWAP1 DUP2 MSTORE PUSH1 0x20 ADD PUSH0 KECCAK256 PUSH1 0x1 ADD DUP2 SWAP1 SSTORE POP DUP4 PUSH1 0x1 PUSH0 CALLER PUSH20 0xFFFFFFFFFFFFFFFFFFFFFFFFFFFFFFFFFFFFFFFF AND PUSH20 0xFFFFFFFFFFFFFFFFFFFFFFFFFFFFFFFFFFFFFFFF AND DUP2 MSTORE PUSH1 0x20 ADD SWAP1 DUP2 MSTORE PUSH1 0x20 ADD PUSH0 KECCAK256 PUSH1 0x2 ADD DUP2 SWAP1 SSTORE POP DUP2 PUSH1 0x1 PUSH0 CALLER PUSH20 0xFFFFFFFFFFFFFFFFFFFFFFFFFFFFFFFFFFFFFFFF AND PUSH20 0xFFFFFFFFFFFFFFFFFFFFFFFFFFFFFFFFFFFFFFFF AND DUP2 MSTORE PUSH1 0x20 ADD SWAP1 DUP2 MSTORE PUSH1 0x20 ADD PUSH0 KECCAK256 PUSH1 0x3 ADD DUP2 SWAP1 SSTORE POP CALLER PUSH20 0xFFFFFFFFFFFFFFFFFFFFFFFFFFFFFFFFFFFFFFFF AND PUSH32 0x1F4FA8BBAA124EF8D04466F13D5A2572FB712424CEE0BC9CF430AEC52439ACD7 DUP5 DUP7 PUSH1 0x40 MLOAD PUSH2 0x90D SWAP3 SWAP2 SWAP1 PUSH2 0x1684 JUMP JUMPDEST PUSH1 0x40 MLOAD DUP1 SWAP2 SUB SWAP1 LOG2 POP POP POP POP JUMP JUMPDEST PUSH1 0x3 PUSH0 SWAP1 SLOAD SWAP1 PUSH2 0x100 EXP SWAP1 DIV PUSH20 0xFFFFFFFFFFFFFFFFFFFFFFFFFFFFFFFFFFFFFFFF AND DUP2 JUMP JUMPDEST PUSH0 SELFBALANCE SWAP1 POP SWAP1 JUMP JUMPDEST PUSH1 0x1 PUSH1 0x20 MSTORE DUP1 PUSH0 MSTORE PUSH1 0x40 PUSH0 KECCAK256 PUSH0 SWAP2 POP SWAP1 POP DUP1 PUSH0 ADD SLOAD SWAP1 DUP1 PUSH1 0x1 ADD SLOAD SWAP1 DUP1 PUSH1 0x2 ADD SLOAD SWAP1 DUP1 PUSH1 0x3 ADD SLOAD SWAP1 POP DUP5 JUMP JUMPDEST PUSH0 PUSH1 0x1 PUSH0 CALLER PUSH20 0xFFFFFFFFFFFFFFFFFFFFFFFFFFFFFFFFFFFFFFFF AND PUSH20 0xFFFFFFFFFFFFFFFFFFFFFFFFFFFFFFFFFFFFFFFF AND DUP2 MSTORE PUSH1 0x20 ADD SWAP1 DUP2 MSTORE PUSH1 0x20 ADD PUSH0 KECCAK256 PUSH1 0x2 ADD SLOAD GT PUSH2 0x9F5 JUMPI PUSH1 0x40 MLOAD PUSH32 0x8C379A000000000000000000000000000000000000000000000000000000000 DUP2 MSTORE PUSH1 0x4 ADD PUSH2 0x9EC SWAP1 PUSH2 0x12AB JUMP JUMPDEST PUSH1 0x40 MLOAD DUP1 SWAP2 SUB SWAP1 REVERT JUMPDEST PUSH0 PUSH1 0x1 PUSH0 CALLER PUSH20 0xFFFFFFFFFFFFFFFFFFFFFFFFFFFFFFFFFFFFFFFF AND PUSH20 0xFFFFFFFFFFFFFFFFFFFFFFFFFFFFFFFFFFFFFFFF AND DUP2 MSTORE PUSH1 0x20 ADD SWAP1 DUP2 MSTORE PUSH1 0x20 ADD PUSH0 KECCAK256 PUSH1 0x1 ADD SLOAD PUSH1 0x64 PUSH1 0x1 PUSH0 CALLER PUSH20 0xFFFFFFFFFFFFFFFFFFFFFFFFFFFFFFFFFFFFFFFF AND PUSH20 0xFFFFFFFFFFFFFFFFFFFFFFFFFFFFFFFFFFFFFFFF AND DUP2 MSTORE PUSH1 0x20 ADD SWAP1 DUP2 MSTORE PUSH1 0x20 ADD PUSH0 KECCAK256 PUSH1 0x3 ADD SLOAD PUSH1 0x1 PUSH0 CALLER PUSH20 0xFFFFFFFFFFFFFFFFFFFFFFFFFFFFFFFFFFFFFFFF AND PUSH20 0xFFFFFFFFFFFFFFFFFFFFFFFFFFFFFFFFFFFFFFFF AND DUP2 MSTORE PUSH1 0x20 ADD SWAP1 DUP2 MSTORE PUSH1 0x20 ADD PUSH0 KECCAK256 PUSH0 ADD SLOAD PUSH2 0xAC4 SWAP2 SWAP1 PUSH2 0x12F6 JUMP JUMPDEST PUSH2 0xACE SWAP2 SWAP1 PUSH2 0x1364 JUMP JUMPDEST PUSH1 0x1 PUSH0 CALLER PUSH20 0xFFFFFFFFFFFFFFFFFFFFFFFFFFFFFFFFFFFFFFFF AND PUSH20 0xFFFFFFFFFFFFFFFFFFFFFFFFFFFFFFFFFFFFFFFF AND DUP2 MSTORE PUSH1 0x20 ADD SWAP1 DUP2 MSTORE PUSH1 0x20 ADD PUSH0 KECCAK256 PUSH0 ADD SLOAD PUSH2 0xB18 SWAP2 SWAP1 PUSH2 0x1394 JUMP JUMPDEST PUSH2 0xB22 SWAP2 SWAP1 PUSH2 0x1364 JUMP JUMPDEST SWAP1 POP DUP1 PUSH0 SLOAD LT ISZERO PUSH2 0xB68 JUMPI PUSH1 0x40 MLOAD PUSH32 0x8C379A000000000000000000000000000000000000000000000000000000000 DUP2 MSTORE PUSH1 0x4 ADD PUSH2 0xB5F SWAP1 PUSH2 0x16F5 JUMP JUMPDEST PUSH1 0x40 MLOAD DUP1 SWAP2 SUB SWAP1 REVERT JUMPDEST DUP1 SELFBALANCE LT ISZERO PUSH2 0xBAB JUMPI PUSH1 0x40 MLOAD PUSH32 0x8C379A000000000000000000000000000000000000000000000000000000000 DUP2 MSTORE PUSH1 0x4 ADD PUSH2 0xBA2 SWAP1 PUSH2 0x175D JUMP JUMPDEST PUSH1 0x40 MLOAD DUP1 SWAP2 SUB SWAP1 REVERT JUMPDEST CALLER PUSH20 0xFFFFFFFFFFFFFFFFFFFFFFFFFFFFFFFFFFFFFFFF AND PUSH2 0x8FC DUP3 SWAP1 DUP2 ISZERO MUL SWAP1 PUSH1 0x40 MLOAD PUSH0 PUSH1 0x40 MLOAD DUP1 DUP4 SUB DUP2 DUP6 DUP9 DUP9 CALL SWAP4 POP POP POP POP ISZERO DUP1 ISZERO PUSH2 0xBEE JUMPI RETURNDATASIZE PUSH0 DUP1 RETURNDATACOPY RETURNDATASIZE PUSH0 REVERT JUMPDEST POP PUSH1 0x1 PUSH0 CALLER PUSH20 0xFFFFFFFFFFFFFFFFFFFFFFFFFFFFFFFFFFFFFFFF AND PUSH20 0xFFFFFFFFFFFFFFFFFFFFFFFFFFFFFFFFFFFFFFFF AND DUP2 MSTORE PUSH1 0x20 ADD SWAP1 DUP2 MSTORE PUSH1 0x20 ADD PUSH0 KECCAK256 PUSH1 0x2 ADD PUSH0 DUP2 SLOAD DUP1 SWAP3 SWAP2 SWAP1 PUSH2 0xC3F SWAP1 PUSH2 0x14BD JUMP JUMPDEST SWAP2 SWAP1 POP SSTORE POP DUP1 PUSH0 DUP1 DUP3 DUP3 SLOAD PUSH2 0xC54 SWAP2 SWAP1 PUSH2 0x177B JUMP JUMPDEST SWAP3 POP POP DUP2 SWAP1 SSTORE POP PUSH0 PUSH1 0x1 PUSH0 CALLER PUSH20 0xFFFFFFFFFFFFFFFFFFFFFFFFFFFFFFFFFFFFFFFF AND PUSH20 0xFFFFFFFFFFFFFFFFFFFFFFFFFFFFFFFFFFFFFFFF AND DUP2 MSTORE PUSH1 0x20 ADD SWAP1 DUP2 MSTORE PUSH1 0x20 ADD PUSH0 KECCAK256 PUSH1 0x2 ADD SLOAD SUB PUSH2 0xCFE JUMPI PUSH1 0x1 PUSH0 CALLER PUSH20 0xFFFFFFFFFFFFFFFFFFFFFFFFFFFFFFFFFFFFFFFF AND PUSH20 0xFFFFFFFFFFFFFFFFFFFFFFFFFFFFFFFFFFFFFFFF AND DUP2 MSTORE PUSH1 0x20 ADD SWAP1 DUP2 MSTORE PUSH1 0x20 ADD PUSH0 KECCAK256 PUSH0 DUP1 DUP3 ADD PUSH0 SWAP1 SSTORE PUSH1 0x1 DUP3 ADD PUSH0 SWAP1 SSTORE PUSH1 0x2 DUP3 ADD PUSH0 SWAP1 SSTORE PUSH1 0x3 DUP3 ADD PUSH0 SWAP1 SSTORE POP POP JUMPDEST POP JUMP JUMPDEST PUSH1 0x2 PUSH1 0x20 MSTORE DUP1 PUSH0 MSTORE PUSH1 0x40 PUSH0 KECCAK256 PUSH0 SWAP2 POP SWAP1 POP DUP1 PUSH0 ADD SLOAD SWAP1 DUP1 PUSH1 0x1 ADD SLOAD SWAP1 DUP1 PUSH1 0x2 ADD SLOAD SWAP1 DUP1 PUSH1 0x3 ADD SLOAD SWAP1 POP DUP5 JUMP JUMPDEST PUSH0 DUP3 GT PUSH2 0xD6F JUMPI PUSH1 0x40 MLOAD PUSH32 0x8C379A000000000000000000000000000000000000000000000000000000000 DUP2 MSTORE PUSH1 0x4 ADD PUSH2 0xD66 SWAP1 PUSH2 0x15FE JUMP JUMPDEST PUSH1 0x40 MLOAD DUP1 SWAP2 SUB SWAP1 REVERT JUMPDEST PUSH0 DUP2 GT PUSH2 0xDB1 JUMPI PUSH1 0x40 MLOAD PUSH32 0x8C379A000000000000000000000000000000000000000000000000000000000 DUP2 MSTORE PUSH1 0x4 ADD PUSH2 0xDA8 SWAP1 PUSH2 0x152E JUMP JUMPDEST PUSH1 0x40 MLOAD DUP1 SWAP2 SUB SWAP1 REVERT JUMPDEST DUP2 PUSH0 SLOAD LT ISZERO PUSH2 0xDF5 JUMPI PUSH1 0x40 MLOAD PUSH32 0x8C379A000000000000000000000000000000000000000000000000000000000 DUP2 MSTORE PUSH1 0x4 ADD PUSH2 0xDEC SWAP1 PUSH2 0x16F5 JUMP JUMPDEST PUSH1 0x40 MLOAD DUP1 SWAP2 SUB SWAP1 REVERT JUMPDEST DUP2 SELFBALANCE LT ISZERO PUSH2 0xE38 JUMPI PUSH1 0x40 MLOAD PUSH32 0x8C379A000000000000000000000000000000000000000000000000000000000 DUP2 MSTORE PUSH1 0x4 ADD PUSH2 0xE2F SWAP1 PUSH2 0x17F8 JUMP JUMPDEST PUSH1 0x40 MLOAD DUP1 SWAP2 SUB SWAP1 REVERT JUMPDEST PUSH0 PUSH2 0xE42 DUP3 PUSH2 0x5BF JUMP JUMPDEST SWAP1 POP PUSH0 PUSH1 0x64 DUP3 DUP5 DUP7 PUSH2 0xE54 SWAP2 SWAP1 PUSH2 0x12F6 JUMP JUMPDEST PUSH2 0xE5E SWAP2 SWAP1 PUSH2 0x12F6 JUMP JUMPDEST PUSH2 0xE68 SWAP2 SWAP1 PUSH2 0x1364 JUMP JUMPDEST SWAP1 POP DUP1 CALLER PUSH20 0xFFFFFFFFFFFFFFFFFFFFFFFFFFFFFFFFFFFFFFFF AND BALANCE LT ISZERO PUSH2 0xEC4 JUMPI PUSH1 0x40 MLOAD PUSH32 0x8C379A000000000000000000000000000000000000000000000000000000000 DUP2 MSTORE PUSH1 0x4 ADD PUSH2 0xEBB SWAP1 PUSH2 0x1860 JUMP JUMPDEST PUSH1 0x40 MLOAD DUP1 SWAP2 SUB SWAP1 REVERT JUMPDEST CALLER PUSH20 0xFFFFFFFFFFFFFFFFFFFFFFFFFFFFFFFFFFFFFFFF AND PUSH2 0x8FC DUP6 SWAP1 DUP2 ISZERO MUL SWAP1 PUSH1 0x40 MLOAD PUSH0 PUSH1 0x40 MLOAD DUP1 DUP4 SUB DUP2 DUP6 DUP9 DUP9 CALL SWAP4 POP POP POP POP ISZERO DUP1 ISZERO PUSH2 0xF07 JUMPI RETURNDATASIZE PUSH0 DUP1 RETURNDATACOPY RETURNDATASIZE PUSH0 REVERT JUMPDEST POP DUP4 PUSH0 DUP1 DUP3 DUP3 SLOAD PUSH2 0xF18 SWAP2 SWAP1 PUSH2 0x177B JUMP JUMPDEST SWAP3 POP POP DUP2 SWAP1 SSTORE POP DUP4 PUSH1 0x2 PUSH0 CALLER PUSH20 0xFFFFFFFFFFFFFFFFFFFFFFFFFFFFFFFFFFFFFFFF AND PUSH20 0xFFFFFFFFFFFFFFFFFFFFFFFFFFFFFFFFFFFFFFFF AND DUP2 MSTORE PUSH1 0x20 ADD SWAP1 DUP2 MSTORE PUSH1 0x20 ADD PUSH0 KECCAK256 PUSH0 ADD PUSH0 DUP3 DUP3 SLOAD PUSH2 0xF6D SWAP2 SWAP1 PUSH2 0x1394 JUMP JUMPDEST SWAP3 POP POP DUP2 SWAP1 SSTORE POP DUP3 PUSH1 0x2 PUSH0 CALLER PUSH20 0xFFFFFFFFFFFFFFFFFFFFFFFFFFFFFFFFFFFFFFFF AND PUSH20 0xFFFFFFFFFFFFFFFFFFFFFFFFFFFFFFFFFFFFFFFF AND DUP2 MSTORE PUSH1 0x20 ADD SWAP1 DUP2 MSTORE PUSH1 0x20 ADD PUSH0 KECCAK256 PUSH1 0x1 ADD DUP2 SWAP1 SSTORE POP DUP3 PUSH1 0x2 PUSH0 CALLER PUSH20 0xFFFFFFFFFFFFFFFFFFFFFFFFFFFFFFFFFFFFFFFF AND PUSH20 0xFFFFFFFFFFFFFFFFFFFFFFFFFFFFFFFFFFFFFFFF AND DUP2 MSTORE PUSH1 0x20 ADD SWAP1 DUP2 MSTORE PUSH1 0x20 ADD PUSH0 KECCAK256 PUSH1 0x2 ADD DUP2 SWAP1 SSTORE POP DUP2 PUSH1 0x2 PUSH0 CALLER PUSH20 0xFFFFFFFFFFFFFFFFFFFFFFFFFFFFFFFFFFFFFFFF AND PUSH20 0xFFFFFFFFFFFFFFFFFFFFFFFFFFFFFFFFFFFFFFFF AND DUP2 MSTORE PUSH1 0x20 ADD SWAP1 DUP2 MSTORE PUSH1 0x20 ADD PUSH0 KECCAK256 PUSH1 0x3 ADD DUP2 SWAP1 SSTORE POP CALLER PUSH20 0xFFFFFFFFFFFFFFFFFFFFFFFFFFFFFFFFFFFFFFFF AND PUSH32 0x1F4FA8BBAA124EF8D04466F13D5A2572FB712424CEE0BC9CF430AEC52439ACD7 DUP6 DUP6 PUSH1 0x40 MLOAD PUSH2 0x108B SWAP3 SWAP2 SWAP1 PUSH2 0x1684 JUMP JUMPDEST PUSH1 0x40 MLOAD DUP1 SWAP2 SUB SWAP1 LOG2 POP POP POP POP JUMP JUMPDEST PUSH0 DUP2 SWAP1 POP SWAP2 SWAP1 POP JUMP JUMPDEST PUSH2 0x10AB DUP2 PUSH2 0x1099 JUMP JUMPDEST DUP3 MSTORE POP POP JUMP JUMPDEST PUSH0 PUSH1 0x20 DUP3 ADD SWAP1 POP PUSH2 0x10C4 PUSH0 DUP4 ADD DUP5 PUSH2 0x10A2 JUMP JUMPDEST SWAP3 SWAP2 POP POP JUMP JUMPDEST PUSH0 DUP1 REVERT JUMPDEST PUSH2 0x10D7 DUP2 PUSH2 0x1099 JUMP JUMPDEST DUP2 EQ PUSH2 0x10E1 JUMPI PUSH0 DUP1 REVERT JUMPDEST POP JUMP JUMPDEST PUSH0 DUP2 CALLDATALOAD SWAP1 POP PUSH2 0x10F2 DUP2 PUSH2 0x10CE JUMP JUMPDEST SWAP3 SWAP2 POP POP JUMP JUMPDEST PUSH0 PUSH1 0x20 DUP3 DUP5 SUB SLT ISZERO PUSH2 0x110D JUMPI PUSH2 0x110C PUSH2 0x10CA JUMP JUMPDEST JUMPDEST PUSH0 PUSH2 0x111A DUP5 DUP3 DUP6 ADD PUSH2 0x10E4 JUMP JUMPDEST SWAP2 POP POP SWAP3 SWAP2 POP POP JUMP JUMPDEST PUSH0 PUSH20 0xFFFFFFFFFFFFFFFFFFFFFFFFFFFFFFFFFFFFFFFF DUP3 AND SWAP1 POP SWAP2 SWAP1 POP JUMP JUMPDEST PUSH0 PUSH2 0x114C DUP3 PUSH2 0x1123 JUMP JUMPDEST SWAP1 POP SWAP2 SWAP1 POP JUMP JUMPDEST PUSH2 0x115C DUP2 PUSH2 0x1142 JUMP JUMPDEST DUP3 MSTORE POP POP JUMP JUMPDEST PUSH0 PUSH1 0x20 DUP3 ADD SWAP1 POP PUSH2 0x1175 PUSH0 DUP4 ADD DUP5 PUSH2 0x1153 JUMP JUMPDEST SWAP3 SWAP2 POP POP JUMP JUMPDEST PUSH2 0x1184 DUP2 PUSH2 0x1142 JUMP JUMPDEST DUP2 EQ PUSH2 0x118E JUMPI PUSH0 DUP1 REVERT JUMPDEST POP JUMP JUMPDEST PUSH0 DUP2 CALLDATALOAD SWAP1 POP PUSH2 0x119F DUP2 PUSH2 0x117B JUMP JUMPDEST SWAP3 SWAP2 POP POP JUMP JUMPDEST PUSH0 PUSH1 0x20 DUP3 DUP5 SUB SLT ISZERO PUSH2 0x11BA JUMPI PUSH2 0x11B9 PUSH2 0x10CA JUMP JUMPDEST JUMPDEST PUSH0 PUSH2 0x11C7 DUP5 DUP3 DUP6 ADD PUSH2 0x1191 JUMP JUMPDEST SWAP2 POP POP SWAP3 SWAP2 POP POP JUMP JUMPDEST PUSH0 PUSH1 0x80 DUP3 ADD SWAP1 POP PUSH2 0x11E3 PUSH0 DUP4 ADD DUP8 PUSH2 0x10A2 JUMP JUMPDEST PUSH2 0x11F0 PUSH1 0x20 DUP4 ADD DUP7 PUSH2 0x10A2 JUMP JUMPDEST PUSH2 0x11FD PUSH1 0x40 DUP4 ADD DUP6 PUSH2 0x10A2 JUMP JUMPDEST PUSH2 0x120A PUSH1 0x60 DUP4 ADD DUP5 PUSH2 0x10A2 JUMP JUMPDEST SWAP6 SWAP5 POP POP POP POP POP JUMP JUMPDEST PUSH0 DUP1 PUSH1 0x40 DUP4 DUP6 SUB SLT ISZERO PUSH2 0x1229 JUMPI PUSH2 0x1228 PUSH2 0x10CA JUMP JUMPDEST JUMPDEST PUSH0 PUSH2 0x1236 DUP6 DUP3 DUP7 ADD PUSH2 0x10E4 JUMP JUMPDEST SWAP3 POP POP PUSH1 0x20 PUSH2 0x1247 DUP6 DUP3 DUP7 ADD PUSH2 0x10E4 JUMP JUMPDEST SWAP2 POP POP SWAP3 POP SWAP3 SWAP1 POP JUMP JUMPDEST PUSH0 DUP3 DUP3 MSTORE PUSH1 0x20 DUP3 ADD SWAP1 POP SWAP3 SWAP2 POP POP JUMP JUMPDEST PUSH32 0x417563756E20707265742061637469662074726F757665000000000000000000 PUSH0 DUP3 ADD MSTORE POP JUMP JUMPDEST PUSH0 PUSH2 0x1295 PUSH1 0x17 DUP4 PUSH2 0x1251 JUMP JUMPDEST SWAP2 POP PUSH2 0x12A0 DUP3 PUSH2 0x1261 JUMP JUMPDEST PUSH1 0x20 DUP3 ADD SWAP1 POP SWAP2 SWAP1 POP JUMP JUMPDEST PUSH0 PUSH1 0x20 DUP3 ADD SWAP1 POP DUP2 DUP2 SUB PUSH0 DUP4 ADD MSTORE PUSH2 0x12C2 DUP2 PUSH2 0x1289 JUMP JUMPDEST SWAP1 POP SWAP2 SWAP1 POP JUMP JUMPDEST PUSH32 0x4E487B7100000000000000000000000000000000000000000000000000000000 PUSH0 MSTORE PUSH1 0x11 PUSH1 0x4 MSTORE PUSH1 0x24 PUSH0 REVERT JUMPDEST PUSH0 PUSH2 0x1300 DUP3 PUSH2 0x1099 JUMP JUMPDEST SWAP2 POP PUSH2 0x130B DUP4 PUSH2 0x1099 JUMP JUMPDEST SWAP3 POP DUP3 DUP3 MUL PUSH2 0x1319 DUP2 PUSH2 0x1099 JUMP JUMPDEST SWAP2 POP DUP3 DUP3 DIV DUP5 EQ DUP4 ISZERO OR PUSH2 0x1330 JUMPI PUSH2 0x132F PUSH2 0x12C9 JUMP JUMPDEST JUMPDEST POP SWAP3 SWAP2 POP POP JUMP JUMPDEST PUSH32 0x4E487B7100000000000000000000000000000000000000000000000000000000 PUSH0 MSTORE PUSH1 0x12 PUSH1 0x4 MSTORE PUSH1 0x24 PUSH0 REVERT JUMPDEST PUSH0 PUSH2 0x136E DUP3 PUSH2 0x1099 JUMP JUMPDEST SWAP2 POP PUSH2 0x1379 DUP4 PUSH2 0x1099 JUMP JUMPDEST SWAP3 POP DUP3 PUSH2 0x1389 JUMPI PUSH2 0x1388 PUSH2 0x1337 JUMP JUMPDEST JUMPDEST DUP3 DUP3 DIV SWAP1 POP SWAP3 SWAP2 POP POP JUMP JUMPDEST PUSH0 PUSH2 0x139E DUP3 PUSH2 0x1099 JUMP JUMPDEST SWAP2 POP PUSH2 0x13A9 DUP4 PUSH2 0x1099 JUMP JUMPDEST SWAP3 POP DUP3 DUP3 ADD SWAP1 POP DUP1 DUP3 GT ISZERO PUSH2 0x13C1 JUMPI PUSH2 0x13C0 PUSH2 0x12C9 JUMP JUMPDEST JUMPDEST SWAP3 SWAP2 POP POP JUMP JUMPDEST PUSH32 0x42616C616E636520696E737566666973616E7465000000000000000000000000 PUSH0 DUP3 ADD MSTORE POP JUMP JUMPDEST PUSH0 PUSH2 0x13FB PUSH1 0x14 DUP4 PUSH2 0x1251 JUMP JUMPDEST SWAP2 POP PUSH2 0x1406 DUP3 PUSH2 0x13C7 JUMP JUMPDEST PUSH1 0x20 DUP3 ADD SWAP1 POP SWAP2 SWAP1 POP JUMP JUMPDEST PUSH0 PUSH1 0x20 DUP3 ADD SWAP1 POP DUP2 DUP2 SUB PUSH0 DUP4 ADD MSTORE PUSH2 0x1428 DUP2 PUSH2 0x13EF JUMP JUMPDEST SWAP1 POP SWAP2 SWAP1 POP JUMP JUMPDEST PUSH32 0x56616C65757220706F7572206C61207472616E73616374696F6E20696E737566 PUSH0 DUP3 ADD MSTORE PUSH32 0x666973616E746500000000000000000000000000000000000000000000000000 PUSH1 0x20 DUP3 ADD MSTORE POP JUMP JUMPDEST PUSH0 PUSH2 0x1489 PUSH1 0x27 DUP4 PUSH2 0x1251 JUMP JUMPDEST SWAP2 POP PUSH2 0x1494 DUP3 PUSH2 0x142F JUMP JUMPDEST PUSH1 0x40 DUP3 ADD SWAP1 POP SWAP2 SWAP1 POP JUMP JUMPDEST PUSH0 PUSH1 0x20 DUP3 ADD SWAP1 POP DUP2 DUP2 SUB PUSH0 DUP4 ADD MSTORE PUSH2 0x14B6 DUP2 PUSH2 0x147D JUMP JUMPDEST SWAP1 POP SWAP2 SWAP1 POP JUMP JUMPDEST PUSH0 PUSH2 0x14C7 DUP3 PUSH2 0x1099 JUMP JUMPDEST SWAP2 POP PUSH0 DUP3 SUB PUSH2 0x14D9 JUMPI PUSH2 0x14D8 PUSH2 0x12C9 JUMP JUMPDEST JUMPDEST PUSH1 0x1 DUP3 SUB SWAP1 POP SWAP2 SWAP1 POP JUMP JUMPDEST PUSH32 0x4475726174696F6E206D7573742062652067726561746572207468616E203000 PUSH0 DUP3 ADD MSTORE POP JUMP JUMPDEST PUSH0 PUSH2 0x1518 PUSH1 0x1F DUP4 PUSH2 0x1251 JUMP JUMPDEST SWAP2 POP PUSH2 0x1523 DUP3 PUSH2 0x14E4 JUMP JUMPDEST PUSH1 0x20 DUP3 ADD SWAP1 POP SWAP2 SWAP1 POP JUMP JUMPDEST PUSH0 PUSH1 0x20 DUP3 ADD SWAP1 POP DUP2 DUP2 SUB PUSH0 DUP4 ADD MSTORE PUSH2 0x1545 DUP2 PUSH2 0x150C JUMP JUMPDEST SWAP1 POP SWAP2 SWAP1 POP JUMP JUMPDEST PUSH32 0x496E73756666696369656E742066756E647320746F206C656E64000000000000 PUSH0 DUP3 ADD MSTORE POP JUMP JUMPDEST PUSH0 PUSH2 0x1580 PUSH1 0x1A DUP4 PUSH2 0x1251 JUMP JUMPDEST SWAP2 POP PUSH2 0x158B DUP3 PUSH2 0x154C JUMP JUMPDEST PUSH1 0x20 DUP3 ADD SWAP1 POP SWAP2 SWAP1 POP JUMP JUMPDEST PUSH0 PUSH1 0x20 DUP3 ADD SWAP1 POP DUP2 DUP2 SUB PUSH0 DUP4 ADD MSTORE PUSH2 0x15AD DUP2 PUSH2 0x1574 JUMP JUMPDEST SWAP1 POP SWAP2 SWAP1 POP JUMP JUMPDEST PUSH32 0x416D6F756E74206D7573742062652067726561746572207468616E2030000000 PUSH0 DUP3 ADD MSTORE POP JUMP JUMPDEST PUSH0 PUSH2 0x15E8 PUSH1 0x1D DUP4 PUSH2 0x1251 JUMP JUMPDEST SWAP2 POP PUSH2 0x15F3 DUP3 PUSH2 0x15B4 JUMP JUMPDEST PUSH1 0x20 DUP3 ADD SWAP1 POP SWAP2 SWAP1 POP JUMP JUMPDEST PUSH0 PUSH1 0x20 DUP3 ADD SWAP1 POP DUP2 DUP2 SUB PUSH0 DUP4 ADD MSTORE PUSH2 0x1615 DUP2 PUSH2 0x15DC JUMP JUMPDEST SWAP1 POP SWAP2 SWAP1 POP JUMP JUMPDEST PUSH32 0x496E746572657374206D7573742062652067726561746572207468616E203000 PUSH0 DUP3 ADD MSTORE POP JUMP JUMPDEST PUSH0 PUSH2 0x1650 PUSH1 0x1F DUP4 PUSH2 0x1251 JUMP JUMPDEST SWAP2 POP PUSH2 0x165B DUP3 PUSH2 0x161C JUMP JUMPDEST PUSH1 0x20 DUP3 ADD SWAP1 POP SWAP2 SWAP1 POP JUMP JUMPDEST PUSH0 PUSH1 0x20 DUP3 ADD SWAP1 POP DUP2 DUP2 SUB PUSH0 DUP4 ADD MSTORE PUSH2 0x167D DUP2 PUSH2 0x1644 JUMP JUMPDEST SWAP1 POP SWAP2 SWAP1 POP JUMP JUMPDEST PUSH0 PUSH1 0x40 DUP3 ADD SWAP1 POP PUSH2 0x1697 PUSH0 DUP4 ADD DUP6 PUSH2 0x10A2 JUMP JUMPDEST PUSH2 0x16A4 PUSH1 0x20 DUP4 ADD DUP5 PUSH2 0x10A2 JUMP JUMPDEST SWAP4 SWAP3 POP POP POP JUMP JUMPDEST PUSH32 0x42616C616E636520636F6E7472617420696E737566666973616E746500000000 PUSH0 DUP3 ADD MSTORE POP JUMP JUMPDEST PUSH0 PUSH2 0x16DF PUSH1 0x1C DUP4 PUSH2 0x1251 JUMP JUMPDEST SWAP2 POP PUSH2 0x16EA DUP3 PUSH2 0x16AB JUMP JUMPDEST PUSH1 0x20 DUP3 ADD SWAP1 POP SWAP2 SWAP1 POP JUMP JUMPDEST PUSH0 PUSH1 0x20 DUP3 ADD SWAP1 POP DUP2 DUP2 SUB PUSH0 DUP4 ADD MSTORE PUSH2 0x170C DUP2 PUSH2 0x16D3 JUMP JUMPDEST SWAP1 POP SWAP2 SWAP1 POP JUMP JUMPDEST PUSH32 0x466F6E6420647520636F6E747261637420696E737566666973616E7400000000 PUSH0 DUP3 ADD MSTORE POP JUMP JUMPDEST PUSH0 PUSH2 0x1747 PUSH1 0x1C DUP4 PUSH2 0x1251 JUMP JUMPDEST SWAP2 POP PUSH2 0x1752 DUP3 PUSH2 0x1713 JUMP JUMPDEST PUSH1 0x20 DUP3 ADD SWAP1 POP SWAP2 SWAP1 POP JUMP JUMPDEST PUSH0 PUSH1 0x20 DUP3 ADD SWAP1 POP DUP2 DUP2 SUB PUSH0 DUP4 ADD MSTORE PUSH2 0x1774 DUP2 PUSH2 0x173B JUMP JUMPDEST SWAP1 POP SWAP2 SWAP1 POP JUMP JUMPDEST PUSH0 PUSH2 0x1785 DUP3 PUSH2 0x1099 JUMP JUMPDEST SWAP2 POP PUSH2 0x1790 DUP4 PUSH2 0x1099 JUMP JUMPDEST SWAP3 POP DUP3 DUP3 SUB SWAP1 POP DUP2 DUP2 GT ISZERO PUSH2 0x17A8 JUMPI PUSH2 0x17A7 PUSH2 0x12C9 JUMP JUMPDEST JUMPDEST SWAP3 SWAP2 POP POP JUMP JUMPDEST PUSH32 0x466F6E6420636F6E7472617420696E737566666973616E740000000000000000 PUSH0 DUP3 ADD MSTORE POP JUMP JUMPDEST PUSH0 PUSH2 0x17E2 PUSH1 0x18 DUP4 PUSH2 0x1251 JUMP JUMPDEST SWAP2 POP PUSH2 0x17ED DUP3 PUSH2 0x17AE JUMP JUMPDEST PUSH1 0x20 DUP3 ADD SWAP1 POP SWAP2 SWAP1 POP JUMP JUMPDEST PUSH0 PUSH1 0x20 DUP3 ADD SWAP1 POP DUP2 DUP2 SUB PUSH0 DUP4 ADD MSTORE PUSH2 0x180F DUP2 PUSH2 0x17D6 JUMP JUMPDEST SWAP1 POP SWAP2 SWAP1 POP JUMP JUMPDEST PUSH32 0x496E73756666696369656E742066756E647320746F20626F72726F7700000000 PUSH0 DUP3 ADD MSTORE POP JUMP JUMPDEST PUSH0 PUSH2 0x184A PUSH1 0x1C DUP4 PUSH2 0x1251 JUMP JUMPDEST SWAP2 POP PUSH2 0x1855 DUP3 PUSH2 0x1816 JUMP JUMPDEST PUSH1 0x20 DUP3 ADD SWAP1 POP SWAP2 SWAP1 POP JUMP JUMPDEST PUSH0 PUSH1 0x20 DUP3 ADD SWAP1 POP DUP2 DUP2 SUB PUSH0 DUP4 ADD MSTORE PUSH2 0x1877 DUP2 PUSH2 0x183E JUMP JUMPDEST SWAP1 POP SWAP2 SWAP1 POP JUMP INVALID LOG2 PUSH5 0x6970667358 0x22 SLT KECCAK256 0xD8 LOG2 0x4B CALLDATALOAD SWAP10 PUSH24 0xA62A661DD4ADA05EBEFBE6B18464DC5AEA51380D8EB7FA16 0xAF 0xCD PUSH5 0x736F6C6343 STOP ADDMOD NOT STOP CALLER "
		},
		"gasEstimates": {
			"creation": {
				"codeDepositCost": "1264800",
				"executionCost": "30583",
				"totalCost": "1295383"
			},
			"external": {
				"contractBalances()": "2425",
				"emprunterFonds(uint256,uint256)": "infinite",
				"emprunteur(address)": "infinite",
				"findInterestRate(uint256)": "infinite",
				"getContractBalance()": "2455",
				"getContractBalanceReelle()": "356",
				"investirFonds(uint256)": "infinite",
				"investisseur(address)": "infinite",
				"owner()": "2508",
				"rembouserEmprunt()": "infinite",
				"retourInvestissement()": "infinite"
			}
		},
		"methodIdentifiers": {
			"contractBalances()": "2163885a",
			"emprunterFonds(uint256,uint256)": "feabae58",
			"emprunteur(address)": "de4c1982",
			"findInterestRate(uint256)": "7341db60",
			"getContractBalance()": "6f9fb98a",
			"getContractBalanceReelle()": "97643fd7",
			"investirFonds(uint256)": "7c0c3602",
			"investisseur(address)": "cc336ee1",
			"owner()": "8da5cb5b",
			"rembouserEmprunt()": "704d914d",
			"retourInvestissement()": "ccbb629b"
		}
	},
	"abi": [
		{
			"inputs": [],
			"stateMutability": "nonpayable",
			"type": "constructor"
		},
		{
			"anonymous": false,
			"inputs": [
				{
					"indexed": true,
					"internalType": "address",
					"name": "borrower",
					"type": "address"
				},
				{
					"indexed": false,
					"internalType": "uint256",
					"name": "amount",
					"type": "uint256"
				},
				{
					"indexed": false,
					"internalType": "uint256",
					"name": "duration",
					"type": "uint256"
				}
			],
			"name": "LoanGranted",
			"type": "event"
		},
		{
			"inputs": [],
			"name": "contractBalances",
			"outputs": [
				{
					"internalType": "uint256",
					"name": "",
					"type": "uint256"
				}
			],
			"stateMutability": "view",
			"type": "function"
		},
		{
			"inputs": [
				{
					"internalType": "uint256",
					"name": "amount",
					"type": "uint256"
				},
				{
					"internalType": "uint256",
					"name": "duration",
					"type": "uint256"
				}
			],
			"name": "emprunterFonds",
			"outputs": [],
			"stateMutability": "payable",
			"type": "function"
		},
		{
			"inputs": [
				{
					"internalType": "address",
					"name": "",
					"type": "address"
				}
			],
			"name": "emprunteur",
			"outputs": [
				{
					"internalType": "uint256",
					"name": "montant",
					"type": "uint256"
				},
				{
					"internalType": "uint256",
					"name": "duree",
					"type": "uint256"
				},
				{
					"internalType": "uint256",
					"name": "dureeRestante",
					"type": "uint256"
				},
				{
					"internalType": "uint256",
					"name": "tauxInteret",
					"type": "uint256"
				}
			],
			"stateMutability": "view",
			"type": "function"
		},
		{
			"inputs": [
				{
					"internalType": "uint256",
					"name": "duration",
					"type": "uint256"
				}
			],
			"name": "findInterestRate",
			"outputs": [
				{
					"internalType": "uint256",
					"name": "",
					"type": "uint256"
				}
			],
			"stateMutability": "pure",
			"type": "function"
		},
		{
			"inputs": [],
			"name": "getContractBalance",
			"outputs": [
				{
					"internalType": "uint256",
					"name": "",
					"type": "uint256"
				}
			],
			"stateMutability": "view",
			"type": "function"
		},
		{
			"inputs": [],
			"name": "getContractBalanceReelle",
			"outputs": [
				{
					"internalType": "uint256",
					"name": "",
					"type": "uint256"
				}
			],
			"stateMutability": "view",
			"type": "function"
		},
		{
			"inputs": [
				{
					"internalType": "uint256",
					"name": "duration",
					"type": "uint256"
				}
			],
			"name": "investirFonds",
			"outputs": [],
			"stateMutability": "payable",
			"type": "function"
		},
		{
			"inputs": [
				{
					"internalType": "address",
					"name": "",
					"type": "address"
				}
			],
			"name": "investisseur",
			"outputs": [
				{
					"internalType": "uint256",
					"name": "montant",
					"type": "uint256"
				},
				{
					"internalType": "uint256",
					"name": "duree",
					"type": "uint256"
				},
				{
					"internalType": "uint256",
					"name": "dureeRestante",
					"type": "uint256"
				},
				{
					"internalType": "uint256",
					"name": "tauxInteret",
					"type": "uint256"
				}
			],
			"stateMutability": "view",
			"type": "function"
		},
		{
			"inputs": [],
			"name": "owner",
			"outputs": [
				{
					"internalType": "address",
					"name": "",
					"type": "address"
				}
			],
			"stateMutability": "view",
			"type": "function"
		},
		{
			"inputs": [],
			"name": "rembouserEmprunt",
			"outputs": [],
			"stateMutability": "payable",
			"type": "function"
		},
		{
			"inputs": [],
			"name": "retourInvestissement",
			"outputs": [],
			"stateMutability": "payable",
			"type": "function"
		}
	]
}